{
  "address": "0xd483aE062d5529bc92150272810232b4E8e8bf4b",
  "abi": [
    {
      "inputs": [
        {
          "internalType": "uint256",
          "name": "maxBatchSize_",
          "type": "uint256"
        },
        {
          "internalType": "uint256",
          "name": "collectionSize_",
          "type": "uint256"
        },
        {
          "internalType": "uint256",
          "name": "amountForAuctionSale_",
          "type": "uint256"
        },
        {
          "internalType": "uint256",
          "name": "amountForPresale_",
          "type": "uint256"
        },
        {
          "internalType": "uint256",
          "name": "amountForDevs_",
          "type": "uint256"
        }
      ],
      "stateMutability": "nonpayable",
      "type": "constructor"
    },
    {
      "anonymous": false,
      "inputs": [
        {
          "indexed": true,
          "internalType": "address",
          "name": "owner",
          "type": "address"
        },
        {
          "indexed": true,
          "internalType": "address",
          "name": "approved",
          "type": "address"
        },
        {
          "indexed": true,
          "internalType": "uint256",
          "name": "tokenId",
          "type": "uint256"
        }
      ],
      "name": "Approval",
      "type": "event"
    },
    {
      "anonymous": false,
      "inputs": [
        {
          "indexed": true,
          "internalType": "address",
          "name": "owner",
          "type": "address"
        },
        {
          "indexed": true,
          "internalType": "address",
          "name": "operator",
          "type": "address"
        },
        {
          "indexed": false,
          "internalType": "bool",
          "name": "approved",
          "type": "bool"
        }
      ],
      "name": "ApprovalForAll",
      "type": "event"
    },
    {
      "anonymous": false,
      "inputs": [
        {
          "indexed": true,
          "internalType": "address",
          "name": "previousOwner",
          "type": "address"
        },
        {
          "indexed": true,
          "internalType": "address",
          "name": "newOwner",
          "type": "address"
        }
      ],
      "name": "OwnershipTransferred",
      "type": "event"
    },
    {
      "anonymous": false,
      "inputs": [
        {
          "indexed": true,
          "internalType": "address",
          "name": "from",
          "type": "address"
        },
        {
          "indexed": true,
          "internalType": "address",
          "name": "to",
          "type": "address"
        },
        {
          "indexed": true,
          "internalType": "uint256",
          "name": "tokenId",
          "type": "uint256"
        }
      ],
      "name": "Transfer",
      "type": "event"
    },
    {
      "inputs": [],
      "name": "AUCTION_DROP_INTERVAL",
      "outputs": [
        {
          "internalType": "uint256",
          "name": "",
          "type": "uint256"
        }
      ],
      "stateMutability": "view",
      "type": "function"
    },
    {
      "inputs": [],
      "name": "AUCTION_DROP_PER_STEP",
      "outputs": [
        {
          "internalType": "uint256",
          "name": "",
          "type": "uint256"
        }
      ],
      "stateMutability": "view",
      "type": "function"
    },
    {
      "inputs": [],
      "name": "AUCTION_DURATION",
      "outputs": [
        {
          "internalType": "uint256",
          "name": "",
          "type": "uint256"
        }
      ],
      "stateMutability": "view",
      "type": "function"
    },
    {
      "inputs": [],
      "name": "AUCTION_END_PRICE",
      "outputs": [
        {
          "internalType": "uint256",
          "name": "",
          "type": "uint256"
        }
      ],
      "stateMutability": "view",
      "type": "function"
    },
    {
      "inputs": [],
      "name": "AUCTION_START_PRICE",
      "outputs": [
        {
          "internalType": "uint256",
          "name": "",
          "type": "uint256"
        }
      ],
      "stateMutability": "view",
      "type": "function"
    },
    {
      "inputs": [],
      "name": "PRE_SALE_PRICE",
      "outputs": [
        {
          "internalType": "uint256",
          "name": "",
          "type": "uint256"
        }
      ],
      "stateMutability": "view",
      "type": "function"
    },
    {
      "inputs": [],
      "name": "PUBLIC_SALE_PRICE",
      "outputs": [
        {
          "internalType": "uint256",
          "name": "",
          "type": "uint256"
        }
      ],
      "stateMutability": "view",
      "type": "function"
    },
    {
      "inputs": [],
      "name": "amountForAuctionSale",
      "outputs": [
        {
          "internalType": "uint256",
          "name": "",
          "type": "uint256"
        }
      ],
      "stateMutability": "view",
      "type": "function"
    },
    {
      "inputs": [],
      "name": "amountForDevs",
      "outputs": [
        {
          "internalType": "uint256",
          "name": "",
          "type": "uint256"
        }
      ],
      "stateMutability": "view",
      "type": "function"
    },
    {
      "inputs": [],
      "name": "amountForPresale",
      "outputs": [
        {
          "internalType": "uint256",
          "name": "",
          "type": "uint256"
        }
      ],
      "stateMutability": "view",
      "type": "function"
    },
    {
      "inputs": [
        {
          "internalType": "address",
          "name": "to",
          "type": "address"
        },
        {
          "internalType": "uint256",
          "name": "tokenId",
          "type": "uint256"
        }
      ],
      "name": "approve",
      "outputs": [],
      "stateMutability": "nonpayable",
      "type": "function"
    },
    {
      "inputs": [
        {
          "internalType": "uint256",
          "name": "quantity",
          "type": "uint256"
        }
      ],
      "name": "auctionSaleMint",
      "outputs": [],
      "stateMutability": "payable",
      "type": "function"
    },
    {
      "inputs": [],
      "name": "auctionSaleStartTime",
      "outputs": [
        {
          "internalType": "uint256",
          "name": "",
          "type": "uint256"
        }
      ],
      "stateMutability": "view",
      "type": "function"
    },
    {
      "inputs": [
        {
          "internalType": "address",
          "name": "owner",
          "type": "address"
        }
      ],
      "name": "balanceOf",
      "outputs": [
        {
          "internalType": "uint256",
          "name": "",
          "type": "uint256"
        }
      ],
      "stateMutability": "view",
      "type": "function"
    },
    {
      "inputs": [],
      "name": "currentAuctionAmount",
      "outputs": [
        {
          "internalType": "uint256",
          "name": "",
          "type": "uint256"
        }
      ],
      "stateMutability": "view",
      "type": "function"
    },
    {
      "inputs": [],
      "name": "currentPresaleAmount",
      "outputs": [
        {
          "internalType": "uint256",
          "name": "",
          "type": "uint256"
        }
      ],
      "stateMutability": "view",
      "type": "function"
    },
    {
      "inputs": [],
      "name": "currentSalePhase",
      "outputs": [
        {
          "internalType": "enum Anero.SalePhase",
          "name": "",
          "type": "uint8"
        }
      ],
      "stateMutability": "view",
      "type": "function"
    },
    {
      "inputs": [
        {
          "internalType": "uint256",
          "name": "quantity",
          "type": "uint256"
        }
      ],
      "name": "devMint",
      "outputs": [],
      "stateMutability": "nonpayable",
      "type": "function"
    },
    {
      "inputs": [],
      "name": "endSale",
      "outputs": [],
      "stateMutability": "nonpayable",
      "type": "function"
    },
    {
      "inputs": [
        {
          "internalType": "uint256",
          "name": "tokenId",
          "type": "uint256"
        }
      ],
      "name": "getApproved",
      "outputs": [
        {
          "internalType": "address",
          "name": "",
          "type": "address"
        }
      ],
      "stateMutability": "view",
      "type": "function"
    },
    {
      "inputs": [],
      "name": "getAuctionPrice",
      "outputs": [
        {
          "internalType": "uint256",
          "name": "",
          "type": "uint256"
        }
      ],
      "stateMutability": "view",
      "type": "function"
    },
    {
      "inputs": [
        {
          "internalType": "uint256",
          "name": "tokenId",
          "type": "uint256"
        }
      ],
      "name": "getOwnershipData",
      "outputs": [
        {
          "components": [
            {
              "internalType": "address",
              "name": "addr",
              "type": "address"
            },
            {
              "internalType": "uint64",
              "name": "startTimestamp",
              "type": "uint64"
            }
          ],
          "internalType": "struct ERC721A.TokenOwnership",
          "name": "",
          "type": "tuple"
        }
      ],
      "stateMutability": "view",
      "type": "function"
    },
    {
      "inputs": [
        {
          "internalType": "address",
          "name": "owner",
          "type": "address"
        },
        {
          "internalType": "address",
          "name": "operator",
          "type": "address"
        }
      ],
      "name": "isApprovedForAll",
      "outputs": [
        {
          "internalType": "bool",
          "name": "",
          "type": "bool"
        }
      ],
      "stateMutability": "view",
      "type": "function"
    },
    {
      "inputs": [],
      "name": "maxAmountPerWallet",
      "outputs": [
        {
          "internalType": "uint256",
          "name": "",
          "type": "uint256"
        }
      ],
      "stateMutability": "view",
      "type": "function"
    },
    {
      "inputs": [],
      "name": "name",
      "outputs": [
        {
          "internalType": "string",
          "name": "",
          "type": "string"
        }
      ],
      "stateMutability": "view",
      "type": "function"
    },
    {
      "inputs": [],
      "name": "nextOwnerToExplicitlySet",
      "outputs": [
        {
          "internalType": "uint256",
          "name": "",
          "type": "uint256"
        }
      ],
      "stateMutability": "view",
      "type": "function"
    },
    {
      "inputs": [
        {
          "internalType": "address",
          "name": "owner",
          "type": "address"
        }
      ],
      "name": "numberMinted",
      "outputs": [
        {
          "internalType": "uint256",
          "name": "",
          "type": "uint256"
        }
      ],
      "stateMutability": "view",
      "type": "function"
    },
    {
      "inputs": [],
      "name": "owner",
      "outputs": [
        {
          "internalType": "address",
          "name": "",
          "type": "address"
        }
      ],
      "stateMutability": "view",
      "type": "function"
    },
    {
      "inputs": [
        {
          "internalType": "uint256",
          "name": "tokenId",
          "type": "uint256"
        }
      ],
      "name": "ownerOf",
      "outputs": [
        {
          "internalType": "address",
          "name": "",
          "type": "address"
        }
      ],
      "stateMutability": "view",
      "type": "function"
    },
    {
      "inputs": [
        {
          "internalType": "uint256",
          "name": "quantity",
          "type": "uint256"
        },
        {
          "internalType": "bytes",
          "name": "signature",
          "type": "bytes"
        }
      ],
      "name": "preSaleMint",
      "outputs": [],
      "stateMutability": "payable",
      "type": "function"
    },
    {
      "inputs": [],
      "name": "preSaleStartTime",
      "outputs": [
        {
          "internalType": "uint256",
          "name": "",
          "type": "uint256"
        }
      ],
      "stateMutability": "view",
      "type": "function"
    },
    {
      "inputs": [
        {
          "internalType": "uint256",
          "name": "quantity",
          "type": "uint256"
        }
      ],
      "name": "publicSaleMint",
      "outputs": [],
      "stateMutability": "payable",
      "type": "function"
    },
    {
      "inputs": [],
      "name": "publicSaleStartTime",
      "outputs": [
        {
          "internalType": "uint256",
          "name": "",
          "type": "uint256"
        }
      ],
      "stateMutability": "view",
      "type": "function"
    },
    {
      "inputs": [],
      "name": "renounceOwnership",
      "outputs": [],
      "stateMutability": "nonpayable",
      "type": "function"
    },
    {
      "inputs": [],
      "name": "reveal",
      "outputs": [
        {
          "internalType": "bool",
          "name": "",
          "type": "bool"
        }
      ],
      "stateMutability": "view",
      "type": "function"
    },
    {
      "inputs": [
        {
          "internalType": "address",
          "name": "from",
          "type": "address"
        },
        {
          "internalType": "address",
          "name": "to",
          "type": "address"
        },
        {
          "internalType": "uint256",
          "name": "tokenId",
          "type": "uint256"
        }
      ],
      "name": "safeTransferFrom",
      "outputs": [],
      "stateMutability": "nonpayable",
      "type": "function"
    },
    {
      "inputs": [
        {
          "internalType": "address",
          "name": "from",
          "type": "address"
        },
        {
          "internalType": "address",
          "name": "to",
          "type": "address"
        },
        {
          "internalType": "uint256",
          "name": "tokenId",
          "type": "uint256"
        },
        {
          "internalType": "bytes",
          "name": "_data",
          "type": "bytes"
        }
      ],
      "name": "safeTransferFrom",
      "outputs": [],
      "stateMutability": "nonpayable",
      "type": "function"
    },
    {
      "inputs": [
        {
          "internalType": "address",
          "name": "operator",
          "type": "address"
        },
        {
          "internalType": "bool",
          "name": "approved",
          "type": "bool"
        }
      ],
      "name": "setApprovalForAll",
      "outputs": [],
      "stateMutability": "nonpayable",
      "type": "function"
    },
    {
      "inputs": [],
      "name": "setAuctionSaleActive",
      "outputs": [],
      "stateMutability": "nonpayable",
      "type": "function"
    },
    {
      "inputs": [
        {
          "internalType": "string",
          "name": "baseURI",
          "type": "string"
        }
      ],
      "name": "setBaseURI",
      "outputs": [],
      "stateMutability": "nonpayable",
      "type": "function"
    },
    {
      "inputs": [],
      "name": "setPreSaleActive",
      "outputs": [],
      "stateMutability": "nonpayable",
      "type": "function"
    },
    {
      "inputs": [
        {
          "internalType": "address",
          "name": "signer",
          "type": "address"
        }
      ],
      "name": "setPreSaleSigner",
      "outputs": [],
      "stateMutability": "nonpayable",
      "type": "function"
    },
    {
      "inputs": [],
      "name": "setPublicSaleActive",
      "outputs": [],
      "stateMutability": "nonpayable",
      "type": "function"
    },
    {
      "inputs": [
        {
          "internalType": "bool",
          "name": "value",
          "type": "bool"
        }
      ],
      "name": "setReveal",
      "outputs": [],
      "stateMutability": "nonpayable",
      "type": "function"
    },
    {
      "inputs": [
        {
          "internalType": "uint256",
          "name": "startTime",
          "type": "uint256"
        }
      ],
      "name": "startAuctionSaleAt",
      "outputs": [],
      "stateMutability": "nonpayable",
      "type": "function"
    },
    {
      "inputs": [
        {
          "internalType": "uint256",
          "name": "startTime",
          "type": "uint256"
        }
      ],
      "name": "startPreSaleAt",
      "outputs": [],
      "stateMutability": "nonpayable",
      "type": "function"
    },
    {
      "inputs": [
        {
          "internalType": "uint256",
          "name": "startTime",
          "type": "uint256"
        }
      ],
      "name": "startPublicSaleAt",
      "outputs": [],
      "stateMutability": "nonpayable",
      "type": "function"
    },
    {
      "inputs": [
        {
          "internalType": "bytes4",
          "name": "interfaceId",
          "type": "bytes4"
        }
      ],
      "name": "supportsInterface",
      "outputs": [
        {
          "internalType": "bool",
          "name": "",
          "type": "bool"
        }
      ],
      "stateMutability": "view",
      "type": "function"
    },
    {
      "inputs": [],
      "name": "symbol",
      "outputs": [
        {
          "internalType": "string",
          "name": "",
          "type": "string"
        }
      ],
      "stateMutability": "view",
      "type": "function"
    },
    {
      "inputs": [
        {
          "internalType": "uint256",
          "name": "index",
          "type": "uint256"
        }
      ],
      "name": "tokenByIndex",
      "outputs": [
        {
          "internalType": "uint256",
          "name": "",
          "type": "uint256"
        }
      ],
      "stateMutability": "view",
      "type": "function"
    },
    {
      "inputs": [
        {
          "internalType": "address",
          "name": "owner",
          "type": "address"
        },
        {
          "internalType": "uint256",
          "name": "index",
          "type": "uint256"
        }
      ],
      "name": "tokenOfOwnerByIndex",
      "outputs": [
        {
          "internalType": "uint256",
          "name": "",
          "type": "uint256"
        }
      ],
      "stateMutability": "view",
      "type": "function"
    },
    {
      "inputs": [
        {
          "internalType": "uint256",
          "name": "tokenId",
          "type": "uint256"
        }
      ],
      "name": "tokenURI",
      "outputs": [
        {
          "internalType": "string",
          "name": "",
          "type": "string"
        }
      ],
      "stateMutability": "view",
      "type": "function"
    },
    {
      "inputs": [],
      "name": "totalSupply",
      "outputs": [
        {
          "internalType": "uint256",
          "name": "",
          "type": "uint256"
        }
      ],
      "stateMutability": "view",
      "type": "function"
    },
    {
      "inputs": [
        {
          "internalType": "address",
          "name": "from",
          "type": "address"
        },
        {
          "internalType": "address",
          "name": "to",
          "type": "address"
        },
        {
          "internalType": "uint256",
          "name": "tokenId",
          "type": "uint256"
        }
      ],
      "name": "transferFrom",
      "outputs": [],
      "stateMutability": "nonpayable",
      "type": "function"
    },
    {
      "inputs": [
        {
          "internalType": "address",
          "name": "newOwner",
          "type": "address"
        }
      ],
      "name": "transferOwnership",
      "outputs": [],
      "stateMutability": "nonpayable",
      "type": "function"
    },
    {
      "inputs": [
        {
          "internalType": "bytes",
          "name": "signature",
          "type": "bytes"
        }
      ],
      "name": "verifySigner",
      "outputs": [],
      "stateMutability": "view",
      "type": "function"
    },
    {
      "inputs": [],
      "name": "withdrawMoney",
      "outputs": [],
      "stateMutability": "nonpayable",
      "type": "function"
    }
  ],
  "transactionHash": "0xaace2ce887cedbd69421964dbb6b8e282cf94e55f03f8c74f7a852214ae93a84",
  "args": [
    5,
    7777,
    3000,
    2000,
    100
  ],
  "numDeployments": 1,
  "solcInputHash": "d76749cdf7b4d3931b4f7472adfe1d74",
  "bytecode": "0x60c0604052600060018190556008556015805461ff00191690553480156200002657600080fd5b5060405162003ae138038062003ae183398101604081905262000049916200030e565b60405180604001604052806005815260200164416e65726f60d81b81525060405180604001604052806005815260200164416e65726f60d81b8152508686620000a16200009b6200021460201b60201c565b62000218565b600081116200010e5760405162461bcd60e51b815260206004820152602e60248201527f455243373231413a20636f6c6c656374696f6e206d757374206861766520612060448201526d6e6f6e7a65726f20737570706c7960901b60648201526084015b60405180910390fd5b60008211620001705760405162461bcd60e51b815260206004820152602760248201527f455243373231413a206d61782062617463682073697a65206d757374206265206044820152666e6f6e7a65726f60c81b606482015260840162000105565b83516200018590600290602087019062000268565b5082516200019b90600390602086019062000268565b5060a0919091526080525050600160095583620001b983856200034f565b1115620001fb5760405162461bcd60e51b815260206004820152600f60248201526e496e76616c696420616d6f756e747360881b604482015260640162000105565b600a94909455600b91909155600c5550600d55620003b3565b3390565b600080546001600160a01b038381166001600160a01b0319831681178455604051919092169283917f8be0079c531659141344cd1fd0a4f28419497f9722a3daafe3b4186f6b6457e09190a35050565b828054620002769062000376565b90600052602060002090601f0160209004810192826200029a5760008555620002e5565b82601f10620002b557805160ff1916838001178555620002e5565b82800160010185558215620002e5579182015b82811115620002e5578251825591602001919060010190620002c8565b50620002f3929150620002f7565b5090565b5b80821115620002f35760008155600101620002f8565b600080600080600060a086880312156200032757600080fd5b5050835160208501516040860151606087015160809097015192989197509594509092509050565b600082198211156200037157634e487b7160e01b600052601160045260246000fd5b500190565b600181811c908216806200038b57607f821691505b60208210811415620003ad57634e487b7160e01b600052602260045260246000fd5b50919050565b60805160a0516136e5620003fc600039600081816112d30152818161136101528181611399015281816124c7015281816124f10152612bd101526000611cb001526136e56000f3fe6080604052600436106103765760003560e01c80636bb7b1d9116101d1578063ac44600211610102578063dc33e681116100a0578063f2fde38b1161006f578063f2fde38b14610983578063f53da97e146109a3578063fab2bf58146109cf578063fbe1aa51146109e557600080fd5b8063dc33e681146108e4578063e25ac45914610904578063e75f01661461091a578063e985e9c51461093a57600080fd5b8063bdee733d116100dc578063bdee733d1461087d578063c87b56dd14610893578063caf8a6d1146108b3578063d7224ba0146108ce57600080fd5b8063ac44600214610835578063b3ab66b01461084a578063b88d4fde1461085d57600080fd5b806395d89b411161016f578063a22cb46511610149578063a22cb465146107d2578063a271e525146107f2578063a272284a14610808578063a475b5dd1461081b57600080fd5b806395d89b411461077d57806397b9447d146107925780639f1c9b05146107b257600080fd5b80637a1c4a56116101ab5780637a1c4a56146103f657806388b149a0146106fc5780638da5cb5b146107115780639231ab2a1461072f57600080fd5b80636bb7b1d9146106b157806370a08231146106c7578063715018a6146106e757600080fd5b806336db7129116102ab5780634bd25c6f1161024957806355f804b31161022357806355f804b31461064657806359f369fe146106665780635cae01d31461067b5780636352211e1461069157600080fd5b80634bd25c6f146105fb5780634f6ccce7146106105780634f8252341461063057600080fd5b80633e11ab3f116102855780633e11ab3f1461059057806342842e0e146105a557806347785085146105c55780634aaa9622146105db57600080fd5b806336db712914610545578063375a069a1461055b578063380d831b1461057b57600080fd5b8063193402bb11610318578063278e25ed116102f2578063278e25ed146104d25780632a3f300c146104f25780632e95536e146105125780632f745c591461052557600080fd5b8063193402bb1461048157806320fe418a1461049d57806323b872dd146104b257600080fd5b806307e89ec01161035457806307e89ec0146103f6578063081812fc14610412578063095ea7b31461044a57806318160ddd1461046c57600080fd5b806301ffc9a71461037b57806306d65af3146103b057806306fdde03146103d4575b600080fd5b34801561038757600080fd5b5061039b610396366004612fbb565b6109fb565b60405190151581526020015b60405180910390f35b3480156103bc57600080fd5b506103c660125481565b6040519081526020016103a7565b3480156103e057600080fd5b506103e9610a68565b6040516103a79190613030565b34801561040257600080fd5b506103c6671bc16d674ec8000081565b34801561041e57600080fd5b5061043261042d366004613043565b610afa565b6040516001600160a01b0390911681526020016103a7565b34801561045657600080fd5b5061046a610465366004613078565b610b8a565b005b34801561047857600080fd5b506001546103c6565b34801561048d57600080fd5b506103c6670de0b6b3a764000081565b3480156104a957600080fd5b5061046a610ca2565b3480156104be57600080fd5b5061046a6104cd3660046130a2565b610d51565b3480156104de57600080fd5b5061046a6104ed366004613120565b610d5c565b3480156104fe57600080fd5b5061046a61050d366004613172565b610e50565b61046a610520366004613043565b610e8d565b34801561053157600080fd5b506103c6610540366004613078565b6110c6565b34801561055157600080fd5b506103c6600a5481565b34801561056757600080fd5b5061046a610576366004613043565b61123f565b34801561058757600080fd5b5061046a6113cf565b34801561059c57600080fd5b5061046a61140f565b3480156105b157600080fd5b5061046a6105c03660046130a2565b6114bb565b3480156105d157600080fd5b506103c6600c5481565b3480156105e757600080fd5b5061046a6105f6366004613043565b6114d6565b34801561060757600080fd5b506103c6611505565b34801561061c57600080fd5b506103c661062b366004613043565b6115b1565b34801561063c57600080fd5b506103c6600e5481565b34801561065257600080fd5b5061046a610661366004613120565b61161a565b34801561067257600080fd5b506103c6611650565b34801561068757600080fd5b506103c661012c81565b34801561069d57600080fd5b506104326106ac366004613043565b611684565b3480156106bd57600080fd5b506103c660115481565b3480156106d357600080fd5b506103c66106e236600461318d565b611696565b3480156106f357600080fd5b5061046a611727565b34801561070857600080fd5b5061046a61175d565b34801561071d57600080fd5b506000546001600160a01b0316610432565b34801561073b57600080fd5b5061074f61074a366004613043565b611809565b6040805182516001600160a01b0316815260209283015167ffffffffffffffff1692810192909252016103a7565b34801561078957600080fd5b506103e9611826565b34801561079e57600080fd5b5061046a6107ad366004613043565b611835565b3480156107be57600080fd5b5061046a6107cd36600461318d565b611864565b3480156107de57600080fd5b5061046a6107ed3660046131a8565b6118b0565b3480156107fe57600080fd5b506103c66104b081565b61046a6108163660046131db565b611975565b34801561082757600080fd5b5060155461039b9060ff1681565b34801561084157600080fd5b5061046a611b11565b61046a610858366004613043565b611bee565b34801561086957600080fd5b5061046a61087836600461323d565b611d7a565b34801561088957600080fd5b506103c6600f5481565b34801561089f57600080fd5b506103e96108ae366004613043565b611db3565b3480156108bf57600080fd5b506103c666b1a2bc2ec5000081565b3480156108da57600080fd5b506103c660085481565b3480156108f057600080fd5b506103c66108ff36600461318d565b611ec3565b34801561091057600080fd5b506103c6600b5481565b34801561092657600080fd5b5061046a610935366004613043565b611ece565b34801561094657600080fd5b5061039b610955366004613319565b6001600160a01b03918216600090815260076020908152604080832093909416825291909152205460ff1690565b34801561098f57600080fd5b5061046a61099e36600461318d565b611efd565b3480156109af57600080fd5b506015546109c290610100900460ff1681565b6040516103a79190613359565b3480156109db57600080fd5b506103c660105481565b3480156109f157600080fd5b506103c6600d5481565b60006001600160e01b031982166380ac58cd60e01b1480610a2c57506001600160e01b03198216635b5e139f60e01b145b80610a4757506001600160e01b0319821663780e9d6360e01b145b80610a6257506301ffc9a760e01b6001600160e01b03198316145b92915050565b606060028054610a7790613381565b80601f0160208091040260200160405190810160405280929190818152602001828054610aa390613381565b8015610af05780601f10610ac557610100808354040283529160200191610af0565b820191906000526020600020905b815481529060010190602001808311610ad357829003601f168201915b5050505050905090565b6000610b07826001541190565b610b6e5760405162461bcd60e51b815260206004820152602d60248201527f455243373231413a20617070726f76656420717565727920666f72206e6f6e6560448201526c3c34b9ba32b73a103a37b5b2b760991b60648201526084015b60405180910390fd5b506000908152600660205260409020546001600160a01b031690565b6000610b9582611684565b9050806001600160a01b0316836001600160a01b03161415610c045760405162461bcd60e51b815260206004820152602260248201527f455243373231413a20617070726f76616c20746f2063757272656e74206f776e60448201526132b960f11b6064820152608401610b65565b336001600160a01b0382161480610c205750610c208133610955565b610c925760405162461bcd60e51b815260206004820152603960248201527f455243373231413a20617070726f76652063616c6c6572206973206e6f74206f60448201527f776e6572206e6f7220617070726f76656420666f7220616c6c000000000000006064820152608401610b65565b610c9d838383611f98565b505050565b6000546001600160a01b03163314610ccc5760405162461bcd60e51b8152600401610b65906133bc565b6002601554610100900460ff166003811115610cea57610cea613343565b1415610d385760405162461bcd60e51b815260206004820152601a60248201527f50726573616c6520697320616c7265616479206163746976652e0000000000006044820152606401610b65565b601580546002919061ff001916610100835b0217905550565b610c9d838383611ff4565b604080513360601b6bffffffffffffffffffffffff1916602080830191909152825160148184030181526034830184528051908201207f19457468657265756d205369676e6564204d6573736167653a0a3332000000006054840152607080840182905284518085039091018152609090930190935281519101206000610e198286868080601f01602080910402602001604051908101604052809392919081815260200183838082843760009201919091525061237c92505050565b90506001600160a01b03811615801590610e4057506013546001600160a01b038281169116145b610e4957600080fd5b5050505050565b6000546001600160a01b03163314610e7a5760405162461bcd60e51b8152600401610b65906133bc565b6015805460ff1916911515919091179055565b323314610eac5760405162461bcd60e51b8152600401610b65906133f1565b6001601554610100900460ff166003811115610eca57610eca613343565b14610f175760405162461bcd60e51b815260206004820152601f60248201527f44757463682041756374696f6e206973206e6f74206163746976617465642e006044820152606401610b65565b601054421015610f695760405162461bcd60e51b815260206004820152601f60248201527f41756374696f6e2073616c65206973206e6f74207374617274656420796574006044820152606401610b65565b6104b0601054610f79919061343e565b421115610fc85760405162461bcd60e51b815260206004820152601960248201527f41756374696f6e2073616c652069732066696e69736865642e000000000000006044820152606401610b65565b60026009541415610feb5760405162461bcd60e51b8152600401610b6590613456565b6002600955600b54600e5461100190839061343e565b111561104f5760405162461bcd60e51b815260206004820181905260248201527f52656163686564206d61782061756374696f6e2073616c6520737570706c792e6044820152606401610b65565b600a548161105c33611ec3565b611066919061343e565b11156110845760405162461bcd60e51b8152600401610b659061348d565b600e8054906000611094836134b4565b91905055506110a333826123a0565b6110be816110af611505565b6110b991906134cf565b6123be565b506001600955565b60006110d183611696565b821061112a5760405162461bcd60e51b815260206004820152602260248201527f455243373231413a206f776e657220696e646578206f7574206f6620626f756e604482015261647360f01b6064820152608401610b65565b600061113560015490565b905060008060005b838110156111df576000818152600460209081526040918290208251808401909352546001600160a01b038116808452600160a01b90910467ffffffffffffffff16918301919091521561119057805192505b876001600160a01b0316836001600160a01b031614156111cc57868414156111be57509350610a6292505050565b836111c8816134b4565b9450505b50806111d7816134b4565b91505061113d565b5060405162461bcd60e51b815260206004820152602e60248201527f455243373231413a20756e61626c6520746f2067657420746f6b656e206f662060448201526d0deeedccae440c4f240d2dcc8caf60931b6064820152608401610b65565b6000546001600160a01b031633146112695760405162461bcd60e51b8152600401610b65906133bc565b600d548161127660015490565b611280919061343e565b11156112ce5760405162461bcd60e51b815260206004820152601860248201527f4578636565647320646576206d696e7420616d6f756e742e00000000000000006044820152606401610b65565b6112f87f000000000000000000000000000000000000000000000000000000000000000082613504565b1561135a5760405162461bcd60e51b815260206004820152602c60248201527f63616e206f6e6c79206d696e742061206d756c7469706c65206f66207468652060448201526b6d6178426174636853697a6560a01b6064820152608401610b65565b60006113867f000000000000000000000000000000000000000000000000000000000000000083613518565b905060005b81811015610c9d576113bd337f00000000000000000000000000000000000000000000000000000000000000006123a0565b806113c7816134b4565b91505061138b565b6000546001600160a01b031633146113f95760405162461bcd60e51b8152600401610b65906133bc565b601580546000919061ff00191661010083610d4a565b6000546001600160a01b031633146114395760405162461bcd60e51b8152600401610b65906133bc565b6003601554610100900460ff16600381111561145757611457613343565b14156114a55760405162461bcd60e51b815260206004820152601e60248201527f5075626c69632073616c6520697320616c7265616479206163746976652e00006044820152606401610b65565b601580546003919061ff00191661010083610d4a565b610c9d83838360405180602001604052806000815250611d7a565b6000546001600160a01b031633146115005760405162461bcd60e51b8152600401610b65906133bc565b601055565b6000601054421161151d5750671bc16d674ec8000090565b6104b06010544261152e919061352c565b1061153f575066b1a2bc2ec5000090565b600061012c60105442611552919061352c565b61155c9190613518565b905061156c61012c6104b0613518565b61158566b1a2bc2ec50000671bc16d674ec8000061352c565b61158f9190613518565b61159990826134cf565b6115ab90671bc16d674ec8000061352c565b91505090565b60006115bc60015490565b82106116165760405162461bcd60e51b815260206004820152602360248201527f455243373231413a20676c6f62616c20696e646578206f7574206f6620626f756044820152626e647360e81b6064820152608401610b65565b5090565b6000546001600160a01b031633146116445760405162461bcd60e51b8152600401610b65906133bc565b610c9d60148383612f15565b61165e61012c6104b0613518565b61167766b1a2bc2ec50000671bc16d674ec8000061352c565b6116819190613518565b81565b600061168f82612445565b5192915050565b60006001600160a01b0382166117025760405162461bcd60e51b815260206004820152602b60248201527f455243373231413a2062616c616e636520717565727920666f7220746865207a60448201526a65726f206164647265737360a81b6064820152608401610b65565b506001600160a01b03166000908152600560205260409020546001600160801b031690565b6000546001600160a01b031633146117515760405162461bcd60e51b8152600401610b65906133bc565b61175b60006125ef565b565b6000546001600160a01b031633146117875760405162461bcd60e51b8152600401610b65906133bc565b6001601554610100900460ff1660038111156117a5576117a5613343565b14156117f35760405162461bcd60e51b815260206004820181905260248201527f44757463682041756374696f6e20697320616c7265616479206163746976652e6044820152606401610b65565b601580546001919061ff00191661010083610d4a565b6040805180820190915260008082526020820152610a6282612445565b606060038054610a7790613381565b6000546001600160a01b0316331461185f5760405162461bcd60e51b8152600401610b65906133bc565b601255565b6000546001600160a01b0316331461188e5760405162461bcd60e51b8152600401610b65906133bc565b601380546001600160a01b0319166001600160a01b0392909216919091179055565b6001600160a01b0382163314156119095760405162461bcd60e51b815260206004820152601a60248201527f455243373231413a20617070726f766520746f2063616c6c65720000000000006044820152606401610b65565b3360008181526007602090815260408083206001600160a01b03871680855290835292819020805460ff191686151590811790915590519081529192917f17307eab39ab6107e8899845ad3d59bd9653f200f220920489ca2b5937696c31910160405180910390a35050565b3233146119945760405162461bcd60e51b8152600401610b65906133f1565b6002601554610100900460ff1660038111156119b2576119b2613343565b1480156119c157506012544210155b611a0d5760405162461bcd60e51b815260206004820152601a60248201527f50726573616c65206973206e6f742073746172746564207965740000000000006044820152606401610b65565b60026009541415611a305760405162461bcd60e51b8152600401610b6590613456565b6002600955600c54600f54611a4690859061343e565b1115611a945760405162461bcd60e51b815260206004820152601b60248201527f52656163686564206d61782070726573616c6520737570706c792e00000000006044820152606401610b65565b600a5483611aa133611ec3565b611aab919061343e565b1115611ac95760405162461bcd60e51b8152600401610b659061348d565b611ad38282610d5c565b600f8054906000611ae3836134b4565b9190505550611af233846123a0565b611b076110b984670de0b6b3a76400006134cf565b5050600160095550565b6000546001600160a01b03163314611b3b5760405162461bcd60e51b8152600401610b65906133bc565b60026009541415611b5e5760405162461bcd60e51b8152600401610b6590613456565b6002600955604051600090339047908381818185875af1925050503d8060008114611ba5576040519150601f19603f3d011682016040523d82523d6000602084013e611baa565b606091505b50509050806110be5760405162461bcd60e51b815260206004820152601060248201526f2a3930b739b332b9103330b4b632b21760811b6044820152606401610b65565b323314611c0d5760405162461bcd60e51b8152600401610b65906133f1565b6003601554610100900460ff166003811115611c2b57611c2b613343565b148015611c3a57506011544210155b611c865760405162461bcd60e51b815260206004820152601e60248201527f5075626c69632073616c65206973206e6f7420737461727465642079657400006044820152606401610b65565b60026009541415611ca95760405162461bcd60e51b8152600401610b6590613456565b60026009557f000000000000000000000000000000000000000000000000000000000000000081611cd960015490565b611ce3919061343e565b1115611d265760405162461bcd60e51b815260206004820152601260248201527172656163686564206d617820737570706c7960701b6044820152606401610b65565b600a5481611d3333611ec3565b611d3d919061343e565b1115611d5b5760405162461bcd60e51b8152600401610b659061348d565b611d6533826123a0565b6110be6110b982671bc16d674ec800006134cf565b611d85848484611ff4565b611d918484848461263f565b611dad5760405162461bcd60e51b8152600401610b6590613543565b50505050565b6060611dc0826001541190565b611e245760405162461bcd60e51b815260206004820152602f60248201527f4552433732314d657461646174613a2055524920717565727920666f72206e6f60448201526e3732bc34b9ba32b73a103a37b5b2b760891b6064820152608401610b65565b60155460ff16611e6757505060408051808201909152601b81527f68747470733a2f2f676174657761792e70696e6174612e636f6d2f0000000000602082015290565b6000611e7161273e565b90506000815111611e915760405180602001604052806000815250611ebc565b80611e9b8461274d565b604051602001611eac929190613596565b6040516020818303038152906040525b9392505050565b6000610a628261284b565b6000546001600160a01b03163314611ef85760405162461bcd60e51b8152600401610b65906133bc565b601155565b6000546001600160a01b03163314611f275760405162461bcd60e51b8152600401610b65906133bc565b6001600160a01b038116611f8c5760405162461bcd60e51b815260206004820152602660248201527f4f776e61626c653a206e6577206f776e657220697320746865207a65726f206160448201526564647265737360d01b6064820152608401610b65565b611f95816125ef565b50565b60008281526006602052604080822080546001600160a01b0319166001600160a01b0387811691821790925591518593918516917f8c5be1e5ebec7d5bd14f71427d1e84f3dd0314c0f7b2291e5b200ac8c7c3b92591a4505050565b6000611fff82612445565b80519091506000906001600160a01b0316336001600160a01b0316148061203657503361202b84610afa565b6001600160a01b0316145b80612048575081516120489033610955565b9050806120b25760405162461bcd60e51b815260206004820152603260248201527f455243373231413a207472616e736665722063616c6c6572206973206e6f74206044820152711bdddb995c881b9bdc88185c1c1c9bdd995960721b6064820152608401610b65565b846001600160a01b031682600001516001600160a01b0316146121265760405162461bcd60e51b815260206004820152602660248201527f455243373231413a207472616e736665722066726f6d20696e636f72726563746044820152651037bbb732b960d11b6064820152608401610b65565b6001600160a01b03841661218a5760405162461bcd60e51b815260206004820152602560248201527f455243373231413a207472616e7366657220746f20746865207a65726f206164604482015264647265737360d81b6064820152608401610b65565b61219a6000848460000151611f98565b6001600160a01b03851660009081526005602052604081208054600192906121cc9084906001600160801b03166135d5565b82546101009290920a6001600160801b038181021990931691831602179091556001600160a01b03861660009081526005602052604081208054600194509092612218918591166135fd565b82546001600160801b039182166101009390930a9283029190920219909116179055506040805180820182526001600160a01b03808716825267ffffffffffffffff428116602080850191825260008981526004909152948520935184549151909216600160a01b026001600160e01b031990911691909216171790556122a084600161343e565b6000818152600460205260409020549091506001600160a01b0316612332576122ca816001541190565b156123325760408051808201825284516001600160a01b03908116825260208087015167ffffffffffffffff9081168285019081526000878152600490935294909120925183549451909116600160a01b026001600160e01b03199094169116179190911790555b83856001600160a01b0316876001600160a01b03167fddf252ad1be2c89b69c2b068fc378daa952ba7f163c4a11628f55a4df523b3ef60405160405180910390a45b505050505050565b600080600061238b85856128e9565b9150915061239881612959565b509392505050565b6123ba828260405180602001604052806000815250612b14565b5050565b803410156124075760405162461bcd60e51b81526020600482015260166024820152752732b2b2103a379039b2b7321036b7b9329022aa241760511b6044820152606401610b65565b80341115611f9557336108fc61241d833461352c565b6040518115909202916000818181858888f193505050501580156123ba573d6000803e3d6000fd5b6040805180820190915260008082526020820152612464826001541190565b6124c35760405162461bcd60e51b815260206004820152602a60248201527f455243373231413a206f776e657220717565727920666f72206e6f6e657869736044820152693a32b73a103a37b5b2b760b11b6064820152608401610b65565b60007f00000000000000000000000000000000000000000000000000000000000000008310612524576125167f00000000000000000000000000000000000000000000000000000000000000008461352c565b61252190600161343e565b90505b825b81811061258e576000818152600460209081526040918290208251808401909352546001600160a01b038116808452600160a01b90910467ffffffffffffffff16918301919091521561257b57949350505050565b508061258681613628565b915050612526565b5060405162461bcd60e51b815260206004820152602f60248201527f455243373231413a20756e61626c6520746f2064657465726d696e652074686560448201526e1037bbb732b91037b3103a37b5b2b760891b6064820152608401610b65565b600080546001600160a01b038381166001600160a01b0319831681178455604051919092169283917f8be0079c531659141344cd1fd0a4f28419497f9722a3daafe3b4186f6b6457e09190a35050565b60006001600160a01b0384163b1561273257604051630a85bd0160e11b81526001600160a01b0385169063150b7a029061268390339089908890889060040161363f565b6020604051808303816000875af19250505080156126be575060408051601f3d908101601f191682019092526126bb9181019061367c565b60015b612718573d8080156126ec576040519150601f19603f3d011682016040523d82523d6000602084013e6126f1565b606091505b5080516127105760405162461bcd60e51b8152600401610b6590613543565b805181602001fd5b6001600160e01b031916630a85bd0160e11b149050612736565b5060015b949350505050565b606060148054610a7790613381565b6060816127715750506040805180820190915260018152600360fc1b602082015290565b8160005b811561279b5780612785816134b4565b91506127949050600a83613518565b9150612775565b60008167ffffffffffffffff8111156127b6576127b6613227565b6040519080825280601f01601f1916602001820160405280156127e0576020820181803683370190505b5090505b8415612736576127f560018361352c565b9150612802600a86613504565b61280d90603061343e565b60f81b81838151811061282257612822613699565b60200101906001600160f81b031916908160001a905350612844600a86613518565b94506127e4565b60006001600160a01b0382166128bd5760405162461bcd60e51b815260206004820152603160248201527f455243373231413a206e756d626572206d696e74656420717565727920666f7260448201527020746865207a65726f206164647265737360781b6064820152608401610b65565b506001600160a01b0316600090815260056020526040902054600160801b90046001600160801b031690565b6000808251604114156129205760208301516040840151606085015160001a61291487828585612def565b94509450505050612952565b82516040141561294a576020830151604084015161293f868383612edc565b935093505050612952565b506000905060025b9250929050565b600081600481111561296d5761296d613343565b14156129765750565b600181600481111561298a5761298a613343565b14156129d85760405162461bcd60e51b815260206004820152601860248201527f45434453413a20696e76616c6964207369676e617475726500000000000000006044820152606401610b65565b60028160048111156129ec576129ec613343565b1415612a3a5760405162461bcd60e51b815260206004820152601f60248201527f45434453413a20696e76616c6964207369676e6174757265206c656e677468006044820152606401610b65565b6003816004811115612a4e57612a4e613343565b1415612aa75760405162461bcd60e51b815260206004820152602260248201527f45434453413a20696e76616c6964207369676e6174757265202773272076616c604482015261756560f01b6064820152608401610b65565b6004816004811115612abb57612abb613343565b1415611f955760405162461bcd60e51b815260206004820152602260248201527f45434453413a20696e76616c6964207369676e6174757265202776272076616c604482015261756560f01b6064820152608401610b65565b6001546001600160a01b038416612b775760405162461bcd60e51b815260206004820152602160248201527f455243373231413a206d696e7420746f20746865207a65726f206164647265736044820152607360f81b6064820152608401610b65565b612b82816001541190565b15612bcf5760405162461bcd60e51b815260206004820152601d60248201527f455243373231413a20746f6b656e20616c7265616479206d696e7465640000006044820152606401610b65565b7f0000000000000000000000000000000000000000000000000000000000000000831115612c4a5760405162461bcd60e51b815260206004820152602260248201527f455243373231413a207175616e7469747920746f206d696e7420746f6f2068696044820152610ced60f31b6064820152608401610b65565b6001600160a01b0384166000908152600560209081526040918290208251808401845290546001600160801b038082168352600160801b9091041691810191909152815180830190925280519091908190612ca69087906135fd565b6001600160801b03168152602001858360200151612cc491906135fd565b6001600160801b039081169091526001600160a01b0380881660008181526005602090815260408083208751978301518716600160801b0297909616969096179094558451808601865291825267ffffffffffffffff4281168386019081528883526004909552948120915182549451909516600160a01b026001600160e01b031990941694909216939093179190911790915582905b85811015612de45760405182906001600160a01b038916906000907fddf252ad1be2c89b69c2b068fc378daa952ba7f163c4a11628f55a4df523b3ef908290a4612da8600088848861263f565b612dc45760405162461bcd60e51b8152600401610b6590613543565b81612dce816134b4565b9250508080612ddc906134b4565b915050612d5b565b506001819055612374565b6000807f7fffffffffffffffffffffffffffffff5d576e7357a4501ddfe92f46681b20a0831115612e265750600090506003612ed3565b8460ff16601b14158015612e3e57508460ff16601c14155b15612e4f5750600090506004612ed3565b6040805160008082526020820180845289905260ff881692820192909252606081018690526080810185905260019060a0016020604051602081039080840390855afa158015612ea3573d6000803e3d6000fd5b5050604051601f1901519150506001600160a01b038116612ecc57600060019250925050612ed3565b9150600090505b94509492505050565b6000806001600160ff1b03831681612ef960ff86901c601b61343e565b9050612f0787828885612def565b935093505050935093915050565b828054612f2190613381565b90600052602060002090601f016020900481019282612f435760008555612f89565b82601f10612f5c5782800160ff19823516178555612f89565b82800160010185558215612f89579182015b82811115612f89578235825591602001919060010190612f6e565b506116169291505b808211156116165760008155600101612f91565b6001600160e01b031981168114611f9557600080fd5b600060208284031215612fcd57600080fd5b8135611ebc81612fa5565b60005b83811015612ff3578181015183820152602001612fdb565b83811115611dad5750506000910152565b6000815180845261301c816020860160208601612fd8565b601f01601f19169290920160200192915050565b602081526000611ebc6020830184613004565b60006020828403121561305557600080fd5b5035919050565b80356001600160a01b038116811461307357600080fd5b919050565b6000806040838503121561308b57600080fd5b6130948361305c565b946020939093013593505050565b6000806000606084860312156130b757600080fd5b6130c08461305c565b92506130ce6020850161305c565b9150604084013590509250925092565b60008083601f8401126130f057600080fd5b50813567ffffffffffffffff81111561310857600080fd5b60208301915083602082850101111561295257600080fd5b6000806020838503121561313357600080fd5b823567ffffffffffffffff81111561314a57600080fd5b613156858286016130de565b90969095509350505050565b8035801515811461307357600080fd5b60006020828403121561318457600080fd5b611ebc82613162565b60006020828403121561319f57600080fd5b611ebc8261305c565b600080604083850312156131bb57600080fd5b6131c48361305c565b91506131d260208401613162565b90509250929050565b6000806000604084860312156131f057600080fd5b83359250602084013567ffffffffffffffff81111561320e57600080fd5b61321a868287016130de565b9497909650939450505050565b634e487b7160e01b600052604160045260246000fd5b6000806000806080858703121561325357600080fd5b61325c8561305c565b935061326a6020860161305c565b925060408501359150606085013567ffffffffffffffff8082111561328e57600080fd5b818701915087601f8301126132a257600080fd5b8135818111156132b4576132b4613227565b604051601f8201601f19908116603f011681019083821181831017156132dc576132dc613227565b816040528281528a60208487010111156132f557600080fd5b82602086016020830137600060208483010152809550505050505092959194509250565b6000806040838503121561332c57600080fd5b6133358361305c565b91506131d26020840161305c565b634e487b7160e01b600052602160045260246000fd5b602081016004831061337b57634e487b7160e01b600052602160045260246000fd5b91905290565b600181811c9082168061339557607f821691505b602082108114156133b657634e487b7160e01b600052602260045260246000fd5b50919050565b6020808252818101527f4f776e61626c653a2063616c6c6572206973206e6f7420746865206f776e6572604082015260600190565b6020808252601e908201527f5468652063616c6c657220697320616e6f7468657220636f6e74726163740000604082015260600190565b634e487b7160e01b600052601160045260246000fd5b6000821982111561345157613451613428565b500190565b6020808252601f908201527f5265656e7472616e637947756172643a207265656e7472616e742063616c6c00604082015260600190565b6020808252600d908201526c115e18d959591cc81b1a5b5a5d609a1b604082015260600190565b60006000198214156134c8576134c8613428565b5060010190565b60008160001904831182151516156134e9576134e9613428565b500290565b634e487b7160e01b600052601260045260246000fd5b600082613513576135136134ee565b500690565b600082613527576135276134ee565b500490565b60008282101561353e5761353e613428565b500390565b60208082526033908201527f455243373231413a207472616e7366657220746f206e6f6e204552433732315260408201527232b1b2b4bb32b91034b6b83632b6b2b73a32b960691b606082015260800190565b600083516135a8818460208801612fd8565b8351908301906135bc818360208801612fd8565b64173539b7b760d91b9101908152600501949350505050565b60006001600160801b03838116908316818110156135f5576135f5613428565b039392505050565b60006001600160801b0380831681851680830382111561361f5761361f613428565b01949350505050565b60008161363757613637613428565b506000190190565b6001600160a01b038581168252841660208201526040810183905260806060820181905260009061367290830184613004565b9695505050505050565b60006020828403121561368e57600080fd5b8151611ebc81612fa5565b634e487b7160e01b600052603260045260246000fdfea2646970667358221220d08133662271eb705f3c4f0c86d5b3acfe36224bdaaac555b385d2186193883c64736f6c634300080a0033",
  "devdoc": {
    "kind": "dev",
    "methods": {
      "approve(address,uint256)": {
        "details": "See {IERC721-approve}."
      },
      "balanceOf(address)": {
        "details": "See {IERC721-balanceOf}."
      },
      "constructor": {
        "params": {
          "amountForAuctionSale_": "Amount for Dutch Auction mint",
          "amountForDevs_": "Amount for Presale mint",
          "amountForPresale_": "Amount for Presale mint",
          "collectionSize_": "NFT collection size",
          "maxBatchSize_": "Max size for ERC721A batch mint."
        }
      },
      "getApproved(uint256)": {
        "details": "See {IERC721-getApproved}."
      },
      "isApprovedForAll(address,address)": {
        "details": "See {IERC721-isApprovedForAll}."
      },
      "name()": {
        "details": "See {IERC721Metadata-name}."
      },
      "owner()": {
        "details": "Returns the address of the current owner."
      },
      "ownerOf(uint256)": {
        "details": "See {IERC721-ownerOf}."
      },
      "renounceOwnership()": {
        "details": "Leaves the contract without owner. It will not be possible to call `onlyOwner` functions anymore. Can only be called by the current owner. NOTE: Renouncing ownership will leave the contract without an owner, thereby removing any functionality that is only available to the owner."
      },
      "safeTransferFrom(address,address,uint256)": {
        "details": "See {IERC721-safeTransferFrom}."
      },
      "safeTransferFrom(address,address,uint256,bytes)": {
        "details": "See {IERC721-safeTransferFrom}."
      },
      "setApprovalForAll(address,bool)": {
        "details": "See {IERC721-setApprovalForAll}."
      },
      "supportsInterface(bytes4)": {
        "details": "See {IERC165-supportsInterface}."
      },
      "symbol()": {
        "details": "See {IERC721Metadata-symbol}."
      },
      "tokenByIndex(uint256)": {
        "details": "See {IERC721Enumerable-tokenByIndex}."
      },
      "tokenOfOwnerByIndex(address,uint256)": {
        "details": "See {IERC721Enumerable-tokenOfOwnerByIndex}. This read function is O(collectionSize). If calling from a separate contract, be sure to test gas first. It may also degrade with extremely large collection sizes (e.g >> 10000), test for your use case."
      },
      "tokenURI(uint256)": {
        "details": "See {IERC721Metadata-tokenURI}."
      },
      "totalSupply()": {
        "details": "See {IERC721Enumerable-totalSupply}."
      },
      "transferFrom(address,address,uint256)": {
        "details": "See {IERC721-transferFrom}."
      },
      "transferOwnership(address)": {
        "details": "Transfers ownership of the contract to a new account (`newOwner`). Can only be called by the current owner."
      }
    },
    "version": 1
  },
  "userdoc": {
    "kind": "user",
    "methods": {},
    "version": 1
  },
  "storageLayout": {
    "storage": [
      {
        "astId": 7,
        "contract": "contracts/Anero.sol:Anero",
        "label": "_owner",
        "offset": 0,
        "slot": "0",
        "type": "t_address"
      },
      {
        "astId": 2111,
        "contract": "contracts/Anero.sol:Anero",
        "label": "currentIndex",
        "offset": 0,
        "slot": "1",
        "type": "t_uint256"
      },
      {
        "astId": 2117,
        "contract": "contracts/Anero.sol:Anero",
        "label": "_name",
        "offset": 0,
        "slot": "2",
        "type": "t_string_storage"
      },
      {
        "astId": 2119,
        "contract": "contracts/Anero.sol:Anero",
        "label": "_symbol",
        "offset": 0,
        "slot": "3",
        "type": "t_string_storage"
      },
      {
        "astId": 2124,
        "contract": "contracts/Anero.sol:Anero",
        "label": "_ownerships",
        "offset": 0,
        "slot": "4",
        "type": "t_mapping(t_uint256,t_struct(TokenOwnership)2103_storage)"
      },
      {
        "astId": 2129,
        "contract": "contracts/Anero.sol:Anero",
        "label": "_addressData",
        "offset": 0,
        "slot": "5",
        "type": "t_mapping(t_address,t_struct(AddressData)2108_storage)"
      },
      {
        "astId": 2133,
        "contract": "contracts/Anero.sol:Anero",
        "label": "_tokenApprovals",
        "offset": 0,
        "slot": "6",
        "type": "t_mapping(t_uint256,t_address)"
      },
      {
        "astId": 2139,
        "contract": "contracts/Anero.sol:Anero",
        "label": "_operatorApprovals",
        "offset": 0,
        "slot": "7",
        "type": "t_mapping(t_address,t_mapping(t_address,t_bool))"
      },
      {
        "astId": 3082,
        "contract": "contracts/Anero.sol:Anero",
        "label": "nextOwnerToExplicitlySet",
        "offset": 0,
        "slot": "8",
        "type": "t_uint256"
      },
      {
        "astId": 115,
        "contract": "contracts/Anero.sol:Anero",
        "label": "_status",
        "offset": 0,
        "slot": "9",
        "type": "t_uint256"
      },
      {
        "astId": 1319,
        "contract": "contracts/Anero.sol:Anero",
        "label": "maxAmountPerWallet",
        "offset": 0,
        "slot": "10",
        "type": "t_uint256"
      },
      {
        "astId": 1321,
        "contract": "contracts/Anero.sol:Anero",
        "label": "amountForAuctionSale",
        "offset": 0,
        "slot": "11",
        "type": "t_uint256"
      },
      {
        "astId": 1323,
        "contract": "contracts/Anero.sol:Anero",
        "label": "amountForPresale",
        "offset": 0,
        "slot": "12",
        "type": "t_uint256"
      },
      {
        "astId": 1325,
        "contract": "contracts/Anero.sol:Anero",
        "label": "amountForDevs",
        "offset": 0,
        "slot": "13",
        "type": "t_uint256"
      },
      {
        "astId": 1327,
        "contract": "contracts/Anero.sol:Anero",
        "label": "currentAuctionAmount",
        "offset": 0,
        "slot": "14",
        "type": "t_uint256"
      },
      {
        "astId": 1329,
        "contract": "contracts/Anero.sol:Anero",
        "label": "currentPresaleAmount",
        "offset": 0,
        "slot": "15",
        "type": "t_uint256"
      },
      {
        "astId": 1354,
        "contract": "contracts/Anero.sol:Anero",
        "label": "auctionSaleStartTime",
        "offset": 0,
        "slot": "16",
        "type": "t_uint256"
      },
      {
        "astId": 1356,
        "contract": "contracts/Anero.sol:Anero",
        "label": "publicSaleStartTime",
        "offset": 0,
        "slot": "17",
        "type": "t_uint256"
      },
      {
        "astId": 1358,
        "contract": "contracts/Anero.sol:Anero",
        "label": "preSaleStartTime",
        "offset": 0,
        "slot": "18",
        "type": "t_uint256"
      },
      {
        "astId": 1366,
        "contract": "contracts/Anero.sol:Anero",
        "label": "preSaleSigner",
        "offset": 0,
        "slot": "19",
        "type": "t_address"
      },
      {
        "astId": 1368,
        "contract": "contracts/Anero.sol:Anero",
        "label": "_baseTokenURI",
        "offset": 0,
        "slot": "20",
        "type": "t_string_storage"
      },
      {
        "astId": 1370,
        "contract": "contracts/Anero.sol:Anero",
        "label": "reveal",
        "offset": 0,
        "slot": "21",
        "type": "t_bool"
      },
      {
        "astId": 1380,
        "contract": "contracts/Anero.sol:Anero",
        "label": "currentSalePhase",
        "offset": 1,
        "slot": "21",
        "type": "t_enum(SalePhase)1375"
      }
    ],
    "types": {
      "t_address": {
        "encoding": "inplace",
        "label": "address",
        "numberOfBytes": "20"
      },
      "t_bool": {
        "encoding": "inplace",
        "label": "bool",
        "numberOfBytes": "1"
      },
      "t_enum(SalePhase)1375": {
        "encoding": "inplace",
        "label": "enum Anero.SalePhase",
        "numberOfBytes": "1"
      },
      "t_mapping(t_address,t_bool)": {
        "encoding": "mapping",
        "key": "t_address",
        "label": "mapping(address => bool)",
        "numberOfBytes": "32",
        "value": "t_bool"
      },
      "t_mapping(t_address,t_mapping(t_address,t_bool))": {
        "encoding": "mapping",
        "key": "t_address",
        "label": "mapping(address => mapping(address => bool))",
        "numberOfBytes": "32",
        "value": "t_mapping(t_address,t_bool)"
      },
      "t_mapping(t_address,t_struct(AddressData)2108_storage)": {
        "encoding": "mapping",
        "key": "t_address",
        "label": "mapping(address => struct ERC721A.AddressData)",
        "numberOfBytes": "32",
        "value": "t_struct(AddressData)2108_storage"
      },
      "t_mapping(t_uint256,t_address)": {
        "encoding": "mapping",
        "key": "t_uint256",
        "label": "mapping(uint256 => address)",
        "numberOfBytes": "32",
        "value": "t_address"
      },
      "t_mapping(t_uint256,t_struct(TokenOwnership)2103_storage)": {
        "encoding": "mapping",
        "key": "t_uint256",
        "label": "mapping(uint256 => struct ERC721A.TokenOwnership)",
        "numberOfBytes": "32",
        "value": "t_struct(TokenOwnership)2103_storage"
      },
      "t_string_storage": {
        "encoding": "bytes",
        "label": "string",
        "numberOfBytes": "32"
      },
      "t_struct(AddressData)2108_storage": {
        "encoding": "inplace",
        "label": "struct ERC721A.AddressData",
        "members": [
          {
            "astId": 2105,
            "contract": "contracts/Anero.sol:Anero",
            "label": "balance",
            "offset": 0,
            "slot": "0",
            "type": "t_uint128"
          },
          {
            "astId": 2107,
            "contract": "contracts/Anero.sol:Anero",
            "label": "numberMinted",
            "offset": 16,
            "slot": "0",
            "type": "t_uint128"
          }
        ],
        "numberOfBytes": "32"
      },
      "t_struct(TokenOwnership)2103_storage": {
        "encoding": "inplace",
        "label": "struct ERC721A.TokenOwnership",
        "members": [
          {
            "astId": 2100,
            "contract": "contracts/Anero.sol:Anero",
            "label": "addr",
            "offset": 0,
            "slot": "0",
            "type": "t_address"
          },
          {
            "astId": 2102,
            "contract": "contracts/Anero.sol:Anero",
            "label": "startTimestamp",
            "offset": 20,
            "slot": "0",
            "type": "t_uint64"
          }
        ],
        "numberOfBytes": "32"
      },
      "t_uint128": {
        "encoding": "inplace",
        "label": "uint128",
        "numberOfBytes": "16"
      },
      "t_uint256": {
        "encoding": "inplace",
        "label": "uint256",
        "numberOfBytes": "32"
      },
      "t_uint64": {
        "encoding": "inplace",
        "label": "uint64",
        "numberOfBytes": "8"
      }
    }
  }
}