{
  "address": "0xeBaf8CD405a29221109Dcd2e5eA4f2344fEf13C9",
  "abi": [
    {
      "inputs": [
        {
          "internalType": "uint256",
          "name": "maxBatchSize_",
          "type": "uint256"
        },
        {
          "internalType": "uint256",
          "name": "collectionSize_",
          "type": "uint256"
        },
        {
          "internalType": "uint256",
          "name": "amountForAuctionSale_",
          "type": "uint256"
        },
        {
          "internalType": "uint256",
          "name": "amountForPresale_",
          "type": "uint256"
        },
        {
          "internalType": "uint256",
          "name": "amountForDevs_",
          "type": "uint256"
        }
      ],
      "stateMutability": "nonpayable",
      "type": "constructor"
    },
    {
      "anonymous": false,
      "inputs": [
        {
          "indexed": true,
          "internalType": "address",
          "name": "owner",
          "type": "address"
        },
        {
          "indexed": true,
          "internalType": "address",
          "name": "approved",
          "type": "address"
        },
        {
          "indexed": true,
          "internalType": "uint256",
          "name": "tokenId",
          "type": "uint256"
        }
      ],
      "name": "Approval",
      "type": "event"
    },
    {
      "anonymous": false,
      "inputs": [
        {
          "indexed": true,
          "internalType": "address",
          "name": "owner",
          "type": "address"
        },
        {
          "indexed": true,
          "internalType": "address",
          "name": "operator",
          "type": "address"
        },
        {
          "indexed": false,
          "internalType": "bool",
          "name": "approved",
          "type": "bool"
        }
      ],
      "name": "ApprovalForAll",
      "type": "event"
    },
    {
      "anonymous": false,
      "inputs": [
        {
          "indexed": true,
          "internalType": "address",
          "name": "previousOwner",
          "type": "address"
        },
        {
          "indexed": true,
          "internalType": "address",
          "name": "newOwner",
          "type": "address"
        }
      ],
      "name": "OwnershipTransferred",
      "type": "event"
    },
    {
      "anonymous": false,
      "inputs": [
        {
          "indexed": true,
          "internalType": "address",
          "name": "from",
          "type": "address"
        },
        {
          "indexed": true,
          "internalType": "address",
          "name": "to",
          "type": "address"
        },
        {
          "indexed": true,
          "internalType": "uint256",
          "name": "tokenId",
          "type": "uint256"
        }
      ],
      "name": "Transfer",
      "type": "event"
    },
    {
      "inputs": [],
      "name": "AUCTION_DROP_INTERVAL",
      "outputs": [
        {
          "internalType": "uint256",
          "name": "",
          "type": "uint256"
        }
      ],
      "stateMutability": "view",
      "type": "function"
    },
    {
      "inputs": [],
      "name": "AUCTION_DROP_PER_STEP",
      "outputs": [
        {
          "internalType": "uint256",
          "name": "",
          "type": "uint256"
        }
      ],
      "stateMutability": "view",
      "type": "function"
    },
    {
      "inputs": [],
      "name": "AUCTION_DURATION",
      "outputs": [
        {
          "internalType": "uint256",
          "name": "",
          "type": "uint256"
        }
      ],
      "stateMutability": "view",
      "type": "function"
    },
    {
      "inputs": [],
      "name": "AUCTION_END_PRICE",
      "outputs": [
        {
          "internalType": "uint256",
          "name": "",
          "type": "uint256"
        }
      ],
      "stateMutability": "view",
      "type": "function"
    },
    {
      "inputs": [],
      "name": "AUCTION_START_PRICE",
      "outputs": [
        {
          "internalType": "uint256",
          "name": "",
          "type": "uint256"
        }
      ],
      "stateMutability": "view",
      "type": "function"
    },
    {
      "inputs": [],
      "name": "PRE_SALE_PRICE",
      "outputs": [
        {
          "internalType": "uint256",
          "name": "",
          "type": "uint256"
        }
      ],
      "stateMutability": "view",
      "type": "function"
    },
    {
      "inputs": [],
      "name": "PUBLIC_SALE_PRICE",
      "outputs": [
        {
          "internalType": "uint256",
          "name": "",
          "type": "uint256"
        }
      ],
      "stateMutability": "view",
      "type": "function"
    },
    {
      "inputs": [],
      "name": "amountForAuctionSale",
      "outputs": [
        {
          "internalType": "uint256",
          "name": "",
          "type": "uint256"
        }
      ],
      "stateMutability": "view",
      "type": "function"
    },
    {
      "inputs": [],
      "name": "amountForDevs",
      "outputs": [
        {
          "internalType": "uint256",
          "name": "",
          "type": "uint256"
        }
      ],
      "stateMutability": "view",
      "type": "function"
    },
    {
      "inputs": [],
      "name": "amountForPresale",
      "outputs": [
        {
          "internalType": "uint256",
          "name": "",
          "type": "uint256"
        }
      ],
      "stateMutability": "view",
      "type": "function"
    },
    {
      "inputs": [
        {
          "internalType": "address",
          "name": "to",
          "type": "address"
        },
        {
          "internalType": "uint256",
          "name": "tokenId",
          "type": "uint256"
        }
      ],
      "name": "approve",
      "outputs": [],
      "stateMutability": "nonpayable",
      "type": "function"
    },
    {
      "inputs": [
        {
          "internalType": "uint256",
          "name": "quantity",
          "type": "uint256"
        }
      ],
      "name": "auctionSaleMint",
      "outputs": [],
      "stateMutability": "payable",
      "type": "function"
    },
    {
      "inputs": [],
      "name": "auctionSaleStartTime",
      "outputs": [
        {
          "internalType": "uint256",
          "name": "",
          "type": "uint256"
        }
      ],
      "stateMutability": "view",
      "type": "function"
    },
    {
      "inputs": [
        {
          "internalType": "address",
          "name": "owner",
          "type": "address"
        }
      ],
      "name": "balanceOf",
      "outputs": [
        {
          "internalType": "uint256",
          "name": "",
          "type": "uint256"
        }
      ],
      "stateMutability": "view",
      "type": "function"
    },
    {
      "inputs": [],
      "name": "currentAuctionAmount",
      "outputs": [
        {
          "internalType": "uint256",
          "name": "",
          "type": "uint256"
        }
      ],
      "stateMutability": "view",
      "type": "function"
    },
    {
      "inputs": [],
      "name": "currentPresaleAmount",
      "outputs": [
        {
          "internalType": "uint256",
          "name": "",
          "type": "uint256"
        }
      ],
      "stateMutability": "view",
      "type": "function"
    },
    {
      "inputs": [],
      "name": "currentSalePhase",
      "outputs": [
        {
          "internalType": "enum Anero.SalePhase",
          "name": "",
          "type": "uint8"
        }
      ],
      "stateMutability": "view",
      "type": "function"
    },
    {
      "inputs": [
        {
          "internalType": "uint256",
          "name": "quantity",
          "type": "uint256"
        }
      ],
      "name": "devMint",
      "outputs": [],
      "stateMutability": "nonpayable",
      "type": "function"
    },
    {
      "inputs": [],
      "name": "endSale",
      "outputs": [],
      "stateMutability": "nonpayable",
      "type": "function"
    },
    {
      "inputs": [
        {
          "internalType": "uint256",
          "name": "tokenId",
          "type": "uint256"
        }
      ],
      "name": "getApproved",
      "outputs": [
        {
          "internalType": "address",
          "name": "",
          "type": "address"
        }
      ],
      "stateMutability": "view",
      "type": "function"
    },
    {
      "inputs": [],
      "name": "getAuctionPrice",
      "outputs": [
        {
          "internalType": "uint256",
          "name": "",
          "type": "uint256"
        }
      ],
      "stateMutability": "view",
      "type": "function"
    },
    {
      "inputs": [
        {
          "internalType": "uint256",
          "name": "tokenId",
          "type": "uint256"
        }
      ],
      "name": "getOwnershipData",
      "outputs": [
        {
          "components": [
            {
              "internalType": "address",
              "name": "addr",
              "type": "address"
            },
            {
              "internalType": "uint64",
              "name": "startTimestamp",
              "type": "uint64"
            }
          ],
          "internalType": "struct ERC721A.TokenOwnership",
          "name": "",
          "type": "tuple"
        }
      ],
      "stateMutability": "view",
      "type": "function"
    },
    {
      "inputs": [
        {
          "internalType": "address",
          "name": "owner",
          "type": "address"
        },
        {
          "internalType": "address",
          "name": "operator",
          "type": "address"
        }
      ],
      "name": "isApprovedForAll",
      "outputs": [
        {
          "internalType": "bool",
          "name": "",
          "type": "bool"
        }
      ],
      "stateMutability": "view",
      "type": "function"
    },
    {
      "inputs": [],
      "name": "maxAmountPerWallet",
      "outputs": [
        {
          "internalType": "uint256",
          "name": "",
          "type": "uint256"
        }
      ],
      "stateMutability": "view",
      "type": "function"
    },
    {
      "inputs": [],
      "name": "name",
      "outputs": [
        {
          "internalType": "string",
          "name": "",
          "type": "string"
        }
      ],
      "stateMutability": "view",
      "type": "function"
    },
    {
      "inputs": [],
      "name": "nextOwnerToExplicitlySet",
      "outputs": [
        {
          "internalType": "uint256",
          "name": "",
          "type": "uint256"
        }
      ],
      "stateMutability": "view",
      "type": "function"
    },
    {
      "inputs": [
        {
          "internalType": "address",
          "name": "owner",
          "type": "address"
        }
      ],
      "name": "numberMinted",
      "outputs": [
        {
          "internalType": "uint256",
          "name": "",
          "type": "uint256"
        }
      ],
      "stateMutability": "view",
      "type": "function"
    },
    {
      "inputs": [],
      "name": "owner",
      "outputs": [
        {
          "internalType": "address",
          "name": "",
          "type": "address"
        }
      ],
      "stateMutability": "view",
      "type": "function"
    },
    {
      "inputs": [
        {
          "internalType": "uint256",
          "name": "tokenId",
          "type": "uint256"
        }
      ],
      "name": "ownerOf",
      "outputs": [
        {
          "internalType": "address",
          "name": "",
          "type": "address"
        }
      ],
      "stateMutability": "view",
      "type": "function"
    },
    {
      "inputs": [
        {
          "internalType": "uint256",
          "name": "quantity",
          "type": "uint256"
        },
        {
          "internalType": "bytes",
          "name": "signature",
          "type": "bytes"
        }
      ],
      "name": "preSaleMint",
      "outputs": [],
      "stateMutability": "payable",
      "type": "function"
    },
    {
      "inputs": [],
      "name": "preSaleStartTime",
      "outputs": [
        {
          "internalType": "uint256",
          "name": "",
          "type": "uint256"
        }
      ],
      "stateMutability": "view",
      "type": "function"
    },
    {
      "inputs": [
        {
          "internalType": "uint256",
          "name": "quantity",
          "type": "uint256"
        }
      ],
      "name": "publicSaleMint",
      "outputs": [],
      "stateMutability": "payable",
      "type": "function"
    },
    {
      "inputs": [],
      "name": "publicSaleStartTime",
      "outputs": [
        {
          "internalType": "uint256",
          "name": "",
          "type": "uint256"
        }
      ],
      "stateMutability": "view",
      "type": "function"
    },
    {
      "inputs": [],
      "name": "renounceOwnership",
      "outputs": [],
      "stateMutability": "nonpayable",
      "type": "function"
    },
    {
      "inputs": [],
      "name": "reveal",
      "outputs": [
        {
          "internalType": "bool",
          "name": "",
          "type": "bool"
        }
      ],
      "stateMutability": "view",
      "type": "function"
    },
    {
      "inputs": [
        {
          "internalType": "address",
          "name": "from",
          "type": "address"
        },
        {
          "internalType": "address",
          "name": "to",
          "type": "address"
        },
        {
          "internalType": "uint256",
          "name": "tokenId",
          "type": "uint256"
        }
      ],
      "name": "safeTransferFrom",
      "outputs": [],
      "stateMutability": "nonpayable",
      "type": "function"
    },
    {
      "inputs": [
        {
          "internalType": "address",
          "name": "from",
          "type": "address"
        },
        {
          "internalType": "address",
          "name": "to",
          "type": "address"
        },
        {
          "internalType": "uint256",
          "name": "tokenId",
          "type": "uint256"
        },
        {
          "internalType": "bytes",
          "name": "_data",
          "type": "bytes"
        }
      ],
      "name": "safeTransferFrom",
      "outputs": [],
      "stateMutability": "nonpayable",
      "type": "function"
    },
    {
      "inputs": [
        {
          "internalType": "address",
          "name": "operator",
          "type": "address"
        },
        {
          "internalType": "bool",
          "name": "approved",
          "type": "bool"
        }
      ],
      "name": "setApprovalForAll",
      "outputs": [],
      "stateMutability": "nonpayable",
      "type": "function"
    },
    {
      "inputs": [
        {
          "internalType": "string",
          "name": "baseURI",
          "type": "string"
        }
      ],
      "name": "setBaseURI",
      "outputs": [],
      "stateMutability": "nonpayable",
      "type": "function"
    },
    {
      "inputs": [
        {
          "internalType": "address",
          "name": "signer",
          "type": "address"
        }
      ],
      "name": "setPreSaleSigner",
      "outputs": [],
      "stateMutability": "nonpayable",
      "type": "function"
    },
    {
      "inputs": [
        {
          "internalType": "bool",
          "name": "value",
          "type": "bool"
        }
      ],
      "name": "setReveal",
      "outputs": [],
      "stateMutability": "nonpayable",
      "type": "function"
    },
    {
      "inputs": [
        {
          "internalType": "enum Anero.SalePhase",
          "name": "phase",
          "type": "uint8"
        }
      ],
      "name": "setSaleMode",
      "outputs": [],
      "stateMutability": "nonpayable",
      "type": "function"
    },
    {
      "inputs": [
        {
          "internalType": "uint256",
          "name": "startTime",
          "type": "uint256"
        }
      ],
      "name": "startAuctionSaleAt",
      "outputs": [],
      "stateMutability": "nonpayable",
      "type": "function"
    },
    {
      "inputs": [
        {
          "internalType": "uint256",
          "name": "startTime",
          "type": "uint256"
        }
      ],
      "name": "startPreSaleAt",
      "outputs": [],
      "stateMutability": "nonpayable",
      "type": "function"
    },
    {
      "inputs": [
        {
          "internalType": "uint256",
          "name": "startTime",
          "type": "uint256"
        }
      ],
      "name": "startPublicSaleAt",
      "outputs": [],
      "stateMutability": "nonpayable",
      "type": "function"
    },
    {
      "inputs": [
        {
          "internalType": "bytes4",
          "name": "interfaceId",
          "type": "bytes4"
        }
      ],
      "name": "supportsInterface",
      "outputs": [
        {
          "internalType": "bool",
          "name": "",
          "type": "bool"
        }
      ],
      "stateMutability": "view",
      "type": "function"
    },
    {
      "inputs": [],
      "name": "symbol",
      "outputs": [
        {
          "internalType": "string",
          "name": "",
          "type": "string"
        }
      ],
      "stateMutability": "view",
      "type": "function"
    },
    {
      "inputs": [
        {
          "internalType": "uint256",
          "name": "index",
          "type": "uint256"
        }
      ],
      "name": "tokenByIndex",
      "outputs": [
        {
          "internalType": "uint256",
          "name": "",
          "type": "uint256"
        }
      ],
      "stateMutability": "view",
      "type": "function"
    },
    {
      "inputs": [
        {
          "internalType": "address",
          "name": "owner",
          "type": "address"
        },
        {
          "internalType": "uint256",
          "name": "index",
          "type": "uint256"
        }
      ],
      "name": "tokenOfOwnerByIndex",
      "outputs": [
        {
          "internalType": "uint256",
          "name": "",
          "type": "uint256"
        }
      ],
      "stateMutability": "view",
      "type": "function"
    },
    {
      "inputs": [
        {
          "internalType": "uint256",
          "name": "tokenId",
          "type": "uint256"
        }
      ],
      "name": "tokenURI",
      "outputs": [
        {
          "internalType": "string",
          "name": "",
          "type": "string"
        }
      ],
      "stateMutability": "view",
      "type": "function"
    },
    {
      "inputs": [],
      "name": "totalSupply",
      "outputs": [
        {
          "internalType": "uint256",
          "name": "",
          "type": "uint256"
        }
      ],
      "stateMutability": "view",
      "type": "function"
    },
    {
      "inputs": [
        {
          "internalType": "address",
          "name": "from",
          "type": "address"
        },
        {
          "internalType": "address",
          "name": "to",
          "type": "address"
        },
        {
          "internalType": "uint256",
          "name": "tokenId",
          "type": "uint256"
        }
      ],
      "name": "transferFrom",
      "outputs": [],
      "stateMutability": "nonpayable",
      "type": "function"
    },
    {
      "inputs": [
        {
          "internalType": "address",
          "name": "newOwner",
          "type": "address"
        }
      ],
      "name": "transferOwnership",
      "outputs": [],
      "stateMutability": "nonpayable",
      "type": "function"
    },
    {
      "inputs": [
        {
          "internalType": "bytes",
          "name": "signature",
          "type": "bytes"
        }
      ],
      "name": "verifySigner",
      "outputs": [],
      "stateMutability": "view",
      "type": "function"
    },
    {
      "inputs": [],
      "name": "withdrawMoney",
      "outputs": [],
      "stateMutability": "nonpayable",
      "type": "function"
    }
  ],
  "transactionHash": "0x6a3fcedea465a41eed75f8c7ef4f8489cc3134842d0e21d7b41fda97b6ba0e39",
  "args": [
    5,
    7777,
    3000,
    2000,
    100
  ],
  "numDeployments": 1,
  "solcInputHash": "8631d04f5aacd3d0b569630270614610",
  "bytecode": "0x60c0604052600060018190556008556015805461ff00191690553480156200002657600080fd5b506040516200398a3803806200398a83398101604081905262000049916200030e565b60405180604001604052806005815260200164416e65726f60d81b81525060405180604001604052806005815260200164416e65726f60d81b8152508686620000a16200009b6200021460201b60201c565b62000218565b600081116200010e5760405162461bcd60e51b815260206004820152602e60248201527f455243373231413a20636f6c6c656374696f6e206d757374206861766520612060448201526d6e6f6e7a65726f20737570706c7960901b60648201526084015b60405180910390fd5b60008211620001705760405162461bcd60e51b815260206004820152602760248201527f455243373231413a206d61782062617463682073697a65206d757374206265206044820152666e6f6e7a65726f60c81b606482015260840162000105565b83516200018590600290602087019062000268565b5082516200019b90600390602086019062000268565b5060a0919091526080525050600160095583620001b983856200034f565b1115620001fb5760405162461bcd60e51b815260206004820152600f60248201526e496e76616c696420616d6f756e747360881b604482015260640162000105565b600a94909455600b91909155600c5550600d55620003b3565b3390565b600080546001600160a01b038381166001600160a01b0319831681178455604051919092169283917f8be0079c531659141344cd1fd0a4f28419497f9722a3daafe3b4186f6b6457e09190a35050565b828054620002769062000376565b90600052602060002090601f0160209004810192826200029a5760008555620002e5565b82601f10620002b557805160ff1916838001178555620002e5565b82800160010185558215620002e5579182015b82811115620002e5578251825591602001919060010190620002c8565b50620002f3929150620002f7565b5090565b5b80821115620002f35760008155600101620002f8565b600080600080600060a086880312156200032757600080fd5b5050835160208501516040860151606087015160809097015192989197509594509092509050565b600082198211156200037157634e487b7160e01b600052601160045260246000fd5b500190565b600181811c908216806200038b57607f821691505b60208210811415620003ad57634e487b7160e01b600052602260045260246000fd5b50919050565b60805160a05161358e620003fc600039600081816111e00152818161126e015281816112a60152818161234f015281816123790152612a5901526000611b38015261358e6000f3fe6080604052600436106103505760003560e01c80636bb7b1d9116101c6578063b3ab66b0116100f7578063e25ac45911610095578063f2fde38b1161006f578063f2fde38b1461093f578063f53da97e1461095f578063fab2bf581461098b578063fbe1aa51146109a157600080fd5b8063e25ac459146108c0578063e75f0166146108d6578063e985e9c5146108f657600080fd5b8063c87b56dd116100d1578063c87b56dd1461084e578063caf8a6d11461086e578063d7224ba01461088a578063dc33e681146108a057600080fd5b8063b3ab66b014610805578063b88d4fde14610818578063bdee733d1461083857600080fd5b806397b9447d11610164578063a271e5251161013e578063a271e525146107ad578063a272284a146107c3578063a475b5dd146107d6578063ac446002146107f057600080fd5b806397b9447d1461074d5780639f1c9b051461076d578063a22cb4651461078d57600080fd5b80637a1c4a56116101a05780637a1c4a561461045b5780638da5cb5b146106cc5780639231ab2a146106ea57806395d89b411461073857600080fd5b80636bb7b1d91461068157806370a0823114610697578063715018a6146106b757600080fd5b806336db7129116102a05780634f6ccce71161023e57806359f369fe1161021857806359f369fe146106165780635cae01d31461062b5780636352211e14610641578063689e13951461066157600080fd5b80634f6ccce7146105c05780634f825234146105e057806355f804b3146105f657600080fd5b806342842e0e1161027a57806342842e0e1461055557806347785085146105755780634aaa96221461058b5780634bd25c6f146105ab57600080fd5b806336db71291461050a578063375a069a14610520578063380d831b1461054057600080fd5b806318160ddd1161030d578063278e25ed116102e7578063278e25ed146104975780632a3f300c146104b75780632e95536e146104d75780632f745c59146104ea57600080fd5b806318160ddd14610446578063193402bb1461045b57806323b872dd1461047757600080fd5b806301ffc9a71461035557806306d65af31461038a57806306fdde03146103ae57806307e89ec0146103d0578063081812fc146103ec578063095ea7b314610424575b600080fd5b34801561036157600080fd5b50610375610370366004612e43565b6109b7565b60405190151581526020015b60405180910390f35b34801561039657600080fd5b506103a060125481565b604051908152602001610381565b3480156103ba57600080fd5b506103c3610a24565b6040516103819190612eb8565b3480156103dc57600080fd5b506103a0671bc16d674ec8000081565b3480156103f857600080fd5b5061040c610407366004612ecb565b610ab6565b6040516001600160a01b039091168152602001610381565b34801561043057600080fd5b5061044461043f366004612f00565b610b46565b005b34801561045257600080fd5b506001546103a0565b34801561046757600080fd5b506103a0670de0b6b3a764000081565b34801561048357600080fd5b50610444610492366004612f2a565b610c5e565b3480156104a357600080fd5b506104446104b2366004612fa8565b610c69565b3480156104c357600080fd5b506104446104d2366004612ffa565b610d5d565b6104446104e5366004612ecb565b610d9a565b3480156104f657600080fd5b506103a0610505366004612f00565b610fd3565b34801561051657600080fd5b506103a0600a5481565b34801561052c57600080fd5b5061044461053b366004612ecb565b61114c565b34801561054c57600080fd5b506104446112dc565b34801561056157600080fd5b50610444610570366004612f2a565b611313565b34801561058157600080fd5b506103a0600c5481565b34801561059757600080fd5b506104446105a6366004612ecb565b61132e565b3480156105b757600080fd5b506103a061135d565b3480156105cc57600080fd5b506103a06105db366004612ecb565b611417565b3480156105ec57600080fd5b506103a0600e5481565b34801561060257600080fd5b50610444610611366004612fa8565b611480565b34801561062257600080fd5b506103a06114b6565b34801561063757600080fd5b506103a061012c81565b34801561064d57600080fd5b5061040c61065c366004612ecb565b6114f7565b34801561066d57600080fd5b5061044461067c366004613015565b611509565b34801561068d57600080fd5b506103a060115481565b3480156106a357600080fd5b506103a06106b2366004613036565b6115ca565b3480156106c357600080fd5b5061044461165b565b3480156106d857600080fd5b506000546001600160a01b031661040c565b3480156106f657600080fd5b5061070a610705366004612ecb565b611691565b6040805182516001600160a01b0316815260209283015167ffffffffffffffff169281019290925201610381565b34801561074457600080fd5b506103c36116ae565b34801561075957600080fd5b50610444610768366004612ecb565b6116bd565b34801561077957600080fd5b50610444610788366004613036565b6116ec565b34801561079957600080fd5b506104446107a8366004613051565b611738565b3480156107b957600080fd5b506103a06104b081565b6104446107d1366004613084565b6117fd565b3480156107e257600080fd5b506015546103759060ff1681565b3480156107fc57600080fd5b50610444611999565b610444610813366004612ecb565b611a76565b34801561082457600080fd5b506104446108333660046130e6565b611c02565b34801561084457600080fd5b506103a0600f5481565b34801561085a57600080fd5b506103c3610869366004612ecb565b611c3b565b34801561087a57600080fd5b506103a0670214e8348c4f000081565b34801561089657600080fd5b506103a060085481565b3480156108ac57600080fd5b506103a06108bb366004613036565b611d4b565b3480156108cc57600080fd5b506103a0600b5481565b3480156108e257600080fd5b506104446108f1366004612ecb565b611d56565b34801561090257600080fd5b506103756109113660046131c2565b6001600160a01b03918216600090815260076020908152604080832093909416825291909152205460ff1690565b34801561094b57600080fd5b5061044461095a366004613036565b611d85565b34801561096b57600080fd5b5060155461097e90610100900460ff1681565b6040516103819190613202565b34801561099757600080fd5b506103a060105481565b3480156109ad57600080fd5b506103a0600d5481565b60006001600160e01b031982166380ac58cd60e01b14806109e857506001600160e01b03198216635b5e139f60e01b145b80610a0357506001600160e01b0319821663780e9d6360e01b145b80610a1e57506301ffc9a760e01b6001600160e01b03198316145b92915050565b606060028054610a339061322a565b80601f0160208091040260200160405190810160405280929190818152602001828054610a5f9061322a565b8015610aac5780601f10610a8157610100808354040283529160200191610aac565b820191906000526020600020905b815481529060010190602001808311610a8f57829003601f168201915b5050505050905090565b6000610ac3826001541190565b610b2a5760405162461bcd60e51b815260206004820152602d60248201527f455243373231413a20617070726f76656420717565727920666f72206e6f6e6560448201526c3c34b9ba32b73a103a37b5b2b760991b60648201526084015b60405180910390fd5b506000908152600660205260409020546001600160a01b031690565b6000610b51826114f7565b9050806001600160a01b0316836001600160a01b03161415610bc05760405162461bcd60e51b815260206004820152602260248201527f455243373231413a20617070726f76616c20746f2063757272656e74206f776e60448201526132b960f11b6064820152608401610b21565b336001600160a01b0382161480610bdc5750610bdc8133610911565b610c4e5760405162461bcd60e51b815260206004820152603960248201527f455243373231413a20617070726f76652063616c6c6572206973206e6f74206f60448201527f776e6572206e6f7220617070726f76656420666f7220616c6c000000000000006064820152608401610b21565b610c59838383611e20565b505050565b610c59838383611e7c565b604080513360601b6bffffffffffffffffffffffff1916602080830191909152825160148184030181526034830184528051908201207f19457468657265756d205369676e6564204d6573736167653a0a3332000000006054840152607080840182905284518085039091018152609090930190935281519101206000610d268286868080601f01602080910402602001604051908101604052809392919081815260200183838082843760009201919091525061220492505050565b90506001600160a01b03811615801590610d4d57506013546001600160a01b038281169116145b610d5657600080fd5b5050505050565b6000546001600160a01b03163314610d875760405162461bcd60e51b8152600401610b2190613265565b6015805460ff1916911515919091179055565b323314610db95760405162461bcd60e51b8152600401610b219061329a565b6001601554610100900460ff166003811115610dd757610dd76131ec565b14610e245760405162461bcd60e51b815260206004820152601f60248201527f44757463682041756374696f6e206973206e6f74206163746976617465642e006044820152606401610b21565b601054421015610e765760405162461bcd60e51b815260206004820152601f60248201527f41756374696f6e2073616c65206973206e6f74207374617274656420796574006044820152606401610b21565b6104b0601054610e8691906132e7565b421115610ed55760405162461bcd60e51b815260206004820152601960248201527f41756374696f6e2073616c652069732066696e69736865642e000000000000006044820152606401610b21565b60026009541415610ef85760405162461bcd60e51b8152600401610b21906132ff565b6002600955600b54600e54610f0e9083906132e7565b1115610f5c5760405162461bcd60e51b815260206004820181905260248201527f52656163686564206d61782061756374696f6e2073616c6520737570706c792e6044820152606401610b21565b600a5481610f6933611d4b565b610f7391906132e7565b1115610f915760405162461bcd60e51b8152600401610b2190613336565b600e8054906000610fa18361335d565b9190505550610fb03382612228565b610fcb81610fbc61135d565b610fc69190613378565b612246565b506001600955565b6000610fde836115ca565b82106110375760405162461bcd60e51b815260206004820152602260248201527f455243373231413a206f776e657220696e646578206f7574206f6620626f756e604482015261647360f01b6064820152608401610b21565b600061104260015490565b905060008060005b838110156110ec576000818152600460209081526040918290208251808401909352546001600160a01b038116808452600160a01b90910467ffffffffffffffff16918301919091521561109d57805192505b876001600160a01b0316836001600160a01b031614156110d957868414156110cb57509350610a1e92505050565b836110d58161335d565b9450505b50806110e48161335d565b91505061104a565b5060405162461bcd60e51b815260206004820152602e60248201527f455243373231413a20756e61626c6520746f2067657420746f6b656e206f662060448201526d0deeedccae440c4f240d2dcc8caf60931b6064820152608401610b21565b6000546001600160a01b031633146111765760405162461bcd60e51b8152600401610b2190613265565b600d548161118360015490565b61118d91906132e7565b11156111db5760405162461bcd60e51b815260206004820152601860248201527f4578636565647320646576206d696e7420616d6f756e742e00000000000000006044820152606401610b21565b6112057f0000000000000000000000000000000000000000000000000000000000000000826133ad565b156112675760405162461bcd60e51b815260206004820152602c60248201527f63616e206f6e6c79206d696e742061206d756c7469706c65206f66207468652060448201526b6d6178426174636853697a6560a01b6064820152608401610b21565b60006112937f0000000000000000000000000000000000000000000000000000000000000000836133c1565b905060005b81811015610c59576112ca337f0000000000000000000000000000000000000000000000000000000000000000612228565b806112d48161335d565b915050611298565b6000546001600160a01b031633146113065760405162461bcd60e51b8152600401610b2190613265565b6015805461ff0019169055565b610c5983838360405180602001604052806000815250611c02565b6000546001600160a01b031633146113585760405162461bcd60e51b8152600401610b2190613265565b601055565b600060105442116113755750670de0b6b3a764000090565b6104b06010544261138691906133d5565b106113985750670214e8348c4f000090565b600061012c601054426113ab91906133d5565b6113b591906133c1565b905060016113c761012c6104b06133c1565b6113d191906133d5565b6113eb670214e8348c4f0000670de0b6b3a76400006133d5565b6113f591906133c1565b6113ff9082613378565b61141190670de0b6b3a76400006133d5565b91505090565b600061142260015490565b821061147c5760405162461bcd60e51b815260206004820152602360248201527f455243373231413a20676c6f62616c20696e646578206f7574206f6620626f756044820152626e647360e81b6064820152608401610b21565b5090565b6000546001600160a01b031633146114aa5760405162461bcd60e51b8152600401610b2190613265565b610c5960148383612d9d565b60016114c661012c6104b06133c1565b6114d091906133d5565b6114ea670214e8348c4f0000670de0b6b3a76400006133d5565b6114f491906133c1565b81565b6000611502826122cd565b5192915050565b6000546001600160a01b031633146115335760405162461bcd60e51b8152600401610b2190613265565b806003811115611545576115456131ec565b601554610100900460ff166003811115611561576115616131ec565b14156115a15760405162461bcd60e51b815260206004820152600f60248201526e20b63932b0b23c9030b1ba34bb329760891b6044820152606401610b21565b6015805482919061ff0019166101008360038111156115c2576115c26131ec565b021790555050565b60006001600160a01b0382166116365760405162461bcd60e51b815260206004820152602b60248201527f455243373231413a2062616c616e636520717565727920666f7220746865207a60448201526a65726f206164647265737360a81b6064820152608401610b21565b506001600160a01b03166000908152600560205260409020546001600160801b031690565b6000546001600160a01b031633146116855760405162461bcd60e51b8152600401610b2190613265565b61168f6000612477565b565b6040805180820190915260008082526020820152610a1e826122cd565b606060038054610a339061322a565b6000546001600160a01b031633146116e75760405162461bcd60e51b8152600401610b2190613265565b601255565b6000546001600160a01b031633146117165760405162461bcd60e51b8152600401610b2190613265565b601380546001600160a01b0319166001600160a01b0392909216919091179055565b6001600160a01b0382163314156117915760405162461bcd60e51b815260206004820152601a60248201527f455243373231413a20617070726f766520746f2063616c6c65720000000000006044820152606401610b21565b3360008181526007602090815260408083206001600160a01b03871680855290835292819020805460ff191686151590811790915590519081529192917f17307eab39ab6107e8899845ad3d59bd9653f200f220920489ca2b5937696c31910160405180910390a35050565b32331461181c5760405162461bcd60e51b8152600401610b219061329a565b6002601554610100900460ff16600381111561183a5761183a6131ec565b14801561184957506012544210155b6118955760405162461bcd60e51b815260206004820152601a60248201527f50726573616c65206973206e6f742073746172746564207965740000000000006044820152606401610b21565b600260095414156118b85760405162461bcd60e51b8152600401610b21906132ff565b6002600955600c54600f546118ce9085906132e7565b111561191c5760405162461bcd60e51b815260206004820152601b60248201527f52656163686564206d61782070726573616c6520737570706c792e00000000006044820152606401610b21565b600a548361192933611d4b565b61193391906132e7565b11156119515760405162461bcd60e51b8152600401610b2190613336565b61195b8282610c69565b600f805490600061196b8361335d565b919050555061197a3384612228565b61198f610fc684670de0b6b3a7640000613378565b5050600160095550565b6000546001600160a01b031633146119c35760405162461bcd60e51b8152600401610b2190613265565b600260095414156119e65760405162461bcd60e51b8152600401610b21906132ff565b6002600955604051600090339047908381818185875af1925050503d8060008114611a2d576040519150601f19603f3d011682016040523d82523d6000602084013e611a32565b606091505b5050905080610fcb5760405162461bcd60e51b815260206004820152601060248201526f2a3930b739b332b9103330b4b632b21760811b6044820152606401610b21565b323314611a955760405162461bcd60e51b8152600401610b219061329a565b6003601554610100900460ff166003811115611ab357611ab36131ec565b148015611ac257506011544210155b611b0e5760405162461bcd60e51b815260206004820152601e60248201527f5075626c69632073616c65206973206e6f7420737461727465642079657400006044820152606401610b21565b60026009541415611b315760405162461bcd60e51b8152600401610b21906132ff565b60026009557f000000000000000000000000000000000000000000000000000000000000000081611b6160015490565b611b6b91906132e7565b1115611bae5760405162461bcd60e51b815260206004820152601260248201527172656163686564206d617820737570706c7960701b6044820152606401610b21565b600a5481611bbb33611d4b565b611bc591906132e7565b1115611be35760405162461bcd60e51b8152600401610b2190613336565b611bed3382612228565b610fcb610fc682671bc16d674ec80000613378565b611c0d848484611e7c565b611c19848484846124c7565b611c355760405162461bcd60e51b8152600401610b21906133ec565b50505050565b6060611c48826001541190565b611cac5760405162461bcd60e51b815260206004820152602f60248201527f4552433732314d657461646174613a2055524920717565727920666f72206e6f60448201526e3732bc34b9ba32b73a103a37b5b2b760891b6064820152608401610b21565b60155460ff16611cef57505060408051808201909152601b81527f68747470733a2f2f676174657761792e70696e6174612e636f6d2f0000000000602082015290565b6000611cf96125c6565b90506000815111611d195760405180602001604052806000815250611d44565b80611d23846125d5565b604051602001611d3492919061343f565b6040516020818303038152906040525b9392505050565b6000610a1e826126d3565b6000546001600160a01b03163314611d805760405162461bcd60e51b8152600401610b2190613265565b601155565b6000546001600160a01b03163314611daf5760405162461bcd60e51b8152600401610b2190613265565b6001600160a01b038116611e145760405162461bcd60e51b815260206004820152602660248201527f4f776e61626c653a206e6577206f776e657220697320746865207a65726f206160448201526564647265737360d01b6064820152608401610b21565b611e1d81612477565b50565b60008281526006602052604080822080546001600160a01b0319166001600160a01b0387811691821790925591518593918516917f8c5be1e5ebec7d5bd14f71427d1e84f3dd0314c0f7b2291e5b200ac8c7c3b92591a4505050565b6000611e87826122cd565b80519091506000906001600160a01b0316336001600160a01b03161480611ebe575033611eb384610ab6565b6001600160a01b0316145b80611ed057508151611ed09033610911565b905080611f3a5760405162461bcd60e51b815260206004820152603260248201527f455243373231413a207472616e736665722063616c6c6572206973206e6f74206044820152711bdddb995c881b9bdc88185c1c1c9bdd995960721b6064820152608401610b21565b846001600160a01b031682600001516001600160a01b031614611fae5760405162461bcd60e51b815260206004820152602660248201527f455243373231413a207472616e736665722066726f6d20696e636f72726563746044820152651037bbb732b960d11b6064820152608401610b21565b6001600160a01b0384166120125760405162461bcd60e51b815260206004820152602560248201527f455243373231413a207472616e7366657220746f20746865207a65726f206164604482015264647265737360d81b6064820152608401610b21565b6120226000848460000151611e20565b6001600160a01b03851660009081526005602052604081208054600192906120549084906001600160801b031661347e565b82546101009290920a6001600160801b038181021990931691831602179091556001600160a01b038616600090815260056020526040812080546001945090926120a0918591166134a6565b82546001600160801b039182166101009390930a9283029190920219909116179055506040805180820182526001600160a01b03808716825267ffffffffffffffff428116602080850191825260008981526004909152948520935184549151909216600160a01b026001600160e01b031990911691909216171790556121288460016132e7565b6000818152600460205260409020549091506001600160a01b03166121ba57612152816001541190565b156121ba5760408051808201825284516001600160a01b03908116825260208087015167ffffffffffffffff9081168285019081526000878152600490935294909120925183549451909116600160a01b026001600160e01b03199094169116179190911790555b83856001600160a01b0316876001600160a01b03167fddf252ad1be2c89b69c2b068fc378daa952ba7f163c4a11628f55a4df523b3ef60405160405180910390a45b505050505050565b60008060006122138585612771565b91509150612220816127e1565b509392505050565b61224282826040518060200160405280600081525061299c565b5050565b8034101561228f5760405162461bcd60e51b81526020600482015260166024820152752732b2b2103a379039b2b7321036b7b9329022aa241760511b6044820152606401610b21565b80341115611e1d57336108fc6122a583346133d5565b6040518115909202916000818181858888f19350505050158015612242573d6000803e3d6000fd5b60408051808201909152600080825260208201526122ec826001541190565b61234b5760405162461bcd60e51b815260206004820152602a60248201527f455243373231413a206f776e657220717565727920666f72206e6f6e657869736044820152693a32b73a103a37b5b2b760b11b6064820152608401610b21565b60007f000000000000000000000000000000000000000000000000000000000000000083106123ac5761239e7f0000000000000000000000000000000000000000000000000000000000000000846133d5565b6123a99060016132e7565b90505b825b818110612416576000818152600460209081526040918290208251808401909352546001600160a01b038116808452600160a01b90910467ffffffffffffffff16918301919091521561240357949350505050565b508061240e816134d1565b9150506123ae565b5060405162461bcd60e51b815260206004820152602f60248201527f455243373231413a20756e61626c6520746f2064657465726d696e652074686560448201526e1037bbb732b91037b3103a37b5b2b760891b6064820152608401610b21565b600080546001600160a01b038381166001600160a01b0319831681178455604051919092169283917f8be0079c531659141344cd1fd0a4f28419497f9722a3daafe3b4186f6b6457e09190a35050565b60006001600160a01b0384163b156125ba57604051630a85bd0160e11b81526001600160a01b0385169063150b7a029061250b9033908990889088906004016134e8565b6020604051808303816000875af1925050508015612546575060408051601f3d908101601f1916820190925261254391810190613525565b60015b6125a0573d808015612574576040519150601f19603f3d011682016040523d82523d6000602084013e612579565b606091505b5080516125985760405162461bcd60e51b8152600401610b21906133ec565b805181602001fd5b6001600160e01b031916630a85bd0160e11b1490506125be565b5060015b949350505050565b606060148054610a339061322a565b6060816125f95750506040805180820190915260018152600360fc1b602082015290565b8160005b8115612623578061260d8161335d565b915061261c9050600a836133c1565b91506125fd565b60008167ffffffffffffffff81111561263e5761263e6130d0565b6040519080825280601f01601f191660200182016040528015612668576020820181803683370190505b5090505b84156125be5761267d6001836133d5565b915061268a600a866133ad565b6126959060306132e7565b60f81b8183815181106126aa576126aa613542565b60200101906001600160f81b031916908160001a9053506126cc600a866133c1565b945061266c565b60006001600160a01b0382166127455760405162461bcd60e51b815260206004820152603160248201527f455243373231413a206e756d626572206d696e74656420717565727920666f7260448201527020746865207a65726f206164647265737360781b6064820152608401610b21565b506001600160a01b0316600090815260056020526040902054600160801b90046001600160801b031690565b6000808251604114156127a85760208301516040840151606085015160001a61279c87828585612c77565b945094505050506127da565b8251604014156127d257602083015160408401516127c7868383612d64565b9350935050506127da565b506000905060025b9250929050565b60008160048111156127f5576127f56131ec565b14156127fe5750565b6001816004811115612812576128126131ec565b14156128605760405162461bcd60e51b815260206004820152601860248201527f45434453413a20696e76616c6964207369676e617475726500000000000000006044820152606401610b21565b6002816004811115612874576128746131ec565b14156128c25760405162461bcd60e51b815260206004820152601f60248201527f45434453413a20696e76616c6964207369676e6174757265206c656e677468006044820152606401610b21565b60038160048111156128d6576128d66131ec565b141561292f5760405162461bcd60e51b815260206004820152602260248201527f45434453413a20696e76616c6964207369676e6174757265202773272076616c604482015261756560f01b6064820152608401610b21565b6004816004811115612943576129436131ec565b1415611e1d5760405162461bcd60e51b815260206004820152602260248201527f45434453413a20696e76616c6964207369676e6174757265202776272076616c604482015261756560f01b6064820152608401610b21565b6001546001600160a01b0384166129ff5760405162461bcd60e51b815260206004820152602160248201527f455243373231413a206d696e7420746f20746865207a65726f206164647265736044820152607360f81b6064820152608401610b21565b612a0a816001541190565b15612a575760405162461bcd60e51b815260206004820152601d60248201527f455243373231413a20746f6b656e20616c7265616479206d696e7465640000006044820152606401610b21565b7f0000000000000000000000000000000000000000000000000000000000000000831115612ad25760405162461bcd60e51b815260206004820152602260248201527f455243373231413a207175616e7469747920746f206d696e7420746f6f2068696044820152610ced60f31b6064820152608401610b21565b6001600160a01b0384166000908152600560209081526040918290208251808401845290546001600160801b038082168352600160801b9091041691810191909152815180830190925280519091908190612b2e9087906134a6565b6001600160801b03168152602001858360200151612b4c91906134a6565b6001600160801b039081169091526001600160a01b0380881660008181526005602090815260408083208751978301518716600160801b0297909616969096179094558451808601865291825267ffffffffffffffff4281168386019081528883526004909552948120915182549451909516600160a01b026001600160e01b031990941694909216939093179190911790915582905b85811015612c6c5760405182906001600160a01b038916906000907fddf252ad1be2c89b69c2b068fc378daa952ba7f163c4a11628f55a4df523b3ef908290a4612c3060008884886124c7565b612c4c5760405162461bcd60e51b8152600401610b21906133ec565b81612c568161335d565b9250508080612c649061335d565b915050612be3565b5060018190556121fc565b6000807f7fffffffffffffffffffffffffffffff5d576e7357a4501ddfe92f46681b20a0831115612cae5750600090506003612d5b565b8460ff16601b14158015612cc657508460ff16601c14155b15612cd75750600090506004612d5b565b6040805160008082526020820180845289905260ff881692820192909252606081018690526080810185905260019060a0016020604051602081039080840390855afa158015612d2b573d6000803e3d6000fd5b5050604051601f1901519150506001600160a01b038116612d5457600060019250925050612d5b565b9150600090505b94509492505050565b6000806001600160ff1b03831681612d8160ff86901c601b6132e7565b9050612d8f87828885612c77565b935093505050935093915050565b828054612da99061322a565b90600052602060002090601f016020900481019282612dcb5760008555612e11565b82601f10612de45782800160ff19823516178555612e11565b82800160010185558215612e11579182015b82811115612e11578235825591602001919060010190612df6565b5061147c9291505b8082111561147c5760008155600101612e19565b6001600160e01b031981168114611e1d57600080fd5b600060208284031215612e5557600080fd5b8135611d4481612e2d565b60005b83811015612e7b578181015183820152602001612e63565b83811115611c355750506000910152565b60008151808452612ea4816020860160208601612e60565b601f01601f19169290920160200192915050565b602081526000611d446020830184612e8c565b600060208284031215612edd57600080fd5b5035919050565b80356001600160a01b0381168114612efb57600080fd5b919050565b60008060408385031215612f1357600080fd5b612f1c83612ee4565b946020939093013593505050565b600080600060608486031215612f3f57600080fd5b612f4884612ee4565b9250612f5660208501612ee4565b9150604084013590509250925092565b60008083601f840112612f7857600080fd5b50813567ffffffffffffffff811115612f9057600080fd5b6020830191508360208285010111156127da57600080fd5b60008060208385031215612fbb57600080fd5b823567ffffffffffffffff811115612fd257600080fd5b612fde85828601612f66565b90969095509350505050565b80358015158114612efb57600080fd5b60006020828403121561300c57600080fd5b611d4482612fea565b60006020828403121561302757600080fd5b813560048110611d4457600080fd5b60006020828403121561304857600080fd5b611d4482612ee4565b6000806040838503121561306457600080fd5b61306d83612ee4565b915061307b60208401612fea565b90509250929050565b60008060006040848603121561309957600080fd5b83359250602084013567ffffffffffffffff8111156130b757600080fd5b6130c386828701612f66565b9497909650939450505050565b634e487b7160e01b600052604160045260246000fd5b600080600080608085870312156130fc57600080fd5b61310585612ee4565b935061311360208601612ee4565b925060408501359150606085013567ffffffffffffffff8082111561313757600080fd5b818701915087601f83011261314b57600080fd5b81358181111561315d5761315d6130d0565b604051601f8201601f19908116603f01168101908382118183101715613185576131856130d0565b816040528281528a602084870101111561319e57600080fd5b82602086016020830137600060208483010152809550505050505092959194509250565b600080604083850312156131d557600080fd5b6131de83612ee4565b915061307b60208401612ee4565b634e487b7160e01b600052602160045260246000fd5b602081016004831061322457634e487b7160e01b600052602160045260246000fd5b91905290565b600181811c9082168061323e57607f821691505b6020821081141561325f57634e487b7160e01b600052602260045260246000fd5b50919050565b6020808252818101527f4f776e61626c653a2063616c6c6572206973206e6f7420746865206f776e6572604082015260600190565b6020808252601e908201527f5468652063616c6c657220697320616e6f7468657220636f6e74726163740000604082015260600190565b634e487b7160e01b600052601160045260246000fd5b600082198211156132fa576132fa6132d1565b500190565b6020808252601f908201527f5265656e7472616e637947756172643a207265656e7472616e742063616c6c00604082015260600190565b6020808252600d908201526c115e18d959591cc81b1a5b5a5d609a1b604082015260600190565b6000600019821415613371576133716132d1565b5060010190565b6000816000190483118215151615613392576133926132d1565b500290565b634e487b7160e01b600052601260045260246000fd5b6000826133bc576133bc613397565b500690565b6000826133d0576133d0613397565b500490565b6000828210156133e7576133e76132d1565b500390565b60208082526033908201527f455243373231413a207472616e7366657220746f206e6f6e204552433732315260408201527232b1b2b4bb32b91034b6b83632b6b2b73a32b960691b606082015260800190565b60008351613451818460208801612e60565b835190830190613465818360208801612e60565b64173539b7b760d91b9101908152600501949350505050565b60006001600160801b038381169083168181101561349e5761349e6132d1565b039392505050565b60006001600160801b038083168185168083038211156134c8576134c86132d1565b01949350505050565b6000816134e0576134e06132d1565b506000190190565b6001600160a01b038581168252841660208201526040810183905260806060820181905260009061351b90830184612e8c565b9695505050505050565b60006020828403121561353757600080fd5b8151611d4481612e2d565b634e487b7160e01b600052603260045260246000fdfea2646970667358221220a593afc74f6c9175d6520020a5625026501d645126d245ace30550dc3a529a3464736f6c634300080a0033",
  "devdoc": {
    "kind": "dev",
    "methods": {
      "approve(address,uint256)": {
        "details": "See {IERC721-approve}."
      },
      "balanceOf(address)": {
        "details": "See {IERC721-balanceOf}."
      },
      "constructor": {
        "params": {
          "amountForAuctionSale_": "Amount for Dutch Auction mint",
          "amountForDevs_": "Amount for Presale mint",
          "amountForPresale_": "Amount for Presale mint",
          "collectionSize_": "NFT collection size",
          "maxBatchSize_": "Max size for ERC721A batch mint."
        }
      },
      "getApproved(uint256)": {
        "details": "See {IERC721-getApproved}."
      },
      "isApprovedForAll(address,address)": {
        "details": "See {IERC721-isApprovedForAll}."
      },
      "name()": {
        "details": "See {IERC721Metadata-name}."
      },
      "owner()": {
        "details": "Returns the address of the current owner."
      },
      "ownerOf(uint256)": {
        "details": "See {IERC721-ownerOf}."
      },
      "renounceOwnership()": {
        "details": "Leaves the contract without owner. It will not be possible to call `onlyOwner` functions anymore. Can only be called by the current owner. NOTE: Renouncing ownership will leave the contract without an owner, thereby removing any functionality that is only available to the owner."
      },
      "safeTransferFrom(address,address,uint256)": {
        "details": "See {IERC721-safeTransferFrom}."
      },
      "safeTransferFrom(address,address,uint256,bytes)": {
        "details": "See {IERC721-safeTransferFrom}."
      },
      "setApprovalForAll(address,bool)": {
        "details": "See {IERC721-setApprovalForAll}."
      },
      "supportsInterface(bytes4)": {
        "details": "See {IERC165-supportsInterface}."
      },
      "symbol()": {
        "details": "See {IERC721Metadata-symbol}."
      },
      "tokenByIndex(uint256)": {
        "details": "See {IERC721Enumerable-tokenByIndex}."
      },
      "tokenOfOwnerByIndex(address,uint256)": {
        "details": "See {IERC721Enumerable-tokenOfOwnerByIndex}. This read function is O(collectionSize). If calling from a separate contract, be sure to test gas first. It may also degrade with extremely large collection sizes (e.g >> 10000), test for your use case."
      },
      "tokenURI(uint256)": {
        "details": "See {IERC721Metadata-tokenURI}."
      },
      "totalSupply()": {
        "details": "See {IERC721Enumerable-totalSupply}."
      },
      "transferFrom(address,address,uint256)": {
        "details": "See {IERC721-transferFrom}."
      },
      "transferOwnership(address)": {
        "details": "Transfers ownership of the contract to a new account (`newOwner`). Can only be called by the current owner."
      }
    },
    "version": 1
  },
  "userdoc": {
    "kind": "user",
    "methods": {},
    "version": 1
  },
  "storageLayout": {
    "storage": [
      {
        "astId": 7,
        "contract": "contracts/Anero.sol:Anero",
        "label": "_owner",
        "offset": 0,
        "slot": "0",
        "type": "t_address"
      },
      {
        "astId": 2076,
        "contract": "contracts/Anero.sol:Anero",
        "label": "currentIndex",
        "offset": 0,
        "slot": "1",
        "type": "t_uint256"
      },
      {
        "astId": 2082,
        "contract": "contracts/Anero.sol:Anero",
        "label": "_name",
        "offset": 0,
        "slot": "2",
        "type": "t_string_storage"
      },
      {
        "astId": 2084,
        "contract": "contracts/Anero.sol:Anero",
        "label": "_symbol",
        "offset": 0,
        "slot": "3",
        "type": "t_string_storage"
      },
      {
        "astId": 2089,
        "contract": "contracts/Anero.sol:Anero",
        "label": "_ownerships",
        "offset": 0,
        "slot": "4",
        "type": "t_mapping(t_uint256,t_struct(TokenOwnership)2068_storage)"
      },
      {
        "astId": 2094,
        "contract": "contracts/Anero.sol:Anero",
        "label": "_addressData",
        "offset": 0,
        "slot": "5",
        "type": "t_mapping(t_address,t_struct(AddressData)2073_storage)"
      },
      {
        "astId": 2098,
        "contract": "contracts/Anero.sol:Anero",
        "label": "_tokenApprovals",
        "offset": 0,
        "slot": "6",
        "type": "t_mapping(t_uint256,t_address)"
      },
      {
        "astId": 2104,
        "contract": "contracts/Anero.sol:Anero",
        "label": "_operatorApprovals",
        "offset": 0,
        "slot": "7",
        "type": "t_mapping(t_address,t_mapping(t_address,t_bool))"
      },
      {
        "astId": 3047,
        "contract": "contracts/Anero.sol:Anero",
        "label": "nextOwnerToExplicitlySet",
        "offset": 0,
        "slot": "8",
        "type": "t_uint256"
      },
      {
        "astId": 115,
        "contract": "contracts/Anero.sol:Anero",
        "label": "_status",
        "offset": 0,
        "slot": "9",
        "type": "t_uint256"
      },
      {
        "astId": 1319,
        "contract": "contracts/Anero.sol:Anero",
        "label": "maxAmountPerWallet",
        "offset": 0,
        "slot": "10",
        "type": "t_uint256"
      },
      {
        "astId": 1321,
        "contract": "contracts/Anero.sol:Anero",
        "label": "amountForAuctionSale",
        "offset": 0,
        "slot": "11",
        "type": "t_uint256"
      },
      {
        "astId": 1323,
        "contract": "contracts/Anero.sol:Anero",
        "label": "amountForPresale",
        "offset": 0,
        "slot": "12",
        "type": "t_uint256"
      },
      {
        "astId": 1325,
        "contract": "contracts/Anero.sol:Anero",
        "label": "amountForDevs",
        "offset": 0,
        "slot": "13",
        "type": "t_uint256"
      },
      {
        "astId": 1327,
        "contract": "contracts/Anero.sol:Anero",
        "label": "currentAuctionAmount",
        "offset": 0,
        "slot": "14",
        "type": "t_uint256"
      },
      {
        "astId": 1329,
        "contract": "contracts/Anero.sol:Anero",
        "label": "currentPresaleAmount",
        "offset": 0,
        "slot": "15",
        "type": "t_uint256"
      },
      {
        "astId": 1356,
        "contract": "contracts/Anero.sol:Anero",
        "label": "auctionSaleStartTime",
        "offset": 0,
        "slot": "16",
        "type": "t_uint256"
      },
      {
        "astId": 1358,
        "contract": "contracts/Anero.sol:Anero",
        "label": "publicSaleStartTime",
        "offset": 0,
        "slot": "17",
        "type": "t_uint256"
      },
      {
        "astId": 1360,
        "contract": "contracts/Anero.sol:Anero",
        "label": "preSaleStartTime",
        "offset": 0,
        "slot": "18",
        "type": "t_uint256"
      },
      {
        "astId": 1368,
        "contract": "contracts/Anero.sol:Anero",
        "label": "preSaleSigner",
        "offset": 0,
        "slot": "19",
        "type": "t_address"
      },
      {
        "astId": 1370,
        "contract": "contracts/Anero.sol:Anero",
        "label": "_baseTokenURI",
        "offset": 0,
        "slot": "20",
        "type": "t_string_storage"
      },
      {
        "astId": 1372,
        "contract": "contracts/Anero.sol:Anero",
        "label": "reveal",
        "offset": 0,
        "slot": "21",
        "type": "t_bool"
      },
      {
        "astId": 1382,
        "contract": "contracts/Anero.sol:Anero",
        "label": "currentSalePhase",
        "offset": 1,
        "slot": "21",
        "type": "t_enum(SalePhase)1377"
      }
    ],
    "types": {
      "t_address": {
        "encoding": "inplace",
        "label": "address",
        "numberOfBytes": "20"
      },
      "t_bool": {
        "encoding": "inplace",
        "label": "bool",
        "numberOfBytes": "1"
      },
      "t_enum(SalePhase)1377": {
        "encoding": "inplace",
        "label": "enum Anero.SalePhase",
        "numberOfBytes": "1"
      },
      "t_mapping(t_address,t_bool)": {
        "encoding": "mapping",
        "key": "t_address",
        "label": "mapping(address => bool)",
        "numberOfBytes": "32",
        "value": "t_bool"
      },
      "t_mapping(t_address,t_mapping(t_address,t_bool))": {
        "encoding": "mapping",
        "key": "t_address",
        "label": "mapping(address => mapping(address => bool))",
        "numberOfBytes": "32",
        "value": "t_mapping(t_address,t_bool)"
      },
      "t_mapping(t_address,t_struct(AddressData)2073_storage)": {
        "encoding": "mapping",
        "key": "t_address",
        "label": "mapping(address => struct ERC721A.AddressData)",
        "numberOfBytes": "32",
        "value": "t_struct(AddressData)2073_storage"
      },
      "t_mapping(t_uint256,t_address)": {
        "encoding": "mapping",
        "key": "t_uint256",
        "label": "mapping(uint256 => address)",
        "numberOfBytes": "32",
        "value": "t_address"
      },
      "t_mapping(t_uint256,t_struct(TokenOwnership)2068_storage)": {
        "encoding": "mapping",
        "key": "t_uint256",
        "label": "mapping(uint256 => struct ERC721A.TokenOwnership)",
        "numberOfBytes": "32",
        "value": "t_struct(TokenOwnership)2068_storage"
      },
      "t_string_storage": {
        "encoding": "bytes",
        "label": "string",
        "numberOfBytes": "32"
      },
      "t_struct(AddressData)2073_storage": {
        "encoding": "inplace",
        "label": "struct ERC721A.AddressData",
        "members": [
          {
            "astId": 2070,
            "contract": "contracts/Anero.sol:Anero",
            "label": "balance",
            "offset": 0,
            "slot": "0",
            "type": "t_uint128"
          },
          {
            "astId": 2072,
            "contract": "contracts/Anero.sol:Anero",
            "label": "numberMinted",
            "offset": 16,
            "slot": "0",
            "type": "t_uint128"
          }
        ],
        "numberOfBytes": "32"
      },
      "t_struct(TokenOwnership)2068_storage": {
        "encoding": "inplace",
        "label": "struct ERC721A.TokenOwnership",
        "members": [
          {
            "astId": 2065,
            "contract": "contracts/Anero.sol:Anero",
            "label": "addr",
            "offset": 0,
            "slot": "0",
            "type": "t_address"
          },
          {
            "astId": 2067,
            "contract": "contracts/Anero.sol:Anero",
            "label": "startTimestamp",
            "offset": 20,
            "slot": "0",
            "type": "t_uint64"
          }
        ],
        "numberOfBytes": "32"
      },
      "t_uint128": {
        "encoding": "inplace",
        "label": "uint128",
        "numberOfBytes": "16"
      },
      "t_uint256": {
        "encoding": "inplace",
        "label": "uint256",
        "numberOfBytes": "32"
      },
      "t_uint64": {
        "encoding": "inplace",
        "label": "uint64",
        "numberOfBytes": "8"
      }
    }
  }
}