{
  "address": "0x19cEcCd6942ad38562Ee10bAfd44776ceB67e923",
  "abi": [
    {
      "inputs": [
        {
          "internalType": "uint256",
          "name": "maxBatchSize_",
          "type": "uint256"
        },
        {
          "internalType": "uint256",
          "name": "collectionSize_",
          "type": "uint256"
        },
        {
          "internalType": "uint256",
          "name": "amountForAuctionSale_",
          "type": "uint256"
        },
        {
          "internalType": "uint256",
          "name": "amountForPresale_",
          "type": "uint256"
        },
        {
          "internalType": "uint256",
          "name": "amountForDevs_",
          "type": "uint256"
        }
      ],
      "stateMutability": "nonpayable",
      "type": "constructor"
    },
    {
      "anonymous": false,
      "inputs": [
        {
          "indexed": true,
          "internalType": "address",
          "name": "owner",
          "type": "address"
        },
        {
          "indexed": true,
          "internalType": "address",
          "name": "approved",
          "type": "address"
        },
        {
          "indexed": true,
          "internalType": "uint256",
          "name": "tokenId",
          "type": "uint256"
        }
      ],
      "name": "Approval",
      "type": "event"
    },
    {
      "anonymous": false,
      "inputs": [
        {
          "indexed": true,
          "internalType": "address",
          "name": "owner",
          "type": "address"
        },
        {
          "indexed": true,
          "internalType": "address",
          "name": "operator",
          "type": "address"
        },
        {
          "indexed": false,
          "internalType": "bool",
          "name": "approved",
          "type": "bool"
        }
      ],
      "name": "ApprovalForAll",
      "type": "event"
    },
    {
      "anonymous": false,
      "inputs": [
        {
          "indexed": true,
          "internalType": "address",
          "name": "previousOwner",
          "type": "address"
        },
        {
          "indexed": true,
          "internalType": "address",
          "name": "newOwner",
          "type": "address"
        }
      ],
      "name": "OwnershipTransferred",
      "type": "event"
    },
    {
      "anonymous": false,
      "inputs": [
        {
          "indexed": true,
          "internalType": "address",
          "name": "from",
          "type": "address"
        },
        {
          "indexed": true,
          "internalType": "address",
          "name": "to",
          "type": "address"
        },
        {
          "indexed": true,
          "internalType": "uint256",
          "name": "tokenId",
          "type": "uint256"
        }
      ],
      "name": "Transfer",
      "type": "event"
    },
    {
      "inputs": [],
      "name": "AUCTION_DROP_INTERVAL",
      "outputs": [
        {
          "internalType": "uint256",
          "name": "",
          "type": "uint256"
        }
      ],
      "stateMutability": "view",
      "type": "function"
    },
    {
      "inputs": [],
      "name": "AUCTION_DROP_PER_STEP",
      "outputs": [
        {
          "internalType": "uint256",
          "name": "",
          "type": "uint256"
        }
      ],
      "stateMutability": "view",
      "type": "function"
    },
    {
      "inputs": [],
      "name": "AUCTION_DURATION",
      "outputs": [
        {
          "internalType": "uint256",
          "name": "",
          "type": "uint256"
        }
      ],
      "stateMutability": "view",
      "type": "function"
    },
    {
      "inputs": [],
      "name": "AUCTION_END_PRICE",
      "outputs": [
        {
          "internalType": "uint256",
          "name": "",
          "type": "uint256"
        }
      ],
      "stateMutability": "view",
      "type": "function"
    },
    {
      "inputs": [],
      "name": "AUCTION_START_PRICE",
      "outputs": [
        {
          "internalType": "uint256",
          "name": "",
          "type": "uint256"
        }
      ],
      "stateMutability": "view",
      "type": "function"
    },
    {
      "inputs": [],
      "name": "PRE_SALE_PRICE",
      "outputs": [
        {
          "internalType": "uint256",
          "name": "",
          "type": "uint256"
        }
      ],
      "stateMutability": "view",
      "type": "function"
    },
    {
      "inputs": [],
      "name": "PUBLIC_SALE_PRICE",
      "outputs": [
        {
          "internalType": "uint256",
          "name": "",
          "type": "uint256"
        }
      ],
      "stateMutability": "view",
      "type": "function"
    },
    {
      "inputs": [],
      "name": "amountForAuctionSale",
      "outputs": [
        {
          "internalType": "uint256",
          "name": "",
          "type": "uint256"
        }
      ],
      "stateMutability": "view",
      "type": "function"
    },
    {
      "inputs": [],
      "name": "amountForDevs",
      "outputs": [
        {
          "internalType": "uint256",
          "name": "",
          "type": "uint256"
        }
      ],
      "stateMutability": "view",
      "type": "function"
    },
    {
      "inputs": [],
      "name": "amountForPresale",
      "outputs": [
        {
          "internalType": "uint256",
          "name": "",
          "type": "uint256"
        }
      ],
      "stateMutability": "view",
      "type": "function"
    },
    {
      "inputs": [
        {
          "internalType": "address",
          "name": "to",
          "type": "address"
        },
        {
          "internalType": "uint256",
          "name": "tokenId",
          "type": "uint256"
        }
      ],
      "name": "approve",
      "outputs": [],
      "stateMutability": "nonpayable",
      "type": "function"
    },
    {
      "inputs": [
        {
          "internalType": "uint256",
          "name": "quantity",
          "type": "uint256"
        }
      ],
      "name": "auctionSaleMint",
      "outputs": [],
      "stateMutability": "payable",
      "type": "function"
    },
    {
      "inputs": [],
      "name": "auctionSaleStartTime",
      "outputs": [
        {
          "internalType": "uint256",
          "name": "",
          "type": "uint256"
        }
      ],
      "stateMutability": "view",
      "type": "function"
    },
    {
      "inputs": [
        {
          "internalType": "address",
          "name": "owner",
          "type": "address"
        }
      ],
      "name": "balanceOf",
      "outputs": [
        {
          "internalType": "uint256",
          "name": "",
          "type": "uint256"
        }
      ],
      "stateMutability": "view",
      "type": "function"
    },
    {
      "inputs": [],
      "name": "currentAuctionAmount",
      "outputs": [
        {
          "internalType": "uint256",
          "name": "",
          "type": "uint256"
        }
      ],
      "stateMutability": "view",
      "type": "function"
    },
    {
      "inputs": [],
      "name": "currentPresaleAmount",
      "outputs": [
        {
          "internalType": "uint256",
          "name": "",
          "type": "uint256"
        }
      ],
      "stateMutability": "view",
      "type": "function"
    },
    {
      "inputs": [],
      "name": "currentSalePhase",
      "outputs": [
        {
          "internalType": "enum Anero.SalePhase",
          "name": "",
          "type": "uint8"
        }
      ],
      "stateMutability": "view",
      "type": "function"
    },
    {
      "inputs": [
        {
          "internalType": "uint256",
          "name": "quantity",
          "type": "uint256"
        }
      ],
      "name": "devMint",
      "outputs": [],
      "stateMutability": "nonpayable",
      "type": "function"
    },
    {
      "inputs": [],
      "name": "endSale",
      "outputs": [],
      "stateMutability": "nonpayable",
      "type": "function"
    },
    {
      "inputs": [
        {
          "internalType": "uint256",
          "name": "tokenId",
          "type": "uint256"
        }
      ],
      "name": "getApproved",
      "outputs": [
        {
          "internalType": "address",
          "name": "",
          "type": "address"
        }
      ],
      "stateMutability": "view",
      "type": "function"
    },
    {
      "inputs": [],
      "name": "getAuctionPrice",
      "outputs": [
        {
          "internalType": "uint256",
          "name": "",
          "type": "uint256"
        }
      ],
      "stateMutability": "view",
      "type": "function"
    },
    {
      "inputs": [
        {
          "internalType": "uint256",
          "name": "tokenId",
          "type": "uint256"
        }
      ],
      "name": "getOwnershipData",
      "outputs": [
        {
          "components": [
            {
              "internalType": "address",
              "name": "addr",
              "type": "address"
            },
            {
              "internalType": "uint64",
              "name": "startTimestamp",
              "type": "uint64"
            }
          ],
          "internalType": "struct ERC721A.TokenOwnership",
          "name": "",
          "type": "tuple"
        }
      ],
      "stateMutability": "view",
      "type": "function"
    },
    {
      "inputs": [
        {
          "internalType": "address",
          "name": "owner",
          "type": "address"
        },
        {
          "internalType": "address",
          "name": "operator",
          "type": "address"
        }
      ],
      "name": "isApprovedForAll",
      "outputs": [
        {
          "internalType": "bool",
          "name": "",
          "type": "bool"
        }
      ],
      "stateMutability": "view",
      "type": "function"
    },
    {
      "inputs": [],
      "name": "maxAmountPerWallet",
      "outputs": [
        {
          "internalType": "uint256",
          "name": "",
          "type": "uint256"
        }
      ],
      "stateMutability": "view",
      "type": "function"
    },
    {
      "inputs": [],
      "name": "name",
      "outputs": [
        {
          "internalType": "string",
          "name": "",
          "type": "string"
        }
      ],
      "stateMutability": "view",
      "type": "function"
    },
    {
      "inputs": [],
      "name": "nextOwnerToExplicitlySet",
      "outputs": [
        {
          "internalType": "uint256",
          "name": "",
          "type": "uint256"
        }
      ],
      "stateMutability": "view",
      "type": "function"
    },
    {
      "inputs": [
        {
          "internalType": "address",
          "name": "owner",
          "type": "address"
        }
      ],
      "name": "numberMinted",
      "outputs": [
        {
          "internalType": "uint256",
          "name": "",
          "type": "uint256"
        }
      ],
      "stateMutability": "view",
      "type": "function"
    },
    {
      "inputs": [],
      "name": "owner",
      "outputs": [
        {
          "internalType": "address",
          "name": "",
          "type": "address"
        }
      ],
      "stateMutability": "view",
      "type": "function"
    },
    {
      "inputs": [
        {
          "internalType": "uint256",
          "name": "tokenId",
          "type": "uint256"
        }
      ],
      "name": "ownerOf",
      "outputs": [
        {
          "internalType": "address",
          "name": "",
          "type": "address"
        }
      ],
      "stateMutability": "view",
      "type": "function"
    },
    {
      "inputs": [
        {
          "internalType": "uint256",
          "name": "quantity",
          "type": "uint256"
        },
        {
          "internalType": "bytes",
          "name": "signature",
          "type": "bytes"
        }
      ],
      "name": "preSaleMint",
      "outputs": [],
      "stateMutability": "payable",
      "type": "function"
    },
    {
      "inputs": [],
      "name": "preSaleStartTime",
      "outputs": [
        {
          "internalType": "uint256",
          "name": "",
          "type": "uint256"
        }
      ],
      "stateMutability": "view",
      "type": "function"
    },
    {
      "inputs": [
        {
          "internalType": "uint256",
          "name": "quantity",
          "type": "uint256"
        }
      ],
      "name": "publicSaleMint",
      "outputs": [],
      "stateMutability": "payable",
      "type": "function"
    },
    {
      "inputs": [],
      "name": "publicSaleStartTime",
      "outputs": [
        {
          "internalType": "uint256",
          "name": "",
          "type": "uint256"
        }
      ],
      "stateMutability": "view",
      "type": "function"
    },
    {
      "inputs": [],
      "name": "renounceOwnership",
      "outputs": [],
      "stateMutability": "nonpayable",
      "type": "function"
    },
    {
      "inputs": [],
      "name": "reveal",
      "outputs": [
        {
          "internalType": "bool",
          "name": "",
          "type": "bool"
        }
      ],
      "stateMutability": "view",
      "type": "function"
    },
    {
      "inputs": [
        {
          "internalType": "address",
          "name": "from",
          "type": "address"
        },
        {
          "internalType": "address",
          "name": "to",
          "type": "address"
        },
        {
          "internalType": "uint256",
          "name": "tokenId",
          "type": "uint256"
        }
      ],
      "name": "safeTransferFrom",
      "outputs": [],
      "stateMutability": "nonpayable",
      "type": "function"
    },
    {
      "inputs": [
        {
          "internalType": "address",
          "name": "from",
          "type": "address"
        },
        {
          "internalType": "address",
          "name": "to",
          "type": "address"
        },
        {
          "internalType": "uint256",
          "name": "tokenId",
          "type": "uint256"
        },
        {
          "internalType": "bytes",
          "name": "_data",
          "type": "bytes"
        }
      ],
      "name": "safeTransferFrom",
      "outputs": [],
      "stateMutability": "nonpayable",
      "type": "function"
    },
    {
      "inputs": [
        {
          "internalType": "address",
          "name": "operator",
          "type": "address"
        },
        {
          "internalType": "bool",
          "name": "approved",
          "type": "bool"
        }
      ],
      "name": "setApprovalForAll",
      "outputs": [],
      "stateMutability": "nonpayable",
      "type": "function"
    },
    {
      "inputs": [],
      "name": "setAuctionSaleActive",
      "outputs": [],
      "stateMutability": "nonpayable",
      "type": "function"
    },
    {
      "inputs": [
        {
          "internalType": "string",
          "name": "baseURI",
          "type": "string"
        }
      ],
      "name": "setBaseURI",
      "outputs": [],
      "stateMutability": "nonpayable",
      "type": "function"
    },
    {
      "inputs": [],
      "name": "setPreSaleActive",
      "outputs": [],
      "stateMutability": "nonpayable",
      "type": "function"
    },
    {
      "inputs": [
        {
          "internalType": "address",
          "name": "signer",
          "type": "address"
        }
      ],
      "name": "setPreSaleSigner",
      "outputs": [],
      "stateMutability": "nonpayable",
      "type": "function"
    },
    {
      "inputs": [],
      "name": "setPublicSaleActive",
      "outputs": [],
      "stateMutability": "nonpayable",
      "type": "function"
    },
    {
      "inputs": [
        {
          "internalType": "bool",
          "name": "value",
          "type": "bool"
        }
      ],
      "name": "setReveal",
      "outputs": [],
      "stateMutability": "nonpayable",
      "type": "function"
    },
    {
      "inputs": [
        {
          "internalType": "uint256",
          "name": "startTime",
          "type": "uint256"
        }
      ],
      "name": "startAuctionSaleAt",
      "outputs": [],
      "stateMutability": "nonpayable",
      "type": "function"
    },
    {
      "inputs": [
        {
          "internalType": "uint256",
          "name": "startTime",
          "type": "uint256"
        }
      ],
      "name": "startPreSaleAt",
      "outputs": [],
      "stateMutability": "nonpayable",
      "type": "function"
    },
    {
      "inputs": [
        {
          "internalType": "uint256",
          "name": "startTime",
          "type": "uint256"
        }
      ],
      "name": "startPublicSaleAt",
      "outputs": [],
      "stateMutability": "nonpayable",
      "type": "function"
    },
    {
      "inputs": [
        {
          "internalType": "bytes4",
          "name": "interfaceId",
          "type": "bytes4"
        }
      ],
      "name": "supportsInterface",
      "outputs": [
        {
          "internalType": "bool",
          "name": "",
          "type": "bool"
        }
      ],
      "stateMutability": "view",
      "type": "function"
    },
    {
      "inputs": [],
      "name": "symbol",
      "outputs": [
        {
          "internalType": "string",
          "name": "",
          "type": "string"
        }
      ],
      "stateMutability": "view",
      "type": "function"
    },
    {
      "inputs": [
        {
          "internalType": "uint256",
          "name": "index",
          "type": "uint256"
        }
      ],
      "name": "tokenByIndex",
      "outputs": [
        {
          "internalType": "uint256",
          "name": "",
          "type": "uint256"
        }
      ],
      "stateMutability": "view",
      "type": "function"
    },
    {
      "inputs": [
        {
          "internalType": "address",
          "name": "owner",
          "type": "address"
        },
        {
          "internalType": "uint256",
          "name": "index",
          "type": "uint256"
        }
      ],
      "name": "tokenOfOwnerByIndex",
      "outputs": [
        {
          "internalType": "uint256",
          "name": "",
          "type": "uint256"
        }
      ],
      "stateMutability": "view",
      "type": "function"
    },
    {
      "inputs": [
        {
          "internalType": "uint256",
          "name": "tokenId",
          "type": "uint256"
        }
      ],
      "name": "tokenURI",
      "outputs": [
        {
          "internalType": "string",
          "name": "",
          "type": "string"
        }
      ],
      "stateMutability": "view",
      "type": "function"
    },
    {
      "inputs": [],
      "name": "totalSupply",
      "outputs": [
        {
          "internalType": "uint256",
          "name": "",
          "type": "uint256"
        }
      ],
      "stateMutability": "view",
      "type": "function"
    },
    {
      "inputs": [
        {
          "internalType": "address",
          "name": "from",
          "type": "address"
        },
        {
          "internalType": "address",
          "name": "to",
          "type": "address"
        },
        {
          "internalType": "uint256",
          "name": "tokenId",
          "type": "uint256"
        }
      ],
      "name": "transferFrom",
      "outputs": [],
      "stateMutability": "nonpayable",
      "type": "function"
    },
    {
      "inputs": [
        {
          "internalType": "address",
          "name": "newOwner",
          "type": "address"
        }
      ],
      "name": "transferOwnership",
      "outputs": [],
      "stateMutability": "nonpayable",
      "type": "function"
    },
    {
      "inputs": [
        {
          "internalType": "bytes32",
          "name": "message",
          "type": "bytes32"
        },
        {
          "internalType": "bytes",
          "name": "signature",
          "type": "bytes"
        }
      ],
      "name": "verifySigner",
      "outputs": [
        {
          "internalType": "bool",
          "name": "",
          "type": "bool"
        }
      ],
      "stateMutability": "view",
      "type": "function"
    },
    {
      "inputs": [],
      "name": "withdrawMoney",
      "outputs": [],
      "stateMutability": "nonpayable",
      "type": "function"
    }
  ],
  "transactionHash": "0xffa619640998eba933fc970868455c8ee7ea5a72c745360e0ac088617b8fbe47",
  "args": [
    5,
    7777,
    3000,
    2000,
    100
  ],
  "numDeployments": 1,
  "solcInputHash": "e1571e340193f553f6febe2d64c3eb7e",
  "bytecode": "0x60c0604052600060018190556008556015805461ff00191690553480156200002657600080fd5b5060405162003b1a38038062003b1a83398101604081905262000049916200030e565b60405180604001604052806005815260200164416e65726f60d81b81525060405180604001604052806005815260200164416e65726f60d81b8152508686620000a16200009b6200021460201b60201c565b62000218565b600081116200010e5760405162461bcd60e51b815260206004820152602e60248201527f455243373231413a20636f6c6c656374696f6e206d757374206861766520612060448201526d6e6f6e7a65726f20737570706c7960901b60648201526084015b60405180910390fd5b60008211620001705760405162461bcd60e51b815260206004820152602760248201527f455243373231413a206d61782062617463682073697a65206d757374206265206044820152666e6f6e7a65726f60c81b606482015260840162000105565b83516200018590600290602087019062000268565b5082516200019b90600390602086019062000268565b5060a0919091526080525050600160095583620001b983856200034f565b1115620001fb5760405162461bcd60e51b815260206004820152600f60248201526e496e76616c696420616d6f756e747360881b604482015260640162000105565b600a94909455600b91909155600c5550600d55620003b3565b3390565b600080546001600160a01b038381166001600160a01b0319831681178455604051919092169283917f8be0079c531659141344cd1fd0a4f28419497f9722a3daafe3b4186f6b6457e09190a35050565b828054620002769062000376565b90600052602060002090601f0160209004810192826200029a5760008555620002e5565b82601f10620002b557805160ff1916838001178555620002e5565b82800160010185558215620002e5579182015b82811115620002e5578251825591602001919060010190620002c8565b50620002f3929150620002f7565b5090565b5b80821115620002f35760008155600101620002f8565b600080600080600060a086880312156200032757600080fd5b5050835160208501516040860151606087015160809097015192989197509594509092509050565b600082198211156200037157634e487b7160e01b600052601160045260246000fd5b500190565b600181811c908216806200038b57607f821691505b60208210811415620003ad57634e487b7160e01b600052602260045260246000fd5b50919050565b60805160a05161371e620003fc60003960008181611245015281816112d30152818161130b015281816125000152818161252a0152612c0a01526000611c96015261371e6000f3fe6080604052600436106103765760003560e01c80636bb7b1d9116101d1578063ac44600211610102578063dc33e681116100a0578063f2fde38b1161006f578063f2fde38b14610983578063f53da97e146109a3578063fab2bf58146109cf578063fbe1aa51146109e557600080fd5b8063dc33e681146108e4578063e25ac45914610904578063e75f01661461091a578063e985e9c51461093a57600080fd5b8063bdee733d116100dc578063bdee733d1461087d578063c87b56dd14610893578063caf8a6d1146108b3578063d7224ba0146108ce57600080fd5b8063ac44600214610835578063b3ab66b01461084a578063b88d4fde1461085d57600080fd5b806395d89b411161016f578063a22cb46511610149578063a22cb465146107d2578063a271e525146107f2578063a272284a14610808578063a475b5dd1461081b57600080fd5b806395d89b411461077d57806397b9447d146107925780639f1c9b05146107b257600080fd5b80637a1c4a56116101ab5780637a1c4a56146103f657806388b149a0146106fc5780638da5cb5b146107115780639231ab2a1461072f57600080fd5b80636bb7b1d9146106b157806370a08231146106c7578063715018a6146106e757600080fd5b806336db7129116102ab5780634bd25c6f1161024957806355f804b31161022357806355f804b31461064657806359f369fe146106665780635cae01d31461067b5780636352211e1461069157600080fd5b80634bd25c6f146105fb5780634f6ccce7146106105780634f8252341461063057600080fd5b80633e11ab3f116102855780633e11ab3f1461059057806342842e0e146105a557806347785085146105c55780634aaa9622146105db57600080fd5b806336db712914610545578063375a069a1461055b578063380d831b1461057b57600080fd5b806318160ddd1161031857806323b872dd116102f257806323b872dd146104d25780632a3f300c146104f25780632e95536e146105125780632f745c591461052557600080fd5b806318160ddd1461048c578063193402bb146104a157806320fe418a146104bd57600080fd5b806307e89ec01161035457806307e89ec0146103f6578063081812fc14610412578063091d6b541461044a578063095ea7b31461046a57600080fd5b806301ffc9a71461037b57806306d65af3146103b057806306fdde03146103d4575b600080fd5b34801561038757600080fd5b5061039b610396366004612ff4565b6109fb565b60405190151581526020015b60405180910390f35b3480156103bc57600080fd5b506103c660125481565b6040519081526020016103a7565b3480156103e057600080fd5b506103e9610a68565b6040516103a79190613069565b34801561040257600080fd5b506103c6671bc16d674ec8000081565b34801561041e57600080fd5b5061043261042d36600461307c565b610afa565b6040516001600160a01b0390911681526020016103a7565b34801561045657600080fd5b5061039b6104653660046130d7565b610b8a565b34801561047657600080fd5b5061048a61048536600461313f565b610bf0565b005b34801561049857600080fd5b506001546103c6565b3480156104ad57600080fd5b506103c6670de0b6b3a764000081565b3480156104c957600080fd5b5061048a610d08565b3480156104de57600080fd5b5061048a6104ed366004613169565b610db7565b3480156104fe57600080fd5b5061048a61050d3660046131b5565b610dc2565b61048a61052036600461307c565b610dff565b34801561053157600080fd5b506103c661054036600461313f565b611038565b34801561055157600080fd5b506103c6600a5481565b34801561056757600080fd5b5061048a61057636600461307c565b6111b1565b34801561058757600080fd5b5061048a611341565b34801561059c57600080fd5b5061048a611381565b3480156105b157600080fd5b5061048a6105c0366004613169565b61142d565b3480156105d157600080fd5b506103c6600c5481565b3480156105e757600080fd5b5061048a6105f636600461307c565b611448565b34801561060757600080fd5b506103c6611477565b34801561061c57600080fd5b506103c661062b36600461307c565b611523565b34801561063c57600080fd5b506103c6600e5481565b34801561065257600080fd5b5061048a6106613660046131d0565b61158c565b34801561067257600080fd5b506103c66115c2565b34801561068757600080fd5b506103c661012c81565b34801561069d57600080fd5b506104326106ac36600461307c565b6115f6565b3480156106bd57600080fd5b506103c660115481565b3480156106d357600080fd5b506103c66106e2366004613212565b611608565b3480156106f357600080fd5b5061048a611699565b34801561070857600080fd5b5061048a6116cf565b34801561071d57600080fd5b506000546001600160a01b0316610432565b34801561073b57600080fd5b5061074f61074a36600461307c565b61177b565b6040805182516001600160a01b0316815260209283015167ffffffffffffffff1692810192909252016103a7565b34801561078957600080fd5b506103e9611798565b34801561079e57600080fd5b5061048a6107ad36600461307c565b6117a7565b3480156107be57600080fd5b5061048a6107cd366004613212565b6117d6565b3480156107de57600080fd5b5061048a6107ed36600461322d565b611822565b3480156107fe57600080fd5b506103c66104b081565b61048a6108163660046130d7565b6118e7565b34801561082757600080fd5b5060155461039b9060ff1681565b34801561084157600080fd5b5061048a611af7565b61048a61085836600461307c565b611bd4565b34801561086957600080fd5b5061048a610878366004613276565b611d60565b34801561088957600080fd5b506103c6600f5481565b34801561089f57600080fd5b506103e96108ae36600461307c565b611d99565b3480156108bf57600080fd5b506103c666b1a2bc2ec5000081565b3480156108da57600080fd5b506103c660085481565b3480156108f057600080fd5b506103c66108ff366004613212565b611ea9565b34801561091057600080fd5b506103c6600b5481565b34801561092657600080fd5b5061048a61093536600461307c565b611eb4565b34801561094657600080fd5b5061039b610955366004613352565b6001600160a01b03918216600090815260076020908152604080832093909416825291909152205460ff1690565b34801561098f57600080fd5b5061048a61099e366004613212565b611ee3565b3480156109af57600080fd5b506015546109c290610100900460ff1681565b6040516103a79190613392565b3480156109db57600080fd5b506103c660105481565b3480156109f157600080fd5b506103c6600d5481565b60006001600160e01b031982166380ac58cd60e01b1480610a2c57506001600160e01b03198216635b5e139f60e01b145b80610a4757506001600160e01b0319821663780e9d6360e01b145b80610a6257506301ffc9a760e01b6001600160e01b03198316145b92915050565b606060028054610a77906133ba565b80601f0160208091040260200160405190810160405280929190818152602001828054610aa3906133ba565b8015610af05780601f10610ac557610100808354040283529160200191610af0565b820191906000526020600020905b815481529060010190602001808311610ad357829003601f168201915b5050505050905090565b6000610b07826001541190565b610b6e5760405162461bcd60e51b815260206004820152602d60248201527f455243373231413a20617070726f76656420717565727920666f72206e6f6e6560448201526c3c34b9ba32b73a103a37b5b2b760991b60648201526084015b60405180910390fd5b506000908152600660205260409020546001600160a01b031690565b6000610bd783838080601f016020809104026020016040519081016040528093929190818152602001838380828437600092019190915250610bd19250889150611f7e9050565b90611fd1565b6013546001600160a01b03918216911614949350505050565b6000610bfb826115f6565b9050806001600160a01b0316836001600160a01b03161415610c6a5760405162461bcd60e51b815260206004820152602260248201527f455243373231413a20617070726f76616c20746f2063757272656e74206f776e60448201526132b960f11b6064820152608401610b65565b336001600160a01b0382161480610c865750610c868133610955565b610cf85760405162461bcd60e51b815260206004820152603960248201527f455243373231413a20617070726f76652063616c6c6572206973206e6f74206f60448201527f776e6572206e6f7220617070726f76656420666f7220616c6c000000000000006064820152608401610b65565b610d03838383611ff5565b505050565b6000546001600160a01b03163314610d325760405162461bcd60e51b8152600401610b65906133f5565b6002601554610100900460ff166003811115610d5057610d5061337c565b1415610d9e5760405162461bcd60e51b815260206004820152601a60248201527f50726573616c6520697320616c7265616479206163746976652e0000000000006044820152606401610b65565b601580546002919061ff001916610100835b0217905550565b610d03838383612051565b6000546001600160a01b03163314610dec5760405162461bcd60e51b8152600401610b65906133f5565b6015805460ff1916911515919091179055565b323314610e1e5760405162461bcd60e51b8152600401610b659061342a565b6001601554610100900460ff166003811115610e3c57610e3c61337c565b14610e895760405162461bcd60e51b815260206004820152601f60248201527f44757463682041756374696f6e206973206e6f74206163746976617465642e006044820152606401610b65565b601054421015610edb5760405162461bcd60e51b815260206004820152601f60248201527f41756374696f6e2073616c65206973206e6f74207374617274656420796574006044820152606401610b65565b6104b0601054610eeb9190613477565b421115610f3a5760405162461bcd60e51b815260206004820152601960248201527f41756374696f6e2073616c652069732066696e69736865642e000000000000006044820152606401610b65565b60026009541415610f5d5760405162461bcd60e51b8152600401610b659061348f565b6002600955600b54600e54610f73908390613477565b1115610fc15760405162461bcd60e51b815260206004820181905260248201527f52656163686564206d61782061756374696f6e2073616c6520737570706c792e6044820152606401610b65565b600a5481610fce33611ea9565b610fd89190613477565b1115610ff65760405162461bcd60e51b8152600401610b65906134c6565b600e8054906000611006836134ed565b919050555061101533826123d9565b61103081611021611477565b61102b9190613508565b6123f7565b506001600955565b600061104383611608565b821061109c5760405162461bcd60e51b815260206004820152602260248201527f455243373231413a206f776e657220696e646578206f7574206f6620626f756e604482015261647360f01b6064820152608401610b65565b60006110a760015490565b905060008060005b83811015611151576000818152600460209081526040918290208251808401909352546001600160a01b038116808452600160a01b90910467ffffffffffffffff16918301919091521561110257805192505b876001600160a01b0316836001600160a01b0316141561113e578684141561113057509350610a6292505050565b8361113a816134ed565b9450505b5080611149816134ed565b9150506110af565b5060405162461bcd60e51b815260206004820152602e60248201527f455243373231413a20756e61626c6520746f2067657420746f6b656e206f662060448201526d0deeedccae440c4f240d2dcc8caf60931b6064820152608401610b65565b6000546001600160a01b031633146111db5760405162461bcd60e51b8152600401610b65906133f5565b600d54816111e860015490565b6111f29190613477565b11156112405760405162461bcd60e51b815260206004820152601860248201527f4578636565647320646576206d696e7420616d6f756e742e00000000000000006044820152606401610b65565b61126a7f00000000000000000000000000000000000000000000000000000000000000008261353d565b156112cc5760405162461bcd60e51b815260206004820152602c60248201527f63616e206f6e6c79206d696e742061206d756c7469706c65206f66207468652060448201526b6d6178426174636853697a6560a01b6064820152608401610b65565b60006112f87f000000000000000000000000000000000000000000000000000000000000000083613551565b905060005b81811015610d035761132f337f00000000000000000000000000000000000000000000000000000000000000006123d9565b80611339816134ed565b9150506112fd565b6000546001600160a01b0316331461136b5760405162461bcd60e51b8152600401610b65906133f5565b601580546000919061ff00191661010083610db0565b6000546001600160a01b031633146113ab5760405162461bcd60e51b8152600401610b65906133f5565b6003601554610100900460ff1660038111156113c9576113c961337c565b14156114175760405162461bcd60e51b815260206004820152601e60248201527f5075626c69632073616c6520697320616c7265616479206163746976652e00006044820152606401610b65565b601580546003919061ff00191661010083610db0565b610d0383838360405180602001604052806000815250611d60565b6000546001600160a01b031633146114725760405162461bcd60e51b8152600401610b65906133f5565b601055565b6000601054421161148f5750671bc16d674ec8000090565b6104b0601054426114a09190613565565b106114b1575066b1a2bc2ec5000090565b600061012c601054426114c49190613565565b6114ce9190613551565b90506114de61012c6104b0613551565b6114f766b1a2bc2ec50000671bc16d674ec80000613565565b6115019190613551565b61150b9082613508565b61151d90671bc16d674ec80000613565565b91505090565b600061152e60015490565b82106115885760405162461bcd60e51b815260206004820152602360248201527f455243373231413a20676c6f62616c20696e646578206f7574206f6620626f756044820152626e647360e81b6064820152608401610b65565b5090565b6000546001600160a01b031633146115b65760405162461bcd60e51b8152600401610b65906133f5565b610d0360148383612f4e565b6115d061012c6104b0613551565b6115e966b1a2bc2ec50000671bc16d674ec80000613565565b6115f39190613551565b81565b60006116018261247e565b5192915050565b60006001600160a01b0382166116745760405162461bcd60e51b815260206004820152602b60248201527f455243373231413a2062616c616e636520717565727920666f7220746865207a60448201526a65726f206164647265737360a81b6064820152608401610b65565b506001600160a01b03166000908152600560205260409020546001600160801b031690565b6000546001600160a01b031633146116c35760405162461bcd60e51b8152600401610b65906133f5565b6116cd6000612628565b565b6000546001600160a01b031633146116f95760405162461bcd60e51b8152600401610b65906133f5565b6001601554610100900460ff1660038111156117175761171761337c565b14156117655760405162461bcd60e51b815260206004820181905260248201527f44757463682041756374696f6e20697320616c7265616479206163746976652e6044820152606401610b65565b601580546001919061ff00191661010083610db0565b6040805180820190915260008082526020820152610a628261247e565b606060038054610a77906133ba565b6000546001600160a01b031633146117d15760405162461bcd60e51b8152600401610b65906133f5565b601255565b6000546001600160a01b031633146118005760405162461bcd60e51b8152600401610b65906133f5565b601380546001600160a01b0319166001600160a01b0392909216919091179055565b6001600160a01b03821633141561187b5760405162461bcd60e51b815260206004820152601a60248201527f455243373231413a20617070726f766520746f2063616c6c65720000000000006044820152606401610b65565b3360008181526007602090815260408083206001600160a01b03871680855290835292819020805460ff191686151590811790915590519081529192917f17307eab39ab6107e8899845ad3d59bd9653f200f220920489ca2b5937696c31910160405180910390a35050565b3233146119065760405162461bcd60e51b8152600401610b659061342a565b6002601554610100900460ff1660038111156119245761192461337c565b14801561193357506012544210155b61197f5760405162461bcd60e51b815260206004820152601a60248201527f50726573616c65206973206e6f742073746172746564207965740000000000006044820152606401610b65565b600260095414156119a25760405162461bcd60e51b8152600401610b659061348f565b6002600955600c54600f546119b8908590613477565b1115611a065760405162461bcd60e51b815260206004820152601b60248201527f52656163686564206d61782070726573616c6520737570706c792e00000000006044820152606401610b65565b600a5483611a1333611ea9565b611a1d9190613477565b1115611a3b5760405162461bcd60e51b8152600401610b65906134c6565b6040516bffffffffffffffffffffffff193360601b166020820152611a7a90603401604051602081830303815290604052805190602001208383610b8a565b611ab95760405162461bcd60e51b815260206004820152601060248201526f2737ba103bb434ba32b634b9ba32b21760811b6044820152606401610b65565b600f8054906000611ac9836134ed565b9190505550611ad833846123d9565b611aed61102b84670de0b6b3a7640000613508565b5050600160095550565b6000546001600160a01b03163314611b215760405162461bcd60e51b8152600401610b65906133f5565b60026009541415611b445760405162461bcd60e51b8152600401610b659061348f565b6002600955604051600090339047908381818185875af1925050503d8060008114611b8b576040519150601f19603f3d011682016040523d82523d6000602084013e611b90565b606091505b50509050806110305760405162461bcd60e51b815260206004820152601060248201526f2a3930b739b332b9103330b4b632b21760811b6044820152606401610b65565b323314611bf35760405162461bcd60e51b8152600401610b659061342a565b6003601554610100900460ff166003811115611c1157611c1161337c565b148015611c2057506011544210155b611c6c5760405162461bcd60e51b815260206004820152601e60248201527f5075626c69632073616c65206973206e6f7420737461727465642079657400006044820152606401610b65565b60026009541415611c8f5760405162461bcd60e51b8152600401610b659061348f565b60026009557f000000000000000000000000000000000000000000000000000000000000000081611cbf60015490565b611cc99190613477565b1115611d0c5760405162461bcd60e51b815260206004820152601260248201527172656163686564206d617820737570706c7960701b6044820152606401610b65565b600a5481611d1933611ea9565b611d239190613477565b1115611d415760405162461bcd60e51b8152600401610b65906134c6565b611d4b33826123d9565b61103061102b82671bc16d674ec80000613508565b611d6b848484612051565b611d7784848484612678565b611d935760405162461bcd60e51b8152600401610b659061357c565b50505050565b6060611da6826001541190565b611e0a5760405162461bcd60e51b815260206004820152602f60248201527f4552433732314d657461646174613a2055524920717565727920666f72206e6f60448201526e3732bc34b9ba32b73a103a37b5b2b760891b6064820152608401610b65565b60155460ff16611e4d57505060408051808201909152601b81527f68747470733a2f2f676174657761792e70696e6174612e636f6d2f0000000000602082015290565b6000611e57612777565b90506000815111611e775760405180602001604052806000815250611ea2565b80611e8184612786565b604051602001611e929291906135cf565b6040516020818303038152906040525b9392505050565b6000610a6282612884565b6000546001600160a01b03163314611ede5760405162461bcd60e51b8152600401610b65906133f5565b601155565b6000546001600160a01b03163314611f0d5760405162461bcd60e51b8152600401610b65906133f5565b6001600160a01b038116611f725760405162461bcd60e51b815260206004820152602660248201527f4f776e61626c653a206e6577206f776e657220697320746865207a65726f206160448201526564647265737360d01b6064820152608401610b65565b611f7b81612628565b50565b6040517f19457468657265756d205369676e6564204d6573736167653a0a3332000000006020820152603c8101829052600090605c01604051602081830303815290604052805190602001209050919050565b6000806000611fe08585612922565b91509150611fed81612992565b509392505050565b60008281526006602052604080822080546001600160a01b0319166001600160a01b0387811691821790925591518593918516917f8c5be1e5ebec7d5bd14f71427d1e84f3dd0314c0f7b2291e5b200ac8c7c3b92591a4505050565b600061205c8261247e565b80519091506000906001600160a01b0316336001600160a01b0316148061209357503361208884610afa565b6001600160a01b0316145b806120a5575081516120a59033610955565b90508061210f5760405162461bcd60e51b815260206004820152603260248201527f455243373231413a207472616e736665722063616c6c6572206973206e6f74206044820152711bdddb995c881b9bdc88185c1c1c9bdd995960721b6064820152608401610b65565b846001600160a01b031682600001516001600160a01b0316146121835760405162461bcd60e51b815260206004820152602660248201527f455243373231413a207472616e736665722066726f6d20696e636f72726563746044820152651037bbb732b960d11b6064820152608401610b65565b6001600160a01b0384166121e75760405162461bcd60e51b815260206004820152602560248201527f455243373231413a207472616e7366657220746f20746865207a65726f206164604482015264647265737360d81b6064820152608401610b65565b6121f76000848460000151611ff5565b6001600160a01b03851660009081526005602052604081208054600192906122299084906001600160801b031661360e565b82546101009290920a6001600160801b038181021990931691831602179091556001600160a01b0386166000908152600560205260408120805460019450909261227591859116613636565b82546001600160801b039182166101009390930a9283029190920219909116179055506040805180820182526001600160a01b03808716825267ffffffffffffffff428116602080850191825260008981526004909152948520935184549151909216600160a01b026001600160e01b031990911691909216171790556122fd846001613477565b6000818152600460205260409020549091506001600160a01b031661238f57612327816001541190565b1561238f5760408051808201825284516001600160a01b03908116825260208087015167ffffffffffffffff9081168285019081526000878152600490935294909120925183549451909116600160a01b026001600160e01b03199094169116179190911790555b83856001600160a01b0316876001600160a01b03167fddf252ad1be2c89b69c2b068fc378daa952ba7f163c4a11628f55a4df523b3ef60405160405180910390a45b505050505050565b6123f3828260405180602001604052806000815250612b4d565b5050565b803410156124405760405162461bcd60e51b81526020600482015260166024820152752732b2b2103a379039b2b7321036b7b9329022aa241760511b6044820152606401610b65565b80341115611f7b57336108fc6124568334613565565b6040518115909202916000818181858888f193505050501580156123f3573d6000803e3d6000fd5b604080518082019091526000808252602082015261249d826001541190565b6124fc5760405162461bcd60e51b815260206004820152602a60248201527f455243373231413a206f776e657220717565727920666f72206e6f6e657869736044820152693a32b73a103a37b5b2b760b11b6064820152608401610b65565b60007f0000000000000000000000000000000000000000000000000000000000000000831061255d5761254f7f000000000000000000000000000000000000000000000000000000000000000084613565565b61255a906001613477565b90505b825b8181106125c7576000818152600460209081526040918290208251808401909352546001600160a01b038116808452600160a01b90910467ffffffffffffffff1691830191909152156125b457949350505050565b50806125bf81613661565b91505061255f565b5060405162461bcd60e51b815260206004820152602f60248201527f455243373231413a20756e61626c6520746f2064657465726d696e652074686560448201526e1037bbb732b91037b3103a37b5b2b760891b6064820152608401610b65565b600080546001600160a01b038381166001600160a01b0319831681178455604051919092169283917f8be0079c531659141344cd1fd0a4f28419497f9722a3daafe3b4186f6b6457e09190a35050565b60006001600160a01b0384163b1561276b57604051630a85bd0160e11b81526001600160a01b0385169063150b7a02906126bc903390899088908890600401613678565b6020604051808303816000875af19250505080156126f7575060408051601f3d908101601f191682019092526126f4918101906136b5565b60015b612751573d808015612725576040519150601f19603f3d011682016040523d82523d6000602084013e61272a565b606091505b5080516127495760405162461bcd60e51b8152600401610b659061357c565b805181602001fd5b6001600160e01b031916630a85bd0160e11b14905061276f565b5060015b949350505050565b606060148054610a77906133ba565b6060816127aa5750506040805180820190915260018152600360fc1b602082015290565b8160005b81156127d457806127be816134ed565b91506127cd9050600a83613551565b91506127ae565b60008167ffffffffffffffff8111156127ef576127ef613260565b6040519080825280601f01601f191660200182016040528015612819576020820181803683370190505b5090505b841561276f5761282e600183613565565b915061283b600a8661353d565b612846906030613477565b60f81b81838151811061285b5761285b6136d2565b60200101906001600160f81b031916908160001a90535061287d600a86613551565b945061281d565b60006001600160a01b0382166128f65760405162461bcd60e51b815260206004820152603160248201527f455243373231413a206e756d626572206d696e74656420717565727920666f7260448201527020746865207a65726f206164647265737360781b6064820152608401610b65565b506001600160a01b0316600090815260056020526040902054600160801b90046001600160801b031690565b6000808251604114156129595760208301516040840151606085015160001a61294d87828585612e28565b9450945050505061298b565b8251604014156129835760208301516040840151612978868383612f15565b93509350505061298b565b506000905060025b9250929050565b60008160048111156129a6576129a661337c565b14156129af5750565b60018160048111156129c3576129c361337c565b1415612a115760405162461bcd60e51b815260206004820152601860248201527f45434453413a20696e76616c6964207369676e617475726500000000000000006044820152606401610b65565b6002816004811115612a2557612a2561337c565b1415612a735760405162461bcd60e51b815260206004820152601f60248201527f45434453413a20696e76616c6964207369676e6174757265206c656e677468006044820152606401610b65565b6003816004811115612a8757612a8761337c565b1415612ae05760405162461bcd60e51b815260206004820152602260248201527f45434453413a20696e76616c6964207369676e6174757265202773272076616c604482015261756560f01b6064820152608401610b65565b6004816004811115612af457612af461337c565b1415611f7b5760405162461bcd60e51b815260206004820152602260248201527f45434453413a20696e76616c6964207369676e6174757265202776272076616c604482015261756560f01b6064820152608401610b65565b6001546001600160a01b038416612bb05760405162461bcd60e51b815260206004820152602160248201527f455243373231413a206d696e7420746f20746865207a65726f206164647265736044820152607360f81b6064820152608401610b65565b612bbb816001541190565b15612c085760405162461bcd60e51b815260206004820152601d60248201527f455243373231413a20746f6b656e20616c7265616479206d696e7465640000006044820152606401610b65565b7f0000000000000000000000000000000000000000000000000000000000000000831115612c835760405162461bcd60e51b815260206004820152602260248201527f455243373231413a207175616e7469747920746f206d696e7420746f6f2068696044820152610ced60f31b6064820152608401610b65565b6001600160a01b0384166000908152600560209081526040918290208251808401845290546001600160801b038082168352600160801b9091041691810191909152815180830190925280519091908190612cdf908790613636565b6001600160801b03168152602001858360200151612cfd9190613636565b6001600160801b039081169091526001600160a01b0380881660008181526005602090815260408083208751978301518716600160801b0297909616969096179094558451808601865291825267ffffffffffffffff4281168386019081528883526004909552948120915182549451909516600160a01b026001600160e01b031990941694909216939093179190911790915582905b85811015612e1d5760405182906001600160a01b038916906000907fddf252ad1be2c89b69c2b068fc378daa952ba7f163c4a11628f55a4df523b3ef908290a4612de16000888488612678565b612dfd5760405162461bcd60e51b8152600401610b659061357c565b81612e07816134ed565b9250508080612e15906134ed565b915050612d94565b5060018190556123d1565b6000807f7fffffffffffffffffffffffffffffff5d576e7357a4501ddfe92f46681b20a0831115612e5f5750600090506003612f0c565b8460ff16601b14158015612e7757508460ff16601c14155b15612e885750600090506004612f0c565b6040805160008082526020820180845289905260ff881692820192909252606081018690526080810185905260019060a0016020604051602081039080840390855afa158015612edc573d6000803e3d6000fd5b5050604051601f1901519150506001600160a01b038116612f0557600060019250925050612f0c565b9150600090505b94509492505050565b6000806001600160ff1b03831681612f3260ff86901c601b613477565b9050612f4087828885612e28565b935093505050935093915050565b828054612f5a906133ba565b90600052602060002090601f016020900481019282612f7c5760008555612fc2565b82601f10612f955782800160ff19823516178555612fc2565b82800160010185558215612fc2579182015b82811115612fc2578235825591602001919060010190612fa7565b506115889291505b808211156115885760008155600101612fca565b6001600160e01b031981168114611f7b57600080fd5b60006020828403121561300657600080fd5b8135611ea281612fde565b60005b8381101561302c578181015183820152602001613014565b83811115611d935750506000910152565b60008151808452613055816020860160208601613011565b601f01601f19169290920160200192915050565b602081526000611ea2602083018461303d565b60006020828403121561308e57600080fd5b5035919050565b60008083601f8401126130a757600080fd5b50813567ffffffffffffffff8111156130bf57600080fd5b60208301915083602082850101111561298b57600080fd5b6000806000604084860312156130ec57600080fd5b83359250602084013567ffffffffffffffff81111561310a57600080fd5b61311686828701613095565b9497909650939450505050565b80356001600160a01b038116811461313a57600080fd5b919050565b6000806040838503121561315257600080fd5b61315b83613123565b946020939093013593505050565b60008060006060848603121561317e57600080fd5b61318784613123565b925061319560208501613123565b9150604084013590509250925092565b8035801515811461313a57600080fd5b6000602082840312156131c757600080fd5b611ea2826131a5565b600080602083850312156131e357600080fd5b823567ffffffffffffffff8111156131fa57600080fd5b61320685828601613095565b90969095509350505050565b60006020828403121561322457600080fd5b611ea282613123565b6000806040838503121561324057600080fd5b61324983613123565b9150613257602084016131a5565b90509250929050565b634e487b7160e01b600052604160045260246000fd5b6000806000806080858703121561328c57600080fd5b61329585613123565b93506132a360208601613123565b925060408501359150606085013567ffffffffffffffff808211156132c757600080fd5b818701915087601f8301126132db57600080fd5b8135818111156132ed576132ed613260565b604051601f8201601f19908116603f0116810190838211818310171561331557613315613260565b816040528281528a602084870101111561332e57600080fd5b82602086016020830137600060208483010152809550505050505092959194509250565b6000806040838503121561336557600080fd5b61336e83613123565b915061325760208401613123565b634e487b7160e01b600052602160045260246000fd5b60208101600483106133b457634e487b7160e01b600052602160045260246000fd5b91905290565b600181811c908216806133ce57607f821691505b602082108114156133ef57634e487b7160e01b600052602260045260246000fd5b50919050565b6020808252818101527f4f776e61626c653a2063616c6c6572206973206e6f7420746865206f776e6572604082015260600190565b6020808252601e908201527f5468652063616c6c657220697320616e6f7468657220636f6e74726163740000604082015260600190565b634e487b7160e01b600052601160045260246000fd5b6000821982111561348a5761348a613461565b500190565b6020808252601f908201527f5265656e7472616e637947756172643a207265656e7472616e742063616c6c00604082015260600190565b6020808252600d908201526c115e18d959591cc81b1a5b5a5d609a1b604082015260600190565b600060001982141561350157613501613461565b5060010190565b600081600019048311821515161561352257613522613461565b500290565b634e487b7160e01b600052601260045260246000fd5b60008261354c5761354c613527565b500690565b60008261356057613560613527565b500490565b60008282101561357757613577613461565b500390565b60208082526033908201527f455243373231413a207472616e7366657220746f206e6f6e204552433732315260408201527232b1b2b4bb32b91034b6b83632b6b2b73a32b960691b606082015260800190565b600083516135e1818460208801613011565b8351908301906135f5818360208801613011565b64173539b7b760d91b9101908152600501949350505050565b60006001600160801b038381169083168181101561362e5761362e613461565b039392505050565b60006001600160801b0380831681851680830382111561365857613658613461565b01949350505050565b60008161367057613670613461565b506000190190565b6001600160a01b03858116825284166020820152604081018390526080606082018190526000906136ab9083018461303d565b9695505050505050565b6000602082840312156136c757600080fd5b8151611ea281612fde565b634e487b7160e01b600052603260045260246000fdfea2646970667358221220a161db994d8bf80f7de91c48514c3c2a3e562af5e6b2c673011e2f849a2abbb664736f6c634300080a0033",
  "devdoc": {
    "kind": "dev",
    "methods": {
      "approve(address,uint256)": {
        "details": "See {IERC721-approve}."
      },
      "balanceOf(address)": {
        "details": "See {IERC721-balanceOf}."
      },
      "constructor": {
        "params": {
          "amountForAuctionSale_": "Amount for Dutch Auction mint",
          "amountForDevs_": "Amount for Presale mint",
          "amountForPresale_": "Amount for Presale mint",
          "collectionSize_": "NFT collection size",
          "maxBatchSize_": "Max size for ERC721A batch mint."
        }
      },
      "getApproved(uint256)": {
        "details": "See {IERC721-getApproved}."
      },
      "isApprovedForAll(address,address)": {
        "details": "See {IERC721-isApprovedForAll}."
      },
      "name()": {
        "details": "See {IERC721Metadata-name}."
      },
      "owner()": {
        "details": "Returns the address of the current owner."
      },
      "ownerOf(uint256)": {
        "details": "See {IERC721-ownerOf}."
      },
      "renounceOwnership()": {
        "details": "Leaves the contract without owner. It will not be possible to call `onlyOwner` functions anymore. Can only be called by the current owner. NOTE: Renouncing ownership will leave the contract without an owner, thereby removing any functionality that is only available to the owner."
      },
      "safeTransferFrom(address,address,uint256)": {
        "details": "See {IERC721-safeTransferFrom}."
      },
      "safeTransferFrom(address,address,uint256,bytes)": {
        "details": "See {IERC721-safeTransferFrom}."
      },
      "setApprovalForAll(address,bool)": {
        "details": "See {IERC721-setApprovalForAll}."
      },
      "supportsInterface(bytes4)": {
        "details": "See {IERC165-supportsInterface}."
      },
      "symbol()": {
        "details": "See {IERC721Metadata-symbol}."
      },
      "tokenByIndex(uint256)": {
        "details": "See {IERC721Enumerable-tokenByIndex}."
      },
      "tokenOfOwnerByIndex(address,uint256)": {
        "details": "See {IERC721Enumerable-tokenOfOwnerByIndex}. This read function is O(collectionSize). If calling from a separate contract, be sure to test gas first. It may also degrade with extremely large collection sizes (e.g >> 10000), test for your use case."
      },
      "tokenURI(uint256)": {
        "details": "See {IERC721Metadata-tokenURI}."
      },
      "totalSupply()": {
        "details": "See {IERC721Enumerable-totalSupply}."
      },
      "transferFrom(address,address,uint256)": {
        "details": "See {IERC721-transferFrom}."
      },
      "transferOwnership(address)": {
        "details": "Transfers ownership of the contract to a new account (`newOwner`). Can only be called by the current owner."
      }
    },
    "version": 1
  },
  "userdoc": {
    "kind": "user",
    "methods": {},
    "version": 1
  },
  "storageLayout": {
    "storage": [
      {
        "astId": 7,
        "contract": "contracts/Anero.sol:Anero",
        "label": "_owner",
        "offset": 0,
        "slot": "0",
        "type": "t_address"
      },
      {
        "astId": 2096,
        "contract": "contracts/Anero.sol:Anero",
        "label": "currentIndex",
        "offset": 0,
        "slot": "1",
        "type": "t_uint256"
      },
      {
        "astId": 2102,
        "contract": "contracts/Anero.sol:Anero",
        "label": "_name",
        "offset": 0,
        "slot": "2",
        "type": "t_string_storage"
      },
      {
        "astId": 2104,
        "contract": "contracts/Anero.sol:Anero",
        "label": "_symbol",
        "offset": 0,
        "slot": "3",
        "type": "t_string_storage"
      },
      {
        "astId": 2109,
        "contract": "contracts/Anero.sol:Anero",
        "label": "_ownerships",
        "offset": 0,
        "slot": "4",
        "type": "t_mapping(t_uint256,t_struct(TokenOwnership)2088_storage)"
      },
      {
        "astId": 2114,
        "contract": "contracts/Anero.sol:Anero",
        "label": "_addressData",
        "offset": 0,
        "slot": "5",
        "type": "t_mapping(t_address,t_struct(AddressData)2093_storage)"
      },
      {
        "astId": 2118,
        "contract": "contracts/Anero.sol:Anero",
        "label": "_tokenApprovals",
        "offset": 0,
        "slot": "6",
        "type": "t_mapping(t_uint256,t_address)"
      },
      {
        "astId": 2124,
        "contract": "contracts/Anero.sol:Anero",
        "label": "_operatorApprovals",
        "offset": 0,
        "slot": "7",
        "type": "t_mapping(t_address,t_mapping(t_address,t_bool))"
      },
      {
        "astId": 3067,
        "contract": "contracts/Anero.sol:Anero",
        "label": "nextOwnerToExplicitlySet",
        "offset": 0,
        "slot": "8",
        "type": "t_uint256"
      },
      {
        "astId": 115,
        "contract": "contracts/Anero.sol:Anero",
        "label": "_status",
        "offset": 0,
        "slot": "9",
        "type": "t_uint256"
      },
      {
        "astId": 1319,
        "contract": "contracts/Anero.sol:Anero",
        "label": "maxAmountPerWallet",
        "offset": 0,
        "slot": "10",
        "type": "t_uint256"
      },
      {
        "astId": 1321,
        "contract": "contracts/Anero.sol:Anero",
        "label": "amountForAuctionSale",
        "offset": 0,
        "slot": "11",
        "type": "t_uint256"
      },
      {
        "astId": 1323,
        "contract": "contracts/Anero.sol:Anero",
        "label": "amountForPresale",
        "offset": 0,
        "slot": "12",
        "type": "t_uint256"
      },
      {
        "astId": 1325,
        "contract": "contracts/Anero.sol:Anero",
        "label": "amountForDevs",
        "offset": 0,
        "slot": "13",
        "type": "t_uint256"
      },
      {
        "astId": 1327,
        "contract": "contracts/Anero.sol:Anero",
        "label": "currentAuctionAmount",
        "offset": 0,
        "slot": "14",
        "type": "t_uint256"
      },
      {
        "astId": 1329,
        "contract": "contracts/Anero.sol:Anero",
        "label": "currentPresaleAmount",
        "offset": 0,
        "slot": "15",
        "type": "t_uint256"
      },
      {
        "astId": 1354,
        "contract": "contracts/Anero.sol:Anero",
        "label": "auctionSaleStartTime",
        "offset": 0,
        "slot": "16",
        "type": "t_uint256"
      },
      {
        "astId": 1356,
        "contract": "contracts/Anero.sol:Anero",
        "label": "publicSaleStartTime",
        "offset": 0,
        "slot": "17",
        "type": "t_uint256"
      },
      {
        "astId": 1358,
        "contract": "contracts/Anero.sol:Anero",
        "label": "preSaleStartTime",
        "offset": 0,
        "slot": "18",
        "type": "t_uint256"
      },
      {
        "astId": 1366,
        "contract": "contracts/Anero.sol:Anero",
        "label": "preSaleSigner",
        "offset": 0,
        "slot": "19",
        "type": "t_address"
      },
      {
        "astId": 1368,
        "contract": "contracts/Anero.sol:Anero",
        "label": "_baseTokenURI",
        "offset": 0,
        "slot": "20",
        "type": "t_string_storage"
      },
      {
        "astId": 1370,
        "contract": "contracts/Anero.sol:Anero",
        "label": "reveal",
        "offset": 0,
        "slot": "21",
        "type": "t_bool"
      },
      {
        "astId": 1380,
        "contract": "contracts/Anero.sol:Anero",
        "label": "currentSalePhase",
        "offset": 1,
        "slot": "21",
        "type": "t_enum(SalePhase)1375"
      }
    ],
    "types": {
      "t_address": {
        "encoding": "inplace",
        "label": "address",
        "numberOfBytes": "20"
      },
      "t_bool": {
        "encoding": "inplace",
        "label": "bool",
        "numberOfBytes": "1"
      },
      "t_enum(SalePhase)1375": {
        "encoding": "inplace",
        "label": "enum Anero.SalePhase",
        "numberOfBytes": "1"
      },
      "t_mapping(t_address,t_bool)": {
        "encoding": "mapping",
        "key": "t_address",
        "label": "mapping(address => bool)",
        "numberOfBytes": "32",
        "value": "t_bool"
      },
      "t_mapping(t_address,t_mapping(t_address,t_bool))": {
        "encoding": "mapping",
        "key": "t_address",
        "label": "mapping(address => mapping(address => bool))",
        "numberOfBytes": "32",
        "value": "t_mapping(t_address,t_bool)"
      },
      "t_mapping(t_address,t_struct(AddressData)2093_storage)": {
        "encoding": "mapping",
        "key": "t_address",
        "label": "mapping(address => struct ERC721A.AddressData)",
        "numberOfBytes": "32",
        "value": "t_struct(AddressData)2093_storage"
      },
      "t_mapping(t_uint256,t_address)": {
        "encoding": "mapping",
        "key": "t_uint256",
        "label": "mapping(uint256 => address)",
        "numberOfBytes": "32",
        "value": "t_address"
      },
      "t_mapping(t_uint256,t_struct(TokenOwnership)2088_storage)": {
        "encoding": "mapping",
        "key": "t_uint256",
        "label": "mapping(uint256 => struct ERC721A.TokenOwnership)",
        "numberOfBytes": "32",
        "value": "t_struct(TokenOwnership)2088_storage"
      },
      "t_string_storage": {
        "encoding": "bytes",
        "label": "string",
        "numberOfBytes": "32"
      },
      "t_struct(AddressData)2093_storage": {
        "encoding": "inplace",
        "label": "struct ERC721A.AddressData",
        "members": [
          {
            "astId": 2090,
            "contract": "contracts/Anero.sol:Anero",
            "label": "balance",
            "offset": 0,
            "slot": "0",
            "type": "t_uint128"
          },
          {
            "astId": 2092,
            "contract": "contracts/Anero.sol:Anero",
            "label": "numberMinted",
            "offset": 16,
            "slot": "0",
            "type": "t_uint128"
          }
        ],
        "numberOfBytes": "32"
      },
      "t_struct(TokenOwnership)2088_storage": {
        "encoding": "inplace",
        "label": "struct ERC721A.TokenOwnership",
        "members": [
          {
            "astId": 2085,
            "contract": "contracts/Anero.sol:Anero",
            "label": "addr",
            "offset": 0,
            "slot": "0",
            "type": "t_address"
          },
          {
            "astId": 2087,
            "contract": "contracts/Anero.sol:Anero",
            "label": "startTimestamp",
            "offset": 20,
            "slot": "0",
            "type": "t_uint64"
          }
        ],
        "numberOfBytes": "32"
      },
      "t_uint128": {
        "encoding": "inplace",
        "label": "uint128",
        "numberOfBytes": "16"
      },
      "t_uint256": {
        "encoding": "inplace",
        "label": "uint256",
        "numberOfBytes": "32"
      },
      "t_uint64": {
        "encoding": "inplace",
        "label": "uint64",
        "numberOfBytes": "8"
      }
    }
  }
}