{
  "address": "0xE7E5BF9F974E097B5d6c38095ec49E0624D2b41D",
  "abi": [
    {
      "inputs": [
        {
          "internalType": "string",
          "name": "_baseURIString",
          "type": "string"
        },
        {
          "internalType": "string",
          "name": "_placeholder",
          "type": "string"
        },
        {
          "internalType": "uint16",
          "name": "maxBatchSize_",
          "type": "uint16"
        },
        {
          "internalType": "uint16",
          "name": "collectionSize_",
          "type": "uint16"
        },
        {
          "internalType": "uint16",
          "name": "amountForDevs_",
          "type": "uint16"
        }
      ],
      "stateMutability": "nonpayable",
      "type": "constructor"
    },
    {
      "anonymous": false,
      "inputs": [
        {
          "indexed": true,
          "internalType": "address",
          "name": "owner",
          "type": "address"
        },
        {
          "indexed": true,
          "internalType": "address",
          "name": "approved",
          "type": "address"
        },
        {
          "indexed": true,
          "internalType": "uint256",
          "name": "tokenId",
          "type": "uint256"
        }
      ],
      "name": "Approval",
      "type": "event"
    },
    {
      "anonymous": false,
      "inputs": [
        {
          "indexed": true,
          "internalType": "address",
          "name": "owner",
          "type": "address"
        },
        {
          "indexed": true,
          "internalType": "address",
          "name": "operator",
          "type": "address"
        },
        {
          "indexed": false,
          "internalType": "bool",
          "name": "approved",
          "type": "bool"
        }
      ],
      "name": "ApprovalForAll",
      "type": "event"
    },
    {
      "anonymous": false,
      "inputs": [
        {
          "indexed": true,
          "internalType": "address",
          "name": "previousOwner",
          "type": "address"
        },
        {
          "indexed": true,
          "internalType": "address",
          "name": "newOwner",
          "type": "address"
        }
      ],
      "name": "OwnershipTransferred",
      "type": "event"
    },
    {
      "anonymous": false,
      "inputs": [
        {
          "indexed": true,
          "internalType": "address",
          "name": "from",
          "type": "address"
        },
        {
          "indexed": true,
          "internalType": "address",
          "name": "to",
          "type": "address"
        },
        {
          "indexed": true,
          "internalType": "uint256",
          "name": "tokenId",
          "type": "uint256"
        }
      ],
      "name": "Transfer",
      "type": "event"
    },
    {
      "inputs": [],
      "name": "amountForDevs",
      "outputs": [
        {
          "internalType": "uint16",
          "name": "",
          "type": "uint16"
        }
      ],
      "stateMutability": "view",
      "type": "function"
    },
    {
      "inputs": [
        {
          "internalType": "address",
          "name": "to",
          "type": "address"
        },
        {
          "internalType": "uint256",
          "name": "tokenId",
          "type": "uint256"
        }
      ],
      "name": "approve",
      "outputs": [],
      "stateMutability": "nonpayable",
      "type": "function"
    },
    {
      "inputs": [
        {
          "internalType": "address",
          "name": "owner",
          "type": "address"
        }
      ],
      "name": "balanceOf",
      "outputs": [
        {
          "internalType": "uint256",
          "name": "",
          "type": "uint256"
        }
      ],
      "stateMutability": "view",
      "type": "function"
    },
    {
      "inputs": [],
      "name": "currentDevMintAmount",
      "outputs": [
        {
          "internalType": "uint16",
          "name": "",
          "type": "uint16"
        }
      ],
      "stateMutability": "view",
      "type": "function"
    },
    {
      "inputs": [
        {
          "internalType": "uint16",
          "name": "quantity",
          "type": "uint16"
        }
      ],
      "name": "devMint",
      "outputs": [],
      "stateMutability": "nonpayable",
      "type": "function"
    },
    {
      "inputs": [
        {
          "internalType": "uint256",
          "name": "tokenId",
          "type": "uint256"
        }
      ],
      "name": "getApproved",
      "outputs": [
        {
          "internalType": "address",
          "name": "",
          "type": "address"
        }
      ],
      "stateMutability": "view",
      "type": "function"
    },
    {
      "inputs": [],
      "name": "getCurrentSaleMode",
      "outputs": [
        {
          "internalType": "enum AneroToken.SalePhase",
          "name": "",
          "type": "uint8"
        }
      ],
      "stateMutability": "view",
      "type": "function"
    },
    {
      "inputs": [
        {
          "internalType": "uint256",
          "name": "tokenId",
          "type": "uint256"
        }
      ],
      "name": "getOwnershipData",
      "outputs": [
        {
          "components": [
            {
              "internalType": "address",
              "name": "addr",
              "type": "address"
            },
            {
              "internalType": "uint64",
              "name": "startTimestamp",
              "type": "uint64"
            }
          ],
          "internalType": "struct ERC721A.TokenOwnership",
          "name": "",
          "type": "tuple"
        }
      ],
      "stateMutability": "view",
      "type": "function"
    },
    {
      "inputs": [
        {
          "internalType": "address",
          "name": "owner",
          "type": "address"
        },
        {
          "internalType": "address",
          "name": "operator",
          "type": "address"
        }
      ],
      "name": "isApprovedForAll",
      "outputs": [
        {
          "internalType": "bool",
          "name": "",
          "type": "bool"
        }
      ],
      "stateMutability": "view",
      "type": "function"
    },
    {
      "inputs": [],
      "name": "limit1",
      "outputs": [
        {
          "internalType": "uint8",
          "name": "",
          "type": "uint8"
        }
      ],
      "stateMutability": "view",
      "type": "function"
    },
    {
      "inputs": [],
      "name": "limit2",
      "outputs": [
        {
          "internalType": "uint8",
          "name": "",
          "type": "uint8"
        }
      ],
      "stateMutability": "view",
      "type": "function"
    },
    {
      "inputs": [],
      "name": "name",
      "outputs": [
        {
          "internalType": "string",
          "name": "",
          "type": "string"
        }
      ],
      "stateMutability": "view",
      "type": "function"
    },
    {
      "inputs": [],
      "name": "nextOwnerToExplicitlySet",
      "outputs": [
        {
          "internalType": "uint256",
          "name": "",
          "type": "uint256"
        }
      ],
      "stateMutability": "view",
      "type": "function"
    },
    {
      "inputs": [
        {
          "internalType": "address",
          "name": "owner",
          "type": "address"
        }
      ],
      "name": "numberMinted",
      "outputs": [
        {
          "internalType": "uint256",
          "name": "",
          "type": "uint256"
        }
      ],
      "stateMutability": "view",
      "type": "function"
    },
    {
      "inputs": [],
      "name": "owner",
      "outputs": [
        {
          "internalType": "address",
          "name": "",
          "type": "address"
        }
      ],
      "stateMutability": "view",
      "type": "function"
    },
    {
      "inputs": [
        {
          "internalType": "uint256",
          "name": "tokenId",
          "type": "uint256"
        }
      ],
      "name": "ownerOf",
      "outputs": [
        {
          "internalType": "address",
          "name": "",
          "type": "address"
        }
      ],
      "stateMutability": "view",
      "type": "function"
    },
    {
      "inputs": [
        {
          "internalType": "uint8",
          "name": "quantity",
          "type": "uint8"
        },
        {
          "internalType": "bytes",
          "name": "signature",
          "type": "bytes"
        }
      ],
      "name": "preSaleMint",
      "outputs": [],
      "stateMutability": "payable",
      "type": "function"
    },
    {
      "inputs": [],
      "name": "preSalePrice",
      "outputs": [
        {
          "internalType": "uint256",
          "name": "",
          "type": "uint256"
        }
      ],
      "stateMutability": "view",
      "type": "function"
    },
    {
      "inputs": [],
      "name": "preSaleStartTime",
      "outputs": [
        {
          "internalType": "uint256",
          "name": "",
          "type": "uint256"
        }
      ],
      "stateMutability": "view",
      "type": "function"
    },
    {
      "inputs": [
        {
          "internalType": "uint8",
          "name": "quantity",
          "type": "uint8"
        },
        {
          "internalType": "bytes",
          "name": "signature",
          "type": "bytes"
        }
      ],
      "name": "raffleSaleMint",
      "outputs": [],
      "stateMutability": "payable",
      "type": "function"
    },
    {
      "inputs": [],
      "name": "raffleSalePrice",
      "outputs": [
        {
          "internalType": "uint256",
          "name": "",
          "type": "uint256"
        }
      ],
      "stateMutability": "view",
      "type": "function"
    },
    {
      "inputs": [],
      "name": "raffleSaleStartTime",
      "outputs": [
        {
          "internalType": "uint256",
          "name": "",
          "type": "uint256"
        }
      ],
      "stateMutability": "view",
      "type": "function"
    },
    {
      "inputs": [],
      "name": "renounceOwnership",
      "outputs": [],
      "stateMutability": "nonpayable",
      "type": "function"
    },
    {
      "inputs": [
        {
          "internalType": "uint8",
          "name": "quantity",
          "type": "uint8"
        },
        {
          "internalType": "bytes",
          "name": "signature",
          "type": "bytes"
        }
      ],
      "name": "reservedSaleMint",
      "outputs": [],
      "stateMutability": "payable",
      "type": "function"
    },
    {
      "inputs": [],
      "name": "reservedSalePrice",
      "outputs": [
        {
          "internalType": "uint256",
          "name": "",
          "type": "uint256"
        }
      ],
      "stateMutability": "view",
      "type": "function"
    },
    {
      "inputs": [],
      "name": "reservedSaleStartTime",
      "outputs": [
        {
          "internalType": "uint256",
          "name": "",
          "type": "uint256"
        }
      ],
      "stateMutability": "view",
      "type": "function"
    },
    {
      "inputs": [],
      "name": "reveal",
      "outputs": [
        {
          "internalType": "bool",
          "name": "",
          "type": "bool"
        }
      ],
      "stateMutability": "view",
      "type": "function"
    },
    {
      "inputs": [
        {
          "internalType": "address",
          "name": "from",
          "type": "address"
        },
        {
          "internalType": "address",
          "name": "to",
          "type": "address"
        },
        {
          "internalType": "uint256",
          "name": "tokenId",
          "type": "uint256"
        }
      ],
      "name": "safeTransferFrom",
      "outputs": [],
      "stateMutability": "nonpayable",
      "type": "function"
    },
    {
      "inputs": [
        {
          "internalType": "address",
          "name": "from",
          "type": "address"
        },
        {
          "internalType": "address",
          "name": "to",
          "type": "address"
        },
        {
          "internalType": "uint256",
          "name": "tokenId",
          "type": "uint256"
        },
        {
          "internalType": "bytes",
          "name": "_data",
          "type": "bytes"
        }
      ],
      "name": "safeTransferFrom",
      "outputs": [],
      "stateMutability": "nonpayable",
      "type": "function"
    },
    {
      "inputs": [],
      "name": "saleEnabled",
      "outputs": [
        {
          "internalType": "bool",
          "name": "",
          "type": "bool"
        }
      ],
      "stateMutability": "view",
      "type": "function"
    },
    {
      "inputs": [
        {
          "internalType": "uint16",
          "name": "_amountForDevs",
          "type": "uint16"
        }
      ],
      "name": "setAmountForDevs",
      "outputs": [],
      "stateMutability": "nonpayable",
      "type": "function"
    },
    {
      "inputs": [
        {
          "internalType": "address",
          "name": "operator",
          "type": "address"
        },
        {
          "internalType": "bool",
          "name": "approved",
          "type": "bool"
        }
      ],
      "name": "setApprovalForAll",
      "outputs": [],
      "stateMutability": "nonpayable",
      "type": "function"
    },
    {
      "inputs": [
        {
          "internalType": "string",
          "name": "baseURI",
          "type": "string"
        }
      ],
      "name": "setBaseURI",
      "outputs": [],
      "stateMutability": "nonpayable",
      "type": "function"
    },
    {
      "inputs": [
        {
          "internalType": "uint8",
          "name": "_limit1",
          "type": "uint8"
        },
        {
          "internalType": "uint8",
          "name": "_limit2",
          "type": "uint8"
        }
      ],
      "name": "setLimits",
      "outputs": [],
      "stateMutability": "nonpayable",
      "type": "function"
    },
    {
      "inputs": [
        {
          "internalType": "string",
          "name": "_uri",
          "type": "string"
        }
      ],
      "name": "setPlaceHolderURI",
      "outputs": [],
      "stateMutability": "nonpayable",
      "type": "function"
    },
    {
      "inputs": [
        {
          "internalType": "uint256",
          "name": "_preSalePrice",
          "type": "uint256"
        }
      ],
      "name": "setPreSalePrice",
      "outputs": [],
      "stateMutability": "nonpayable",
      "type": "function"
    },
    {
      "inputs": [
        {
          "internalType": "uint256",
          "name": "_raffleSalePrice",
          "type": "uint256"
        }
      ],
      "name": "setRaffleSalePrice",
      "outputs": [],
      "stateMutability": "nonpayable",
      "type": "function"
    },
    {
      "inputs": [
        {
          "internalType": "uint256",
          "name": "_reservedSalePrice",
          "type": "uint256"
        }
      ],
      "name": "setReservedSalePrice",
      "outputs": [],
      "stateMutability": "nonpayable",
      "type": "function"
    },
    {
      "inputs": [
        {
          "internalType": "bool",
          "name": "_reveal",
          "type": "bool"
        }
      ],
      "name": "setReveal",
      "outputs": [],
      "stateMutability": "nonpayable",
      "type": "function"
    },
    {
      "inputs": [
        {
          "internalType": "address",
          "name": "_presaleSigner1",
          "type": "address"
        },
        {
          "internalType": "address",
          "name": "_presaleSigner2",
          "type": "address"
        },
        {
          "internalType": "address",
          "name": "_raffleSaleSigner",
          "type": "address"
        },
        {
          "internalType": "address",
          "name": "_reservedSaleSigner",
          "type": "address"
        }
      ],
      "name": "setSigners",
      "outputs": [],
      "stateMutability": "nonpayable",
      "type": "function"
    },
    {
      "inputs": [
        {
          "internalType": "uint256",
          "name": "startTime",
          "type": "uint256"
        }
      ],
      "name": "startPreSaleAt",
      "outputs": [],
      "stateMutability": "nonpayable",
      "type": "function"
    },
    {
      "inputs": [
        {
          "internalType": "uint256",
          "name": "startTime",
          "type": "uint256"
        }
      ],
      "name": "startRaffleSaleAt",
      "outputs": [],
      "stateMutability": "nonpayable",
      "type": "function"
    },
    {
      "inputs": [
        {
          "internalType": "uint256",
          "name": "startTime",
          "type": "uint256"
        }
      ],
      "name": "startReservedSaleAt",
      "outputs": [],
      "stateMutability": "nonpayable",
      "type": "function"
    },
    {
      "inputs": [
        {
          "internalType": "bytes4",
          "name": "interfaceId",
          "type": "bytes4"
        }
      ],
      "name": "supportsInterface",
      "outputs": [
        {
          "internalType": "bool",
          "name": "",
          "type": "bool"
        }
      ],
      "stateMutability": "view",
      "type": "function"
    },
    {
      "inputs": [],
      "name": "symbol",
      "outputs": [
        {
          "internalType": "string",
          "name": "",
          "type": "string"
        }
      ],
      "stateMutability": "view",
      "type": "function"
    },
    {
      "inputs": [
        {
          "internalType": "bool",
          "name": "_enable",
          "type": "bool"
        }
      ],
      "name": "toggleSale",
      "outputs": [],
      "stateMutability": "nonpayable",
      "type": "function"
    },
    {
      "inputs": [
        {
          "internalType": "uint256",
          "name": "index",
          "type": "uint256"
        }
      ],
      "name": "tokenByIndex",
      "outputs": [
        {
          "internalType": "uint256",
          "name": "",
          "type": "uint256"
        }
      ],
      "stateMutability": "view",
      "type": "function"
    },
    {
      "inputs": [
        {
          "internalType": "address",
          "name": "owner",
          "type": "address"
        },
        {
          "internalType": "uint256",
          "name": "index",
          "type": "uint256"
        }
      ],
      "name": "tokenOfOwnerByIndex",
      "outputs": [
        {
          "internalType": "uint256",
          "name": "",
          "type": "uint256"
        }
      ],
      "stateMutability": "view",
      "type": "function"
    },
    {
      "inputs": [
        {
          "internalType": "uint256",
          "name": "tokenId",
          "type": "uint256"
        }
      ],
      "name": "tokenURI",
      "outputs": [
        {
          "internalType": "string",
          "name": "",
          "type": "string"
        }
      ],
      "stateMutability": "view",
      "type": "function"
    },
    {
      "inputs": [],
      "name": "totalSupply",
      "outputs": [
        {
          "internalType": "uint256",
          "name": "",
          "type": "uint256"
        }
      ],
      "stateMutability": "view",
      "type": "function"
    },
    {
      "inputs": [
        {
          "internalType": "address",
          "name": "from",
          "type": "address"
        },
        {
          "internalType": "address",
          "name": "to",
          "type": "address"
        },
        {
          "internalType": "uint256",
          "name": "tokenId",
          "type": "uint256"
        }
      ],
      "name": "transferFrom",
      "outputs": [],
      "stateMutability": "nonpayable",
      "type": "function"
    },
    {
      "inputs": [
        {
          "internalType": "address",
          "name": "newOwner",
          "type": "address"
        }
      ],
      "name": "transferOwnership",
      "outputs": [],
      "stateMutability": "nonpayable",
      "type": "function"
    },
    {
      "inputs": [
        {
          "internalType": "bytes",
          "name": "signature",
          "type": "bytes"
        },
        {
          "internalType": "address",
          "name": "signer",
          "type": "address"
        }
      ],
      "name": "verifySigner",
      "outputs": [
        {
          "internalType": "bool",
          "name": "",
          "type": "bool"
        }
      ],
      "stateMutability": "view",
      "type": "function"
    },
    {
      "inputs": [
        {
          "internalType": "address",
          "name": "_to",
          "type": "address"
        },
        {
          "internalType": "uint256",
          "name": "_amount",
          "type": "uint256"
        }
      ],
      "name": "withdrawMoney",
      "outputs": [],
      "stateMutability": "nonpayable",
      "type": "function"
    },
    {
      "inputs": [
        {
          "internalType": "address",
          "name": "_token",
          "type": "address"
        },
        {
          "internalType": "address",
          "name": "_to",
          "type": "address"
        },
        {
          "internalType": "uint256",
          "name": "_amount",
          "type": "uint256"
        }
      ],
      "name": "withdrawToken",
      "outputs": [],
      "stateMutability": "nonpayable",
      "type": "function"
    },
    {
      "stateMutability": "payable",
      "type": "receive"
    }
  ],
  "transactionHash": "0xdf982eecdd5d02dd79da1ff3e5286aa776bbaa35bba00b0f66a772e1cdee0729",
  "args": [
    "https://gateway.pinata.cloud/ipfs/QmchQb5AmN17JyLDMFimADLqvJ6o9iy3mJseDLQcwqxWcy/",
    "https://aneroverse.mypinata.cloud/ipfs/QmVG1SwPvMyVf3cYcnpFtsEfCY6gpASXz7wE1WFVozass3",
    20,
    7777,
    200
  ],
  "numDeployments": 1,
  "solcInputHash": "21e25034e855eefe42d32fc0bd80c37d",
  "bytecode": "0x60c06040526000600181905560085567013fbe85edc90000600e556701f161421c8e0000600f8190556010556017805463ffffff00191663020100001790553480156200004b57600080fd5b506040516200424e3803806200424e8339810160408190526200006e9162000463565b6040518060400160405280600a815260200169416e65726f766572736560b01b81525060405180604001604052806005815260200164414e45524f60d81b8152508461ffff168461ffff16620000d3620000cd6200028460201b60201c565b62000288565b60008111620001405760405162461bcd60e51b815260206004820152602e60248201527f455243373231413a20636f6c6c656374696f6e206d757374206861766520612060448201526d6e6f6e7a65726f20737570706c7960901b60648201526084015b60405180910390fd5b60008211620001a25760405162461bcd60e51b815260206004820152602760248201527f455243373231413a206d61782062617463682073697a65206d757374206265206044820152666e6f6e7a65726f60c81b606482015260840162000137565b8351620001b7906002906020870190620002d8565b508251620001cd906003906020860190620002d8565b5060a0919091526080819052600160095561ffff8416111591506200023790505760405162461bcd60e51b815260206004820152601360248201527f45786365656473204d617820537570706c792e00000000000000000000000000604482015260640162000137565b84516200024c906015906020880190620002d8565b50835162000262906016906020870190620002d8565b50600a805461ffff191661ffff92909216919091179055506200054292505050565b3390565b600080546001600160a01b038381166001600160a01b0319831681178455604051919092169283917f8be0079c531659141344cd1fd0a4f28419497f9722a3daafe3b4186f6b6457e09190a35050565b828054620002e69062000505565b90600052602060002090601f0160209004810192826200030a576000855562000355565b82601f106200032557805160ff191683800117855562000355565b8280016001018555821562000355579182015b828111156200035557825182559160200191906001019062000338565b506200036392915062000367565b5090565b5b8082111562000363576000815560010162000368565b634e487b7160e01b600052604160045260246000fd5b600082601f830112620003a657600080fd5b81516001600160401b0380821115620003c357620003c36200037e565b604051601f8301601f19908116603f01168101908282118183101715620003ee57620003ee6200037e565b816040528381526020925086838588010111156200040b57600080fd5b600091505b838210156200042f578582018301518183018401529082019062000410565b83821115620004415760008385830101525b9695505050505050565b805161ffff811681146200045e57600080fd5b919050565b600080600080600060a086880312156200047c57600080fd5b85516001600160401b03808211156200049457600080fd5b620004a289838a0162000394565b96506020880151915080821115620004b957600080fd5b50620004c88882890162000394565b945050620004d9604087016200044b565b9250620004e9606087016200044b565b9150620004f9608087016200044b565b90509295509295909350565b600181811c908216806200051a57607f821691505b602082108114156200053c57634e487b7160e01b600052602260045260246000fd5b50919050565b60805160a051613ca0620005ae60003960008181611eca01528181611ef901528181611f8801528181611fbd015281816128cb015281816128f50152612dcc01526000818161112c015281816115f0015281816119a401528181611c360152611e050152613ca06000f3fe6080604052600436106103545760003560e01c8063893a8f5b116101c6578063c367ab4a116100f7578063e757c17d11610095578063f274c8971161006f578063f274c897146109e7578063f2fde38b14610a07578063f64a8f2614610a27578063fbe1aa5114610a4757600080fd5b8063e757c17d14610972578063e8d8b7f914610988578063e985e9c51461099e57600080fd5b8063cee232bb116100d1578063cee232bb146108e9578063d7224ba01461091c578063dc33e68114610932578063e3528aad1461095257600080fd5b8063c367ab4a14610887578063c6973b35146108a7578063c87b56dd146108c957600080fd5b8063a22cb46511610164578063b88d4fde1161013e578063b88d4fde14610821578063b9ae46ab14610841578063b9be217814610861578063befc81201461087457600080fd5b8063a22cb465146107c7578063a475b5dd146107e7578063aab402e51461080157600080fd5b806392537e30116101a057806392537e301461073e57806395d89b411461077257806397b9447d146107875780639e6b90e6146107a757600080fd5b8063893a8f5b146106bd5780638da5cb5b146106d35780639231ab2a146106f157600080fd5b806338d14f6f116102a05780636ca6fa0c1161023e57806371b9b6461161021857806371b9b6461461063e57806377a73a081461065d5780637d7eee421461067d578063881b72db1461069d57600080fd5b80636ca6fa0c146105f357806370a0823114610609578063715018a61461062957600080fd5b80634f6ccce71161027a5780634f6ccce71461057357806355f804b3146105935780635cafa741146105b35780636352211e146105d357600080fd5b806338d14f6f146105205780633c8e53521461054057806342842e0e1461055357600080fd5b80630e02d65f1161030d5780632251cbe7116102e75780632251cbe7146104a057806323b872dd146104c05780632a3f300c146104e05780632f745c591461050057600080fd5b80630e02d65f1461045557806318160ddd146104755780631ffa0a7b1461048a57600080fd5b806301e336671461036057806301ffc9a71461038257806306d65af3146103b757806306fdde03146103db578063081812fc146103fd578063095ea7b31461043557600080fd5b3661035b57005b600080fd5b34801561036c57600080fd5b5061038061037b3660046133e6565b610a62565b005b34801561038e57600080fd5b506103a261039d366004613438565b610b41565b60405190151581526020015b60405180910390f35b3480156103c357600080fd5b506103cd600b5481565b6040519081526020016103ae565b3480156103e757600080fd5b506103f0610bae565b6040516103ae91906134ad565b34801561040957600080fd5b5061041d6104183660046134c0565b610c40565b6040516001600160a01b0390911681526020016103ae565b34801561044157600080fd5b506103806104503660046134d9565b610ccb565b34801561046157600080fd5b506103806104703660046134c0565b610de3565b34801561048157600080fd5b506001546103cd565b34801561049657600080fd5b506103cd60105481565b3480156104ac57600080fd5b506103806104bb366004613503565b610e12565b3480156104cc57600080fd5b506103806104db3660046133e6565b610e8c565b3480156104ec57600080fd5b506103806104fb366004613565565b610e97565b34801561050c57600080fd5b506103cd61051b3660046134d9565b610ed4565b34801561052c57600080fd5b5061038061053b3660046134c0565b61104c565b61038061054e3660046135d4565b61107b565b34801561055f57600080fd5b5061038061056e3660046133e6565b6112d4565b34801561057f57600080fd5b506103cd61058e3660046134c0565b6112ef565b34801561059f57600080fd5b506103806105ae3660046136b1565b611358565b3480156105bf57600080fd5b506103806105ce3660046134c0565b611399565b3480156105df57600080fd5b5061041d6105ee3660046134c0565b6113c8565b3480156105ff57600080fd5b506103cd600c5481565b34801561061557600080fd5b506103cd6106243660046136f9565b6113da565b34801561063557600080fd5b5061038061146b565b34801561064a57600080fd5b506017546103a290610100900460ff1681565b34801561066957600080fd5b506103806106783660046136b1565b6114a1565b34801561068957600080fd5b506103806106983660046134c0565b6114de565b3480156106a957600080fd5b506103806106b8366004613714565b61150d565b3480156106c957600080fd5b506103cd600f5481565b3480156106df57600080fd5b506000546001600160a01b031661041d565b3480156106fd57600080fd5b5061071161070c3660046134c0565b611569565b6040805182516001600160a01b031681526020928301516001600160401b031692810192909252016103ae565b34801561074a57600080fd5b50600a5461075f9062010000900461ffff1681565b60405161ffff90911681526020016103ae565b34801561077e57600080fd5b506103f0611586565b34801561079357600080fd5b506103806107a23660046134c0565b611595565b3480156107b357600080fd5b506103806107c2366004613747565b6115c4565b3480156107d357600080fd5b506103806107e236600461376b565b611670565b3480156107f357600080fd5b506017546103a29060ff1681565b34801561080d57600080fd5b5061038061081c366004613565565b611735565b34801561082d57600080fd5b5061038061083c3660046137a2565b6117ca565b34801561084d57600080fd5b506103a261085c36600461381d565b611803565b61038061086f3660046135d4565b6118fa565b6103806108823660046135d4565b611b85565b34801561089357600080fd5b506103806108a2366004613747565b611dd9565b3480156108b357600080fd5b506108bc612057565b6040516103ae9190613886565b3480156108d557600080fd5b506103f06108e43660046134c0565b6120a2565b3480156108f557600080fd5b5060175461090a906301000000900460ff1681565b60405160ff90911681526020016103ae565b34801561092857600080fd5b506103cd60085481565b34801561093e57600080fd5b506103cd61094d3660046136f9565b61220b565b34801561095e57600080fd5b5061038061096d3660046134c0565b612216565b34801561097e57600080fd5b506103cd600e5481565b34801561099457600080fd5b506103cd600d5481565b3480156109aa57600080fd5b506103a26109b93660046138ae565b6001600160a01b03918216600090815260076020908152604080832093909416825291909152205460ff1690565b3480156109f357600080fd5b50610380610a023660046134d9565b612245565b348015610a1357600080fd5b50610380610a223660046136f9565b61232b565b348015610a3357600080fd5b5060175461090a9062010000900460ff1681565b348015610a5357600080fd5b50600a5461075f9061ffff1681565b6000546001600160a01b03163314610a955760405162461bcd60e51b8152600401610a8c906138d8565b60405180910390fd5b60026009541415610ab85760405162461bcd60e51b8152600401610a8c9061390d565b60026009556040516323b872dd60e01b81523060048201526001600160a01b038381166024830152604482018390528416906323b872dd906064016020604051808303816000875af1158015610b12573d6000803e3d6000fd5b505050506040513d601f19601f82011682018060405250810190610b369190613944565b505060016009555050565b60006001600160e01b031982166380ac58cd60e01b1480610b7257506001600160e01b03198216635b5e139f60e01b145b80610b8d57506001600160e01b0319821663780e9d6360e01b145b80610ba857506301ffc9a760e01b6001600160e01b03198316145b92915050565b606060028054610bbd90613961565b80601f0160208091040260200160405190810160405280929190818152602001828054610be990613961565b8015610c365780601f10610c0b57610100808354040283529160200191610c36565b820191906000526020600020905b815481529060010190602001808311610c1957829003601f168201915b5050505050905090565b6000610c4d826001541190565b610caf5760405162461bcd60e51b815260206004820152602d60248201527f455243373231413a20617070726f76656420717565727920666f72206e6f6e6560448201526c3c34b9ba32b73a103a37b5b2b760991b6064820152608401610a8c565b506000908152600660205260409020546001600160a01b031690565b6000610cd6826113c8565b9050806001600160a01b0316836001600160a01b03161415610d455760405162461bcd60e51b815260206004820152602260248201527f455243373231413a20617070726f76616c20746f2063757272656e74206f776e60448201526132b960f11b6064820152608401610a8c565b336001600160a01b0382161480610d615750610d6181336109b9565b610dd35760405162461bcd60e51b815260206004820152603960248201527f455243373231413a20617070726f76652063616c6c6572206973206e6f74206f60448201527f776e6572206e6f7220617070726f76656420666f7220616c6c000000000000006064820152608401610a8c565b610dde8383836123c6565b505050565b6000546001600160a01b03163314610e0d5760405162461bcd60e51b8152600401610a8c906138d8565b600c55565b6000546001600160a01b03163314610e3c5760405162461bcd60e51b8152600401610a8c906138d8565b601180546001600160a01b039586166001600160a01b0319918216179091556012805494861694821694909417909355601380549285169284169290921790915560148054919093169116179055565b610dde838383612422565b6000546001600160a01b03163314610ec15760405162461bcd60e51b8152600401610a8c906138d8565b6017805460ff1916911515919091179055565b6000610edf836113da565b8210610f385760405162461bcd60e51b815260206004820152602260248201527f455243373231413a206f776e657220696e646578206f7574206f6620626f756e604482015261647360f01b6064820152608401610a8c565b6000610f4360015490565b905060008060005b83811015610fec576000818152600460209081526040918290208251808401909352546001600160a01b038116808452600160a01b9091046001600160401b03169183019190915215610f9d57805192505b876001600160a01b0316836001600160a01b03161415610fd95786841415610fcb57509350610ba892505050565b83610fd5816139b2565b9450505b5080610fe4816139b2565b915050610f4b565b5060405162461bcd60e51b815260206004820152602e60248201527f455243373231413a20756e61626c6520746f2067657420746f6b656e206f662060448201526d0deeedccae440c4f240d2dcc8caf60931b6064820152608401610a8c565b6000546001600160a01b031633146110765760405162461bcd60e51b8152600401610a8c906138d8565b600f55565b32331461109a5760405162461bcd60e51b8152600401610a8c906139cd565b60026110a4612057565b60038111156110b5576110b5613870565b146111025760405162461bcd60e51b815260206004820152601a60248201527f526166666c652073616c65206973206e6f74206163746976652e0000000000006044820152606401610a8c565b600260095414156111255760405162461bcd60e51b8152600401610a8c9061390d565b60026009557f000000000000000000000000000000000000000000000000000000000000000060ff841661115860015490565b6111629190613a04565b11156111805760405162461bcd60e51b8152600401610a8c90613a1c565b60135461119990839083906001600160a01b0316611803565b6111e55760405162461bcd60e51b815260206004820152601f60248201527f596f7520617265206e6f7420726166666c652073616c65206d656d6265722e006044820152606401610a8c565b6017543360009081526018602090815260408083206002845290915290205460ff6201000090920482169161121c91869116613a48565b60ff16111561125e5760405162461bcd60e51b815260206004820152600e60248201526d22bc31b2b2b239903634b6b4ba1760911b6044820152606401610a8c565b336000908152601860209081526040808320600284529091528120805485929061128c90849060ff16613a48565b92506101000a81548160ff021916908360ff1602179055506112b1338460ff166127a8565b6112ca8360ff16600f546112c59190613a6d565b6127c2565b5050600160095550565b610dde838383604051806020016040528060008152506117ca565b60006112fa60015490565b82106113545760405162461bcd60e51b815260206004820152602360248201527f455243373231413a20676c6f62616c20696e646578206f7574206f6620626f756044820152626e647360e81b6064820152608401610a8c565b5090565b6000546001600160a01b031633146113825760405162461bcd60e51b8152600401610a8c906138d8565b805161139590601590602084019061333a565b5050565b6000546001600160a01b031633146113c35760405162461bcd60e51b8152600401610a8c906138d8565b601055565b60006113d382612849565b5192915050565b60006001600160a01b0382166114465760405162461bcd60e51b815260206004820152602b60248201527f455243373231413a2062616c616e636520717565727920666f7220746865207a60448201526a65726f206164647265737360a81b6064820152608401610a8c565b506001600160a01b03166000908152600560205260409020546001600160801b031690565b6000546001600160a01b031633146114955760405162461bcd60e51b8152600401610a8c906138d8565b61149f60006129f2565b565b6000546001600160a01b031633146114cb5760405162461bcd60e51b8152600401610a8c906138d8565b805161139590601690602084019061333a565b6000546001600160a01b031633146115085760405162461bcd60e51b8152600401610a8c906138d8565b600e55565b6000546001600160a01b031633146115375760405162461bcd60e51b8152600401610a8c906138d8565b6017805463ffff000019166201000060ff9485160263ff00000019161763010000009290931691909102919091179055565b6040805180820190915260008082526020820152610ba882612849565b606060038054610bbd90613961565b6000546001600160a01b031633146115bf5760405162461bcd60e51b8152600401610a8c906138d8565b600b55565b6000546001600160a01b031633146115ee5760405162461bcd60e51b8152600401610a8c906138d8565b7f00000000000000000000000000000000000000000000000000000000000000008161ffff1611156116585760405162461bcd60e51b815260206004820152601360248201527222bc31b2b2b2399026b0bc1029bab838363c9760691b6044820152606401610a8c565b600a805461ffff191661ffff92909216919091179055565b6001600160a01b0382163314156116c95760405162461bcd60e51b815260206004820152601a60248201527f455243373231413a20617070726f766520746f2063616c6c65720000000000006044820152606401610a8c565b3360008181526007602090815260408083206001600160a01b03871680855290835292819020805460ff191686151590811790915590519081529192917f17307eab39ab6107e8899845ad3d59bd9653f200f220920489ca2b5937696c31910160405180910390a35050565b6000546001600160a01b0316331461175f5760405162461bcd60e51b8152600401610a8c906138d8565b60175460ff61010090910416151581151514156117b05760405162461bcd60e51b815260206004820152600f60248201526e20b63932b0b23c9039b2ba3a32b21760891b6044820152606401610a8c565b601780549115156101000261ff0019909216919091179055565b6117d5848484612422565b6117e184848484612a42565b6117fd5760405162461bcd60e51b8152600401610a8c90613a8c565b50505050565b604080513360601b6bffffffffffffffffffffffff1916602080830191909152825160148184030181526034830184528051908201207f19457468657265756d205369676e6564204d6573736167653a0a3332000000006054840152607080840182905284518085039091018152609090930190935281519101206000919060006118c48288888080601f016020809104026020016040519081016040528093929190818152602001838380828437600092019190915250612b4192505050565b90506001600160a01b038116158015906118ef5750846001600160a01b0316816001600160a01b0316145b979650505050505050565b3233146119195760405162461bcd60e51b8152600401610a8c906139cd565b6001611923612057565b600381111561193457611934613870565b1461197a5760405162461bcd60e51b8152602060048201526016602482015275283932b9b0b6329034b9903737ba1030b1ba34bb329760511b6044820152606401610a8c565b6002600954141561199d5760405162461bcd60e51b8152600401610a8c9061390d565b60026009557f000000000000000000000000000000000000000000000000000000000000000060ff84166119d060015490565b6119da9190613a04565b11156119f85760405162461bcd60e51b8152600401610a8c90613a1c565b6017546012546201000090910460ff1690611a1f90849084906001600160a01b0316611803565b15611a3757506017546301000000900460ff16611aaf565b601154611a5090849084906001600160a01b0316611803565b15611a67575060175462010000900460ff16611aaf565b60405162461bcd60e51b815260206004820152601b60248201527f596f7520617265206e6f742070726573616c65206d656d6265722e00000000006044820152606401610a8c565b3360009081526018602090815260408083206001845290915290205460ff82811691611add91879116613a48565b60ff161115611b1e5760405162461bcd60e51b815260206004820152600d60248201526c115e18d959591cc81b1a5b5a5d609a1b6044820152606401610a8c565b3360009081526018602090815260408083206001845290915281208054869290611b4c90849060ff16613a48565b92506101000a81548160ff021916908360ff160217905550611b71338560ff166127a8565b610b368460ff16600e546112c59190613a6d565b323314611ba45760405162461bcd60e51b8152600401610a8c906139cd565b6003611bae612057565b6003811115611bbf57611bbf613870565b14611c0c5760405162461bcd60e51b815260206004820152601c60248201527f52657365727665642073616c65206973206e6f74206163746976652e000000006044820152606401610a8c565b60026009541415611c2f5760405162461bcd60e51b8152600401610a8c9061390d565b60026009557f000000000000000000000000000000000000000000000000000000000000000060ff8416611c6260015490565b611c6c9190613a04565b1115611c8a5760405162461bcd60e51b8152600401610a8c90613a1c565b601454611ca390839083906001600160a01b0316611803565b611cf95760405162461bcd60e51b815260206004820152602160248201527f596f7520617265206e6f742072657365727665642073616c65206d656d6265726044820152601760f91b6064820152608401610a8c565b6017543360009081526018602090815260408083206003845290915290205460ff62010000909204821691611d3091869116613a48565b60ff161115611d725760405162461bcd60e51b815260206004820152600e60248201526d22bc31b2b2b239903634b6b4ba1760911b6044820152606401610a8c565b3360009081526018602090815260408083206003845290915281208054859290611da090849060ff16613a48565b92506101000a81548160ff021916908360ff160217905550611dc5338460ff166127a8565b6112ca8360ff166010546112c59190613a6d565b6000546001600160a01b03163314611e035760405162461bcd60e51b8152600401610a8c906138d8565b7f00000000000000000000000000000000000000000000000000000000000000008161ffff16611e3260015490565b611e3c9190613a04565b1115611e5a5760405162461bcd60e51b8152600401610a8c90613a1c565b600a5461ffff80821691611e7691849162010000900416613adf565b61ffff161115611ec85760405162461bcd60e51b815260206004820152601860248201527f5265616368656420646576206d696e7420737570706c792e00000000000000006044820152606401610a8c565b7f00000000000000000000000000000000000000000000000000000000000000008161ffff161115611f8457611f227f000000000000000000000000000000000000000000000000000000000000000061ffff8316613b1b565b15611f845760405162461bcd60e51b815260206004820152602c60248201527f63616e206f6e6c79206d696e742061206d756c7469706c65206f66207468652060448201526b6d6178426174636853697a6560a01b6064820152608401610a8c565b60007f00000000000000000000000000000000000000000000000000000000000000008261ffff1611611fbb578161ffff16611fdd565b7f00000000000000000000000000000000000000000000000000000000000000005b90506000611fef8261ffff8516613b2f565b905060005b818110156120185761200633846127a8565b80612010816139b2565b915050611ff4565b5082600a60028282829054906101000a900461ffff166120389190613adf565b92506101000a81548161ffff021916908361ffff160217905550505050565b601754600090610100900460ff1661206f5750600090565b600d54421061207e5750600390565b600c54421061208d5750600290565b600b54421061209c5750600190565b50600090565b60606120af826001541190565b6121135760405162461bcd60e51b815260206004820152602f60248201527f4552433732314d657461646174613a2055524920717565727920666f72206e6f60448201526e3732bc34b9ba32b73a103a37b5b2b760891b6064820152608401610a8c565b60175460ff166121af576016805461212a90613961565b80601f016020809104026020016040519081016040528092919081815260200182805461215690613961565b80156121a35780601f10612178576101008083540402835291602001916121a3565b820191906000526020600020905b81548152906001019060200180831161218657829003601f168201915b50505050509050919050565b60006121b9612b65565b905060008151116121d95760405180602001604052806000815250612204565b806121e384612b74565b6040516020016121f4929190613b43565b6040516020818303038152906040525b9392505050565b6000610ba882612c71565b6000546001600160a01b031633146122405760405162461bcd60e51b8152600401610a8c906138d8565b600d55565b6000546001600160a01b0316331461226f5760405162461bcd60e51b8152600401610a8c906138d8565b600260095414156122925760405162461bcd60e51b8152600401610a8c9061390d565b60026009556040516000906001600160a01b0384169083908381818185875af1925050503d80600081146122e2576040519150601f19603f3d011682016040523d82523d6000602084013e6122e7565b606091505b50509050806112ca5760405162461bcd60e51b815260206004820152601060248201526f2a3930b739b332b9103330b4b632b21760811b6044820152606401610a8c565b6000546001600160a01b031633146123555760405162461bcd60e51b8152600401610a8c906138d8565b6001600160a01b0381166123ba5760405162461bcd60e51b815260206004820152602660248201527f4f776e61626c653a206e6577206f776e657220697320746865207a65726f206160448201526564647265737360d01b6064820152608401610a8c565b6123c3816129f2565b50565b60008281526006602052604080822080546001600160a01b0319166001600160a01b0387811691821790925591518593918516917f8c5be1e5ebec7d5bd14f71427d1e84f3dd0314c0f7b2291e5b200ac8c7c3b92591a4505050565b600061242d82612849565b80519091506000906001600160a01b0316336001600160a01b0316148061246457503361245984610c40565b6001600160a01b0316145b806124765750815161247690336109b9565b9050806124e05760405162461bcd60e51b815260206004820152603260248201527f455243373231413a207472616e736665722063616c6c6572206973206e6f74206044820152711bdddb995c881b9bdc88185c1c1c9bdd995960721b6064820152608401610a8c565b846001600160a01b031682600001516001600160a01b0316146125545760405162461bcd60e51b815260206004820152602660248201527f455243373231413a207472616e736665722066726f6d20696e636f72726563746044820152651037bbb732b960d11b6064820152608401610a8c565b6001600160a01b0384166125b85760405162461bcd60e51b815260206004820152602560248201527f455243373231413a207472616e7366657220746f20746865207a65726f206164604482015264647265737360d81b6064820152608401610a8c565b6125c860008484600001516123c6565b6001600160a01b03851660009081526005602052604081208054600192906125fa9084906001600160801b0316613b82565b82546101009290920a6001600160801b038181021990931691831602179091556001600160a01b0386166000908152600560205260408120805460019450909261264691859116613baa565b82546001600160801b039182166101009390930a9283029190920219909116179055506040805180820182526001600160a01b0380871682526001600160401b03428116602080850191825260008981526004909152948520935184549151909216600160a01b026001600160e01b031990911691909216171790556126cd846001613a04565b6000818152600460205260409020549091506001600160a01b031661275e576126f7816001541190565b1561275e5760408051808201825284516001600160a01b0390811682526020808701516001600160401b039081168285019081526000878152600490935294909120925183549451909116600160a01b026001600160e01b03199094169116179190911790555b83856001600160a01b0316876001600160a01b03167fddf252ad1be2c89b69c2b068fc378daa952ba7f163c4a11628f55a4df523b3ef60405160405180910390a45b505050505050565b611395828260405180602001604052806000815250612d0f565b8034101561280b5760405162461bcd60e51b81526020600482015260166024820152752732b2b2103a379039b2b7321036b7b9329022aa241760511b6044820152606401610a8c565b803411156123c357336108fc6128218334613bcc565b6040518115909202916000818181858888f19350505050158015611395573d6000803e3d6000fd5b6040805180820190915260008082526020820152612868826001541190565b6128c75760405162461bcd60e51b815260206004820152602a60248201527f455243373231413a206f776e657220717565727920666f72206e6f6e657869736044820152693a32b73a103a37b5b2b760b11b6064820152608401610a8c565b60007f000000000000000000000000000000000000000000000000000000000000000083106129285761291a7f000000000000000000000000000000000000000000000000000000000000000084613bcc565b612925906001613a04565b90505b825b818110612991576000818152600460209081526040918290208251808401909352546001600160a01b038116808452600160a01b9091046001600160401b0316918301919091521561297e57949350505050565b508061298981613be3565b91505061292a565b5060405162461bcd60e51b815260206004820152602f60248201527f455243373231413a20756e61626c6520746f2064657465726d696e652074686560448201526e1037bbb732b91037b3103a37b5b2b760891b6064820152608401610a8c565b600080546001600160a01b038381166001600160a01b0319831681178455604051919092169283917f8be0079c531659141344cd1fd0a4f28419497f9722a3daafe3b4186f6b6457e09190a35050565b60006001600160a01b0384163b15612b3557604051630a85bd0160e11b81526001600160a01b0385169063150b7a0290612a86903390899088908890600401613bfa565b6020604051808303816000875af1925050508015612ac1575060408051601f3d908101601f19168201909252612abe91810190613c37565b60015b612b1b573d808015612aef576040519150601f19603f3d011682016040523d82523d6000602084013e612af4565b606091505b508051612b135760405162461bcd60e51b8152600401610a8c90613a8c565b805181602001fd5b6001600160e01b031916630a85bd0160e11b149050612b39565b5060015b949350505050565b6000806000612b508585612fe9565b91509150612b5d81613059565b509392505050565b606060158054610bbd90613961565b606081612b985750506040805180820190915260018152600360fc1b602082015290565b8160005b8115612bc25780612bac816139b2565b9150612bbb9050600a83613b2f565b9150612b9c565b6000816001600160401b03811115612bdc57612bdc613626565b6040519080825280601f01601f191660200182016040528015612c06576020820181803683370190505b5090505b8415612b3957612c1b600183613bcc565b9150612c28600a86613b1b565b612c33906030613a04565b60f81b818381518110612c4857612c48613c54565b60200101906001600160f81b031916908160001a905350612c6a600a86613b2f565b9450612c0a565b60006001600160a01b038216612ce35760405162461bcd60e51b815260206004820152603160248201527f455243373231413a206e756d626572206d696e74656420717565727920666f7260448201527020746865207a65726f206164647265737360781b6064820152608401610a8c565b506001600160a01b0316600090815260056020526040902054600160801b90046001600160801b031690565b6001546001600160a01b038416612d725760405162461bcd60e51b815260206004820152602160248201527f455243373231413a206d696e7420746f20746865207a65726f206164647265736044820152607360f81b6064820152608401610a8c565b612d7d816001541190565b15612dca5760405162461bcd60e51b815260206004820152601d60248201527f455243373231413a20746f6b656e20616c7265616479206d696e7465640000006044820152606401610a8c565b7f0000000000000000000000000000000000000000000000000000000000000000831115612e455760405162461bcd60e51b815260206004820152602260248201527f455243373231413a207175616e7469747920746f206d696e7420746f6f2068696044820152610ced60f31b6064820152608401610a8c565b6001600160a01b0384166000908152600560209081526040918290208251808401845290546001600160801b038082168352600160801b9091041691810191909152815180830190925280519091908190612ea1908790613baa565b6001600160801b03168152602001858360200151612ebf9190613baa565b6001600160801b039081169091526001600160a01b0380881660008181526005602090815260408083208751978301518716600160801b029790961696909617909455845180860186529182526001600160401b034281168386019081528883526004909552948120915182549451909516600160a01b026001600160e01b031990941694909216939093179190911790915582905b85811015612fde5760405182906001600160a01b038916906000907fddf252ad1be2c89b69c2b068fc378daa952ba7f163c4a11628f55a4df523b3ef908290a4612fa26000888488612a42565b612fbe5760405162461bcd60e51b8152600401610a8c90613a8c565b81612fc8816139b2565b9250508080612fd6906139b2565b915050612f55565b5060018190556127a0565b6000808251604114156130205760208301516040840151606085015160001a61301487828585613214565b94509450505050613052565b82516040141561304a576020830151604084015161303f868383613301565b935093505050613052565b506000905060025b9250929050565b600081600481111561306d5761306d613870565b14156130765750565b600181600481111561308a5761308a613870565b14156130d85760405162461bcd60e51b815260206004820152601860248201527f45434453413a20696e76616c6964207369676e617475726500000000000000006044820152606401610a8c565b60028160048111156130ec576130ec613870565b141561313a5760405162461bcd60e51b815260206004820152601f60248201527f45434453413a20696e76616c6964207369676e6174757265206c656e677468006044820152606401610a8c565b600381600481111561314e5761314e613870565b14156131a75760405162461bcd60e51b815260206004820152602260248201527f45434453413a20696e76616c6964207369676e6174757265202773272076616c604482015261756560f01b6064820152608401610a8c565b60048160048111156131bb576131bb613870565b14156123c35760405162461bcd60e51b815260206004820152602260248201527f45434453413a20696e76616c6964207369676e6174757265202776272076616c604482015261756560f01b6064820152608401610a8c565b6000807f7fffffffffffffffffffffffffffffff5d576e7357a4501ddfe92f46681b20a083111561324b57506000905060036132f8565b8460ff16601b1415801561326357508460ff16601c14155b1561327457506000905060046132f8565b6040805160008082526020820180845289905260ff881692820192909252606081018690526080810185905260019060a0016020604051602081039080840390855afa1580156132c8573d6000803e3d6000fd5b5050604051601f1901519150506001600160a01b0381166132f1576000600192509250506132f8565b9150600090505b94509492505050565b6000806001600160ff1b0383168161331e60ff86901c601b613a04565b905061332c87828885613214565b935093505050935093915050565b82805461334690613961565b90600052602060002090601f01602090048101928261336857600085556133ae565b82601f1061338157805160ff19168380011785556133ae565b828001600101855582156133ae579182015b828111156133ae578251825591602001919060010190613393565b506113549291505b8082111561135457600081556001016133b6565b80356001600160a01b03811681146133e157600080fd5b919050565b6000806000606084860312156133fb57600080fd5b613404846133ca565b9250613412602085016133ca565b9150604084013590509250925092565b6001600160e01b0319811681146123c357600080fd5b60006020828403121561344a57600080fd5b813561220481613422565b60005b83811015613470578181015183820152602001613458565b838111156117fd5750506000910152565b60008151808452613499816020860160208601613455565b601f01601f19169290920160200192915050565b6020815260006122046020830184613481565b6000602082840312156134d257600080fd5b5035919050565b600080604083850312156134ec57600080fd5b6134f5836133ca565b946020939093013593505050565b6000806000806080858703121561351957600080fd5b613522856133ca565b9350613530602086016133ca565b925061353e604086016133ca565b915061354c606086016133ca565b905092959194509250565b80151581146123c357600080fd5b60006020828403121561357757600080fd5b813561220481613557565b803560ff811681146133e157600080fd5b60008083601f8401126135a557600080fd5b5081356001600160401b038111156135bc57600080fd5b60208301915083602082850101111561305257600080fd5b6000806000604084860312156135e957600080fd5b6135f284613582565b925060208401356001600160401b0381111561360d57600080fd5b61361986828701613593565b9497909650939450505050565b634e487b7160e01b600052604160045260246000fd5b60006001600160401b038084111561365657613656613626565b604051601f8501601f19908116603f0116810190828211818310171561367e5761367e613626565b8160405280935085815286868601111561369757600080fd5b858560208301376000602087830101525050509392505050565b6000602082840312156136c357600080fd5b81356001600160401b038111156136d957600080fd5b8201601f810184136136ea57600080fd5b612b398482356020840161363c565b60006020828403121561370b57600080fd5b612204826133ca565b6000806040838503121561372757600080fd5b61373083613582565b915061373e60208401613582565b90509250929050565b60006020828403121561375957600080fd5b813561ffff8116811461220457600080fd5b6000806040838503121561377e57600080fd5b613787836133ca565b9150602083013561379781613557565b809150509250929050565b600080600080608085870312156137b857600080fd5b6137c1856133ca565b93506137cf602086016133ca565b92506040850135915060608501356001600160401b038111156137f157600080fd5b8501601f8101871361380257600080fd5b6138118782356020840161363c565b91505092959194509250565b60008060006040848603121561383257600080fd5b83356001600160401b0381111561384857600080fd5b61385486828701613593565b90945092506138679050602085016133ca565b90509250925092565b634e487b7160e01b600052602160045260246000fd5b60208101600483106138a857634e487b7160e01b600052602160045260246000fd5b91905290565b600080604083850312156138c157600080fd5b6138ca836133ca565b915061373e602084016133ca565b6020808252818101527f4f776e61626c653a2063616c6c6572206973206e6f7420746865206f776e6572604082015260600190565b6020808252601f908201527f5265656e7472616e637947756172643a207265656e7472616e742063616c6c00604082015260600190565b60006020828403121561395657600080fd5b815161220481613557565b600181811c9082168061397557607f821691505b6020821081141561399657634e487b7160e01b600052602260045260246000fd5b50919050565b634e487b7160e01b600052601160045260246000fd5b60006000198214156139c6576139c661399c565b5060010190565b6020808252601e908201527f5468652063616c6c657220697320616e6f7468657220636f6e74726163740000604082015260600190565b60008219821115613a1757613a1761399c565b500190565b60208082526012908201527145786365656473204d617820537570706c7960701b604082015260600190565b600060ff821660ff84168060ff03821115613a6557613a6561399c565b019392505050565b6000816000190483118215151615613a8757613a8761399c565b500290565b60208082526033908201527f455243373231413a207472616e7366657220746f206e6f6e204552433732315260408201527232b1b2b4bb32b91034b6b83632b6b2b73a32b960691b606082015260800190565b600061ffff808316818516808303821115613afc57613afc61399c565b01949350505050565b634e487b7160e01b600052601260045260246000fd5b600082613b2a57613b2a613b05565b500690565b600082613b3e57613b3e613b05565b500490565b60008351613b55818460208801613455565b835190830190613b69818360208801613455565b64173539b7b760d91b9101908152600501949350505050565b60006001600160801b0383811690831681811015613ba257613ba261399c565b039392505050565b60006001600160801b03808316818516808303821115613afc57613afc61399c565b600082821015613bde57613bde61399c565b500390565b600081613bf257613bf261399c565b506000190190565b6001600160a01b0385811682528416602082015260408101839052608060608201819052600090613c2d90830184613481565b9695505050505050565b600060208284031215613c4957600080fd5b815161220481613422565b634e487b7160e01b600052603260045260246000fdfea264697066735822122074f6b6f40bdc88510fc461516665c75638a5f1bb300a8e3bfe27ef64d0ce418b64736f6c634300080a0033",
  "devdoc": {
    "kind": "dev",
    "methods": {
      "approve(address,uint256)": {
        "details": "See {IERC721-approve}."
      },
      "balanceOf(address)": {
        "details": "See {IERC721-balanceOf}."
      },
      "constructor": {
        "params": {
          "_baseURIString": "metadata base url",
          "_placeholder": "metadata before reveal",
          "amountForDevs_": "Amount for Presale mint",
          "collectionSize_": "NFT collection size",
          "maxBatchSize_": "Max size for ERC721A batch mint."
        }
      },
      "getApproved(uint256)": {
        "details": "See {IERC721-getApproved}."
      },
      "isApprovedForAll(address,address)": {
        "details": "See {IERC721-isApprovedForAll}."
      },
      "name()": {
        "details": "See {IERC721Metadata-name}."
      },
      "owner()": {
        "details": "Returns the address of the current owner."
      },
      "ownerOf(uint256)": {
        "details": "See {IERC721-ownerOf}."
      },
      "renounceOwnership()": {
        "details": "Leaves the contract without owner. It will not be possible to call `onlyOwner` functions anymore. Can only be called by the current owner. NOTE: Renouncing ownership will leave the contract without an owner, thereby removing any functionality that is only available to the owner."
      },
      "safeTransferFrom(address,address,uint256)": {
        "details": "See {IERC721-safeTransferFrom}."
      },
      "safeTransferFrom(address,address,uint256,bytes)": {
        "details": "See {IERC721-safeTransferFrom}."
      },
      "setApprovalForAll(address,bool)": {
        "details": "See {IERC721-setApprovalForAll}."
      },
      "supportsInterface(bytes4)": {
        "details": "See {IERC165-supportsInterface}."
      },
      "symbol()": {
        "details": "See {IERC721Metadata-symbol}."
      },
      "tokenByIndex(uint256)": {
        "details": "See {IERC721Enumerable-tokenByIndex}."
      },
      "tokenOfOwnerByIndex(address,uint256)": {
        "details": "See {IERC721Enumerable-tokenOfOwnerByIndex}. This read function is O(collectionSize). If calling from a separate contract, be sure to test gas first. It may also degrade with extremely large collection sizes (e.g >> 10000), test for your use case."
      },
      "tokenURI(uint256)": {
        "details": "See {IERC721Metadata-tokenURI}."
      },
      "totalSupply()": {
        "details": "See {IERC721Enumerable-totalSupply}."
      },
      "transferFrom(address,address,uint256)": {
        "details": "See {IERC721-transferFrom}."
      },
      "transferOwnership(address)": {
        "details": "Transfers ownership of the contract to a new account (`newOwner`). Can only be called by the current owner."
      }
    },
    "version": 1
  },
  "userdoc": {
    "kind": "user",
    "methods": {},
    "version": 1
  },
  "storageLayout": {
    "storage": [
      {
        "astId": 7,
        "contract": "contracts/AneroToken.sol:AneroToken",
        "label": "_owner",
        "offset": 0,
        "slot": "0",
        "type": "t_address"
      },
      {
        "astId": 3854,
        "contract": "contracts/AneroToken.sol:AneroToken",
        "label": "currentIndex",
        "offset": 0,
        "slot": "1",
        "type": "t_uint256"
      },
      {
        "astId": 3860,
        "contract": "contracts/AneroToken.sol:AneroToken",
        "label": "_name",
        "offset": 0,
        "slot": "2",
        "type": "t_string_storage"
      },
      {
        "astId": 3862,
        "contract": "contracts/AneroToken.sol:AneroToken",
        "label": "_symbol",
        "offset": 0,
        "slot": "3",
        "type": "t_string_storage"
      },
      {
        "astId": 3867,
        "contract": "contracts/AneroToken.sol:AneroToken",
        "label": "_ownerships",
        "offset": 0,
        "slot": "4",
        "type": "t_mapping(t_uint256,t_struct(TokenOwnership)3846_storage)"
      },
      {
        "astId": 3872,
        "contract": "contracts/AneroToken.sol:AneroToken",
        "label": "_addressData",
        "offset": 0,
        "slot": "5",
        "type": "t_mapping(t_address,t_struct(AddressData)3851_storage)"
      },
      {
        "astId": 3876,
        "contract": "contracts/AneroToken.sol:AneroToken",
        "label": "_tokenApprovals",
        "offset": 0,
        "slot": "6",
        "type": "t_mapping(t_uint256,t_address)"
      },
      {
        "astId": 3882,
        "contract": "contracts/AneroToken.sol:AneroToken",
        "label": "_operatorApprovals",
        "offset": 0,
        "slot": "7",
        "type": "t_mapping(t_address,t_mapping(t_address,t_bool))"
      },
      {
        "astId": 4825,
        "contract": "contracts/AneroToken.sol:AneroToken",
        "label": "nextOwnerToExplicitlySet",
        "offset": 0,
        "slot": "8",
        "type": "t_uint256"
      },
      {
        "astId": 115,
        "contract": "contracts/AneroToken.sol:AneroToken",
        "label": "_status",
        "offset": 0,
        "slot": "9",
        "type": "t_uint256"
      },
      {
        "astId": 2908,
        "contract": "contracts/AneroToken.sol:AneroToken",
        "label": "amountForDevs",
        "offset": 0,
        "slot": "10",
        "type": "t_uint16"
      },
      {
        "astId": 2910,
        "contract": "contracts/AneroToken.sol:AneroToken",
        "label": "currentDevMintAmount",
        "offset": 2,
        "slot": "10",
        "type": "t_uint16"
      },
      {
        "astId": 2912,
        "contract": "contracts/AneroToken.sol:AneroToken",
        "label": "preSaleStartTime",
        "offset": 0,
        "slot": "11",
        "type": "t_uint256"
      },
      {
        "astId": 2914,
        "contract": "contracts/AneroToken.sol:AneroToken",
        "label": "raffleSaleStartTime",
        "offset": 0,
        "slot": "12",
        "type": "t_uint256"
      },
      {
        "astId": 2916,
        "contract": "contracts/AneroToken.sol:AneroToken",
        "label": "reservedSaleStartTime",
        "offset": 0,
        "slot": "13",
        "type": "t_uint256"
      },
      {
        "astId": 2919,
        "contract": "contracts/AneroToken.sol:AneroToken",
        "label": "preSalePrice",
        "offset": 0,
        "slot": "14",
        "type": "t_uint256"
      },
      {
        "astId": 2922,
        "contract": "contracts/AneroToken.sol:AneroToken",
        "label": "raffleSalePrice",
        "offset": 0,
        "slot": "15",
        "type": "t_uint256"
      },
      {
        "astId": 2925,
        "contract": "contracts/AneroToken.sol:AneroToken",
        "label": "reservedSalePrice",
        "offset": 0,
        "slot": "16",
        "type": "t_uint256"
      },
      {
        "astId": 2927,
        "contract": "contracts/AneroToken.sol:AneroToken",
        "label": "preSaleSigner1",
        "offset": 0,
        "slot": "17",
        "type": "t_address"
      },
      {
        "astId": 2929,
        "contract": "contracts/AneroToken.sol:AneroToken",
        "label": "preSaleSigner2",
        "offset": 0,
        "slot": "18",
        "type": "t_address"
      },
      {
        "astId": 2931,
        "contract": "contracts/AneroToken.sol:AneroToken",
        "label": "raffleSaleSigner",
        "offset": 0,
        "slot": "19",
        "type": "t_address"
      },
      {
        "astId": 2933,
        "contract": "contracts/AneroToken.sol:AneroToken",
        "label": "reservedSaleSigner",
        "offset": 0,
        "slot": "20",
        "type": "t_address"
      },
      {
        "astId": 2935,
        "contract": "contracts/AneroToken.sol:AneroToken",
        "label": "_baseTokenURI",
        "offset": 0,
        "slot": "21",
        "type": "t_string_storage"
      },
      {
        "astId": 2937,
        "contract": "contracts/AneroToken.sol:AneroToken",
        "label": "_placeHolderURI",
        "offset": 0,
        "slot": "22",
        "type": "t_string_storage"
      },
      {
        "astId": 2939,
        "contract": "contracts/AneroToken.sol:AneroToken",
        "label": "reveal",
        "offset": 0,
        "slot": "23",
        "type": "t_bool"
      },
      {
        "astId": 2942,
        "contract": "contracts/AneroToken.sol:AneroToken",
        "label": "saleEnabled",
        "offset": 1,
        "slot": "23",
        "type": "t_bool"
      },
      {
        "astId": 2945,
        "contract": "contracts/AneroToken.sol:AneroToken",
        "label": "limit1",
        "offset": 2,
        "slot": "23",
        "type": "t_uint8"
      },
      {
        "astId": 2948,
        "contract": "contracts/AneroToken.sol:AneroToken",
        "label": "limit2",
        "offset": 3,
        "slot": "23",
        "type": "t_uint8"
      },
      {
        "astId": 2960,
        "contract": "contracts/AneroToken.sol:AneroToken",
        "label": "mintedAmountPerWallet",
        "offset": 0,
        "slot": "24",
        "type": "t_mapping(t_address,t_mapping(t_enum(SalePhase)2953,t_uint8))"
      }
    ],
    "types": {
      "t_address": {
        "encoding": "inplace",
        "label": "address",
        "numberOfBytes": "20"
      },
      "t_bool": {
        "encoding": "inplace",
        "label": "bool",
        "numberOfBytes": "1"
      },
      "t_enum(SalePhase)2953": {
        "encoding": "inplace",
        "label": "enum AneroToken.SalePhase",
        "numberOfBytes": "1"
      },
      "t_mapping(t_address,t_bool)": {
        "encoding": "mapping",
        "key": "t_address",
        "label": "mapping(address => bool)",
        "numberOfBytes": "32",
        "value": "t_bool"
      },
      "t_mapping(t_address,t_mapping(t_address,t_bool))": {
        "encoding": "mapping",
        "key": "t_address",
        "label": "mapping(address => mapping(address => bool))",
        "numberOfBytes": "32",
        "value": "t_mapping(t_address,t_bool)"
      },
      "t_mapping(t_address,t_mapping(t_enum(SalePhase)2953,t_uint8))": {
        "encoding": "mapping",
        "key": "t_address",
        "label": "mapping(address => mapping(enum AneroToken.SalePhase => uint8))",
        "numberOfBytes": "32",
        "value": "t_mapping(t_enum(SalePhase)2953,t_uint8)"
      },
      "t_mapping(t_address,t_struct(AddressData)3851_storage)": {
        "encoding": "mapping",
        "key": "t_address",
        "label": "mapping(address => struct ERC721A.AddressData)",
        "numberOfBytes": "32",
        "value": "t_struct(AddressData)3851_storage"
      },
      "t_mapping(t_enum(SalePhase)2953,t_uint8)": {
        "encoding": "mapping",
        "key": "t_enum(SalePhase)2953",
        "label": "mapping(enum AneroToken.SalePhase => uint8)",
        "numberOfBytes": "32",
        "value": "t_uint8"
      },
      "t_mapping(t_uint256,t_address)": {
        "encoding": "mapping",
        "key": "t_uint256",
        "label": "mapping(uint256 => address)",
        "numberOfBytes": "32",
        "value": "t_address"
      },
      "t_mapping(t_uint256,t_struct(TokenOwnership)3846_storage)": {
        "encoding": "mapping",
        "key": "t_uint256",
        "label": "mapping(uint256 => struct ERC721A.TokenOwnership)",
        "numberOfBytes": "32",
        "value": "t_struct(TokenOwnership)3846_storage"
      },
      "t_string_storage": {
        "encoding": "bytes",
        "label": "string",
        "numberOfBytes": "32"
      },
      "t_struct(AddressData)3851_storage": {
        "encoding": "inplace",
        "label": "struct ERC721A.AddressData",
        "members": [
          {
            "astId": 3848,
            "contract": "contracts/AneroToken.sol:AneroToken",
            "label": "balance",
            "offset": 0,
            "slot": "0",
            "type": "t_uint128"
          },
          {
            "astId": 3850,
            "contract": "contracts/AneroToken.sol:AneroToken",
            "label": "numberMinted",
            "offset": 16,
            "slot": "0",
            "type": "t_uint128"
          }
        ],
        "numberOfBytes": "32"
      },
      "t_struct(TokenOwnership)3846_storage": {
        "encoding": "inplace",
        "label": "struct ERC721A.TokenOwnership",
        "members": [
          {
            "astId": 3843,
            "contract": "contracts/AneroToken.sol:AneroToken",
            "label": "addr",
            "offset": 0,
            "slot": "0",
            "type": "t_address"
          },
          {
            "astId": 3845,
            "contract": "contracts/AneroToken.sol:AneroToken",
            "label": "startTimestamp",
            "offset": 20,
            "slot": "0",
            "type": "t_uint64"
          }
        ],
        "numberOfBytes": "32"
      },
      "t_uint128": {
        "encoding": "inplace",
        "label": "uint128",
        "numberOfBytes": "16"
      },
      "t_uint16": {
        "encoding": "inplace",
        "label": "uint16",
        "numberOfBytes": "2"
      },
      "t_uint256": {
        "encoding": "inplace",
        "label": "uint256",
        "numberOfBytes": "32"
      },
      "t_uint64": {
        "encoding": "inplace",
        "label": "uint64",
        "numberOfBytes": "8"
      },
      "t_uint8": {
        "encoding": "inplace",
        "label": "uint8",
        "numberOfBytes": "1"
      }
    }
  }
}