{
  "address": "0xbd3D003f51f714fC4b2FAb89Ba12f8344Ad4ff8B",
  "abi": [
    {
      "inputs": [
        {
          "internalType": "contract ERC721Partial",
          "name": "_nft",
          "type": "address"
        }
      ],
      "stateMutability": "nonpayable",
      "type": "constructor"
    },
    {
      "inputs": [
        {
          "components": [
            {
              "internalType": "address",
              "name": "receipent",
              "type": "address"
            },
            {
              "internalType": "uint256",
              "name": "amount",
              "type": "uint256"
            }
          ],
          "internalType": "struct Airdrop.Data[]",
          "name": "data",
          "type": "tuple[]"
        }
      ],
      "name": "batchTransfer",
      "outputs": [],
      "stateMutability": "nonpayable",
      "type": "function"
    },
    {
      "inputs": [],
      "name": "nft",
      "outputs": [
        {
          "internalType": "contract ERC721Partial",
          "name": "",
          "type": "address"
        }
      ],
      "stateMutability": "view",
      "type": "function"
    }
  ],
  "transactionHash": "0x9a7e0447b883f1de57a0fa83ec8469883a785a7b9d69fdc21e023dca639eb5d9",
  "args": [
    "0xd7CE44F48F6c239a70943C9E7AaA2Db31c05ECD2"
  ],
  "numDeployments": 1,
  "solcInputHash": "9f5306ee28a44e8765d34891eca59d31",
  "bytecode": "0x608060405234801561001057600080fd5b506040516104d33803806104d383398101604081905261002f91610054565b600080546001600160a01b0319166001600160a01b0392909216919091179055610084565b60006020828403121561006657600080fd5b81516001600160a01b038116811461007d57600080fd5b9392505050565b610440806100936000396000f3fe608060405234801561001057600080fd5b50600436106100365760003560e01c806347ccca021461003b578063faa552a81461006a575b600080fd5b60005461004e906001600160a01b031681565b6040516001600160a01b03909116815260200160405180910390f35b61007d6100783660046102af565b61007f565b005b60005b8151811015610116576100cf8282815181106100a0576100a0610392565b6020026020010151600001518383815181106100be576100be610392565b60200260200101516020015161011a565b8181815181106100e1576100e1610392565b602002602001015160200151600160008282546100fe91906103be565b9091555081905061010e816103d6565b915050610082565b5050565b60005b8181101561023a57600080546001546001600160a01b0390911690632f745c5990339061014b9086906103be565b6040516001600160e01b031960e085901b1681526001600160a01b0390921660048301526024820152604401602060405180830381865afa158015610194573d6000803e3d6000fd5b505050506040513d601f19601f820116820180604052508101906101b891906103f1565b6000546040516323b872dd60e01b81523360048201526001600160a01b038781166024830152604482018490529293509116906323b872dd90606401600060405180830381600087803b15801561020e57600080fd5b505af1158015610222573d6000803e3d6000fd5b50505050508080610232906103d6565b91505061011d565b505050565b634e487b7160e01b600052604160045260246000fd5b6040805190810167ffffffffffffffff811182821017156102785761027861023f565b60405290565b604051601f8201601f1916810167ffffffffffffffff811182821017156102a7576102a761023f565b604052919050565b600060208083850312156102c257600080fd5b823567ffffffffffffffff808211156102da57600080fd5b818501915085601f8301126102ee57600080fd5b8135818111156103005761030061023f565b61030e848260051b0161027e565b818152848101925060069190911b83018401908782111561032e57600080fd5b928401925b81841015610387576040848903121561034c5760008081fd5b610354610255565b84356001600160a01b038116811461036c5760008081fd5b81528486013586820152835260409093019291840191610333565b979650505050505050565b634e487b7160e01b600052603260045260246000fd5b634e487b7160e01b600052601160045260246000fd5b600082198211156103d1576103d16103a8565b500190565b60006000198214156103ea576103ea6103a8565b5060010190565b60006020828403121561040357600080fd5b505191905056fea264697066735822122084fbf0da6717ca1af0def4e1402617891cca85beca4c0e3d2afebd72c125abcc64736f6c634300080a0033",
  "devdoc": {
    "kind": "dev",
    "methods": {},
    "version": 1
  },
  "userdoc": {
    "kind": "user",
    "methods": {},
    "version": 1
  },
  "storageLayout": {
    "storage": [
      {
        "astId": 28,
        "contract": "contracts/Airdrop.sol:Airdrop",
        "label": "nft",
        "offset": 0,
        "slot": "0",
        "type": "t_contract(ERC721Partial)20"
      },
      {
        "astId": 30,
        "contract": "contracts/Airdrop.sol:Airdrop",
        "label": "airdropedAmount",
        "offset": 0,
        "slot": "1",
        "type": "t_uint256"
      }
    ],
    "types": {
      "t_contract(ERC721Partial)20": {
        "encoding": "inplace",
        "label": "contract ERC721Partial",
        "numberOfBytes": "20"
      },
      "t_uint256": {
        "encoding": "inplace",
        "label": "uint256",
        "numberOfBytes": "32"
      }
    }
  }
}