{
  "address": "0xE25cB1896150531b450E1e761cb3079aB57F8121",
  "abi": [
    {
      "inputs": [
        {
          "internalType": "string",
          "name": "_baseURIString",
          "type": "string"
        },
        {
          "internalType": "string",
          "name": "_placeholder",
          "type": "string"
        },
        {
          "internalType": "uint16",
          "name": "maxBatchSize_",
          "type": "uint16"
        },
        {
          "internalType": "uint16",
          "name": "collectionSize_",
          "type": "uint16"
        },
        {
          "internalType": "uint16",
          "name": "amountForDevs_",
          "type": "uint16"
        }
      ],
      "stateMutability": "nonpayable",
      "type": "constructor"
    },
    {
      "anonymous": false,
      "inputs": [
        {
          "indexed": true,
          "internalType": "address",
          "name": "owner",
          "type": "address"
        },
        {
          "indexed": true,
          "internalType": "address",
          "name": "approved",
          "type": "address"
        },
        {
          "indexed": true,
          "internalType": "uint256",
          "name": "tokenId",
          "type": "uint256"
        }
      ],
      "name": "Approval",
      "type": "event"
    },
    {
      "anonymous": false,
      "inputs": [
        {
          "indexed": true,
          "internalType": "address",
          "name": "owner",
          "type": "address"
        },
        {
          "indexed": true,
          "internalType": "address",
          "name": "operator",
          "type": "address"
        },
        {
          "indexed": false,
          "internalType": "bool",
          "name": "approved",
          "type": "bool"
        }
      ],
      "name": "ApprovalForAll",
      "type": "event"
    },
    {
      "anonymous": false,
      "inputs": [
        {
          "indexed": true,
          "internalType": "address",
          "name": "previousOwner",
          "type": "address"
        },
        {
          "indexed": true,
          "internalType": "address",
          "name": "newOwner",
          "type": "address"
        }
      ],
      "name": "OwnershipTransferred",
      "type": "event"
    },
    {
      "anonymous": false,
      "inputs": [
        {
          "indexed": true,
          "internalType": "address",
          "name": "from",
          "type": "address"
        },
        {
          "indexed": true,
          "internalType": "address",
          "name": "to",
          "type": "address"
        },
        {
          "indexed": true,
          "internalType": "uint256",
          "name": "tokenId",
          "type": "uint256"
        }
      ],
      "name": "Transfer",
      "type": "event"
    },
    {
      "inputs": [],
      "name": "amountForDevs",
      "outputs": [
        {
          "internalType": "uint16",
          "name": "",
          "type": "uint16"
        }
      ],
      "stateMutability": "view",
      "type": "function"
    },
    {
      "inputs": [
        {
          "internalType": "address",
          "name": "to",
          "type": "address"
        },
        {
          "internalType": "uint256",
          "name": "tokenId",
          "type": "uint256"
        }
      ],
      "name": "approve",
      "outputs": [],
      "stateMutability": "nonpayable",
      "type": "function"
    },
    {
      "inputs": [
        {
          "internalType": "address",
          "name": "owner",
          "type": "address"
        }
      ],
      "name": "balanceOf",
      "outputs": [
        {
          "internalType": "uint256",
          "name": "",
          "type": "uint256"
        }
      ],
      "stateMutability": "view",
      "type": "function"
    },
    {
      "inputs": [],
      "name": "currentDevMintAmount",
      "outputs": [
        {
          "internalType": "uint16",
          "name": "",
          "type": "uint16"
        }
      ],
      "stateMutability": "view",
      "type": "function"
    },
    {
      "inputs": [
        {
          "internalType": "uint16",
          "name": "quantity",
          "type": "uint16"
        }
      ],
      "name": "devMint",
      "outputs": [],
      "stateMutability": "nonpayable",
      "type": "function"
    },
    {
      "inputs": [
        {
          "internalType": "uint256",
          "name": "tokenId",
          "type": "uint256"
        }
      ],
      "name": "getApproved",
      "outputs": [
        {
          "internalType": "address",
          "name": "",
          "type": "address"
        }
      ],
      "stateMutability": "view",
      "type": "function"
    },
    {
      "inputs": [],
      "name": "getCurrentSaleMode",
      "outputs": [
        {
          "internalType": "enum Anero.SalePhase",
          "name": "",
          "type": "uint8"
        }
      ],
      "stateMutability": "view",
      "type": "function"
    },
    {
      "inputs": [
        {
          "internalType": "uint256",
          "name": "tokenId",
          "type": "uint256"
        }
      ],
      "name": "getOwnershipData",
      "outputs": [
        {
          "components": [
            {
              "internalType": "address",
              "name": "addr",
              "type": "address"
            },
            {
              "internalType": "uint64",
              "name": "startTimestamp",
              "type": "uint64"
            }
          ],
          "internalType": "struct ERC721A.TokenOwnership",
          "name": "",
          "type": "tuple"
        }
      ],
      "stateMutability": "view",
      "type": "function"
    },
    {
      "inputs": [
        {
          "internalType": "address",
          "name": "owner",
          "type": "address"
        },
        {
          "internalType": "address",
          "name": "operator",
          "type": "address"
        }
      ],
      "name": "isApprovedForAll",
      "outputs": [
        {
          "internalType": "bool",
          "name": "",
          "type": "bool"
        }
      ],
      "stateMutability": "view",
      "type": "function"
    },
    {
      "inputs": [],
      "name": "limit1",
      "outputs": [
        {
          "internalType": "uint8",
          "name": "",
          "type": "uint8"
        }
      ],
      "stateMutability": "view",
      "type": "function"
    },
    {
      "inputs": [],
      "name": "limit2",
      "outputs": [
        {
          "internalType": "uint8",
          "name": "",
          "type": "uint8"
        }
      ],
      "stateMutability": "view",
      "type": "function"
    },
    {
      "inputs": [],
      "name": "name",
      "outputs": [
        {
          "internalType": "string",
          "name": "",
          "type": "string"
        }
      ],
      "stateMutability": "view",
      "type": "function"
    },
    {
      "inputs": [],
      "name": "nextOwnerToExplicitlySet",
      "outputs": [
        {
          "internalType": "uint256",
          "name": "",
          "type": "uint256"
        }
      ],
      "stateMutability": "view",
      "type": "function"
    },
    {
      "inputs": [
        {
          "internalType": "address",
          "name": "owner",
          "type": "address"
        }
      ],
      "name": "numberMinted",
      "outputs": [
        {
          "internalType": "uint256",
          "name": "",
          "type": "uint256"
        }
      ],
      "stateMutability": "view",
      "type": "function"
    },
    {
      "inputs": [],
      "name": "owner",
      "outputs": [
        {
          "internalType": "address",
          "name": "",
          "type": "address"
        }
      ],
      "stateMutability": "view",
      "type": "function"
    },
    {
      "inputs": [
        {
          "internalType": "uint256",
          "name": "tokenId",
          "type": "uint256"
        }
      ],
      "name": "ownerOf",
      "outputs": [
        {
          "internalType": "address",
          "name": "",
          "type": "address"
        }
      ],
      "stateMutability": "view",
      "type": "function"
    },
    {
      "inputs": [
        {
          "internalType": "uint8",
          "name": "quantity",
          "type": "uint8"
        },
        {
          "internalType": "bytes",
          "name": "signature",
          "type": "bytes"
        }
      ],
      "name": "preSaleMint",
      "outputs": [],
      "stateMutability": "payable",
      "type": "function"
    },
    {
      "inputs": [],
      "name": "preSalePrice",
      "outputs": [
        {
          "internalType": "uint256",
          "name": "",
          "type": "uint256"
        }
      ],
      "stateMutability": "view",
      "type": "function"
    },
    {
      "inputs": [],
      "name": "preSaleStartTime",
      "outputs": [
        {
          "internalType": "uint256",
          "name": "",
          "type": "uint256"
        }
      ],
      "stateMutability": "view",
      "type": "function"
    },
    {
      "inputs": [
        {
          "internalType": "uint8",
          "name": "quantity",
          "type": "uint8"
        },
        {
          "internalType": "bytes",
          "name": "signature",
          "type": "bytes"
        }
      ],
      "name": "raffleSaleMint",
      "outputs": [],
      "stateMutability": "payable",
      "type": "function"
    },
    {
      "inputs": [],
      "name": "raffleSalePrice",
      "outputs": [
        {
          "internalType": "uint256",
          "name": "",
          "type": "uint256"
        }
      ],
      "stateMutability": "view",
      "type": "function"
    },
    {
      "inputs": [],
      "name": "raffleSaleStartTime",
      "outputs": [
        {
          "internalType": "uint256",
          "name": "",
          "type": "uint256"
        }
      ],
      "stateMutability": "view",
      "type": "function"
    },
    {
      "inputs": [],
      "name": "renounceOwnership",
      "outputs": [],
      "stateMutability": "nonpayable",
      "type": "function"
    },
    {
      "inputs": [
        {
          "internalType": "uint8",
          "name": "quantity",
          "type": "uint8"
        },
        {
          "internalType": "bytes",
          "name": "signature",
          "type": "bytes"
        }
      ],
      "name": "reservedSaleMint",
      "outputs": [],
      "stateMutability": "payable",
      "type": "function"
    },
    {
      "inputs": [],
      "name": "reservedSalePrice",
      "outputs": [
        {
          "internalType": "uint256",
          "name": "",
          "type": "uint256"
        }
      ],
      "stateMutability": "view",
      "type": "function"
    },
    {
      "inputs": [],
      "name": "reservedSaleStartTime",
      "outputs": [
        {
          "internalType": "uint256",
          "name": "",
          "type": "uint256"
        }
      ],
      "stateMutability": "view",
      "type": "function"
    },
    {
      "inputs": [],
      "name": "reveal",
      "outputs": [
        {
          "internalType": "bool",
          "name": "",
          "type": "bool"
        }
      ],
      "stateMutability": "view",
      "type": "function"
    },
    {
      "inputs": [
        {
          "internalType": "address",
          "name": "from",
          "type": "address"
        },
        {
          "internalType": "address",
          "name": "to",
          "type": "address"
        },
        {
          "internalType": "uint256",
          "name": "tokenId",
          "type": "uint256"
        }
      ],
      "name": "safeTransferFrom",
      "outputs": [],
      "stateMutability": "nonpayable",
      "type": "function"
    },
    {
      "inputs": [
        {
          "internalType": "address",
          "name": "from",
          "type": "address"
        },
        {
          "internalType": "address",
          "name": "to",
          "type": "address"
        },
        {
          "internalType": "uint256",
          "name": "tokenId",
          "type": "uint256"
        },
        {
          "internalType": "bytes",
          "name": "_data",
          "type": "bytes"
        }
      ],
      "name": "safeTransferFrom",
      "outputs": [],
      "stateMutability": "nonpayable",
      "type": "function"
    },
    {
      "inputs": [],
      "name": "saleEnabled",
      "outputs": [
        {
          "internalType": "bool",
          "name": "",
          "type": "bool"
        }
      ],
      "stateMutability": "view",
      "type": "function"
    },
    {
      "inputs": [
        {
          "internalType": "uint16",
          "name": "_amountForDevs",
          "type": "uint16"
        }
      ],
      "name": "setAmountForDevs",
      "outputs": [],
      "stateMutability": "nonpayable",
      "type": "function"
    },
    {
      "inputs": [
        {
          "internalType": "address",
          "name": "operator",
          "type": "address"
        },
        {
          "internalType": "bool",
          "name": "approved",
          "type": "bool"
        }
      ],
      "name": "setApprovalForAll",
      "outputs": [],
      "stateMutability": "nonpayable",
      "type": "function"
    },
    {
      "inputs": [
        {
          "internalType": "string",
          "name": "baseURI",
          "type": "string"
        }
      ],
      "name": "setBaseURI",
      "outputs": [],
      "stateMutability": "nonpayable",
      "type": "function"
    },
    {
      "inputs": [
        {
          "internalType": "uint8",
          "name": "_limit1",
          "type": "uint8"
        },
        {
          "internalType": "uint8",
          "name": "_limit2",
          "type": "uint8"
        }
      ],
      "name": "setLimits",
      "outputs": [],
      "stateMutability": "nonpayable",
      "type": "function"
    },
    {
      "inputs": [
        {
          "internalType": "string",
          "name": "_uri",
          "type": "string"
        }
      ],
      "name": "setPlaceHolderURI",
      "outputs": [],
      "stateMutability": "nonpayable",
      "type": "function"
    },
    {
      "inputs": [
        {
          "internalType": "uint256",
          "name": "_preSalePrice",
          "type": "uint256"
        }
      ],
      "name": "setPreSalePrice",
      "outputs": [],
      "stateMutability": "nonpayable",
      "type": "function"
    },
    {
      "inputs": [
        {
          "internalType": "uint256",
          "name": "_raffleSalePrice",
          "type": "uint256"
        }
      ],
      "name": "setRaffleSalePrice",
      "outputs": [],
      "stateMutability": "nonpayable",
      "type": "function"
    },
    {
      "inputs": [
        {
          "internalType": "uint256",
          "name": "_reservedSalePrice",
          "type": "uint256"
        }
      ],
      "name": "setReservedSalePrice",
      "outputs": [],
      "stateMutability": "nonpayable",
      "type": "function"
    },
    {
      "inputs": [
        {
          "internalType": "bool",
          "name": "value",
          "type": "bool"
        }
      ],
      "name": "setReveal",
      "outputs": [],
      "stateMutability": "nonpayable",
      "type": "function"
    },
    {
      "inputs": [
        {
          "internalType": "address",
          "name": "_presaleSigner1",
          "type": "address"
        },
        {
          "internalType": "address",
          "name": "_presaleSigner2",
          "type": "address"
        },
        {
          "internalType": "address",
          "name": "_raffleSaleSigner",
          "type": "address"
        },
        {
          "internalType": "address",
          "name": "_reservedSaleSigner",
          "type": "address"
        }
      ],
      "name": "setSigners",
      "outputs": [],
      "stateMutability": "nonpayable",
      "type": "function"
    },
    {
      "inputs": [
        {
          "internalType": "uint256",
          "name": "startTime",
          "type": "uint256"
        }
      ],
      "name": "startPreSaleAt",
      "outputs": [],
      "stateMutability": "nonpayable",
      "type": "function"
    },
    {
      "inputs": [
        {
          "internalType": "uint256",
          "name": "startTime",
          "type": "uint256"
        }
      ],
      "name": "startRaffleSaleAt",
      "outputs": [],
      "stateMutability": "nonpayable",
      "type": "function"
    },
    {
      "inputs": [
        {
          "internalType": "uint256",
          "name": "startTime",
          "type": "uint256"
        }
      ],
      "name": "startReservedSaleAt",
      "outputs": [],
      "stateMutability": "nonpayable",
      "type": "function"
    },
    {
      "inputs": [
        {
          "internalType": "bytes4",
          "name": "interfaceId",
          "type": "bytes4"
        }
      ],
      "name": "supportsInterface",
      "outputs": [
        {
          "internalType": "bool",
          "name": "",
          "type": "bool"
        }
      ],
      "stateMutability": "view",
      "type": "function"
    },
    {
      "inputs": [],
      "name": "symbol",
      "outputs": [
        {
          "internalType": "string",
          "name": "",
          "type": "string"
        }
      ],
      "stateMutability": "view",
      "type": "function"
    },
    {
      "inputs": [
        {
          "internalType": "bool",
          "name": "value",
          "type": "bool"
        }
      ],
      "name": "toggleSale",
      "outputs": [],
      "stateMutability": "nonpayable",
      "type": "function"
    },
    {
      "inputs": [
        {
          "internalType": "uint256",
          "name": "index",
          "type": "uint256"
        }
      ],
      "name": "tokenByIndex",
      "outputs": [
        {
          "internalType": "uint256",
          "name": "",
          "type": "uint256"
        }
      ],
      "stateMutability": "view",
      "type": "function"
    },
    {
      "inputs": [
        {
          "internalType": "address",
          "name": "owner",
          "type": "address"
        },
        {
          "internalType": "uint256",
          "name": "index",
          "type": "uint256"
        }
      ],
      "name": "tokenOfOwnerByIndex",
      "outputs": [
        {
          "internalType": "uint256",
          "name": "",
          "type": "uint256"
        }
      ],
      "stateMutability": "view",
      "type": "function"
    },
    {
      "inputs": [
        {
          "internalType": "uint256",
          "name": "tokenId",
          "type": "uint256"
        }
      ],
      "name": "tokenURI",
      "outputs": [
        {
          "internalType": "string",
          "name": "",
          "type": "string"
        }
      ],
      "stateMutability": "view",
      "type": "function"
    },
    {
      "inputs": [],
      "name": "totalSupply",
      "outputs": [
        {
          "internalType": "uint256",
          "name": "",
          "type": "uint256"
        }
      ],
      "stateMutability": "view",
      "type": "function"
    },
    {
      "inputs": [
        {
          "internalType": "address",
          "name": "from",
          "type": "address"
        },
        {
          "internalType": "address",
          "name": "to",
          "type": "address"
        },
        {
          "internalType": "uint256",
          "name": "tokenId",
          "type": "uint256"
        }
      ],
      "name": "transferFrom",
      "outputs": [],
      "stateMutability": "nonpayable",
      "type": "function"
    },
    {
      "inputs": [
        {
          "internalType": "address",
          "name": "newOwner",
          "type": "address"
        }
      ],
      "name": "transferOwnership",
      "outputs": [],
      "stateMutability": "nonpayable",
      "type": "function"
    },
    {
      "inputs": [
        {
          "internalType": "bytes",
          "name": "signature",
          "type": "bytes"
        },
        {
          "internalType": "address",
          "name": "signer",
          "type": "address"
        }
      ],
      "name": "verifySigner",
      "outputs": [
        {
          "internalType": "bool",
          "name": "",
          "type": "bool"
        }
      ],
      "stateMutability": "view",
      "type": "function"
    },
    {
      "inputs": [],
      "name": "withdrawMoney",
      "outputs": [],
      "stateMutability": "nonpayable",
      "type": "function"
    }
  ],
  "transactionHash": "0xdf5f8718aed8444fc74406b80c676a712ea1ec9609de2dcb73b1815da072e0ae",
  "args": [
    "https://gateway.pinata.cloud/ipfs/QmchQb5AmN17JyLDMFimADLqvJ6o9iy3mJseDLQcwqxWcy/",
    "https://gateway.pinata.cloud/ipfs/QmbirXgZTaytbFGd6NmXtyihdqgJWi18fYodeLRNBAG23u",
    20,
    7777,
    200
  ],
  "numDeployments": 1,
  "solcInputHash": "60695d37edb9431c5e8b019705d5a776",
  "bytecode": "0x60c06040526000600181905560085567013fbe85edc90000600e556701f161421c8e0000600f8190556010556017805463ffffff00191663020100001790553480156200004b57600080fd5b5060405162004103380380620041038339810160408190526200006e9162000463565b6040518060400160405280600a815260200169416e65726f766572736560b01b81525060405180604001604052806005815260200164414e45524f60d81b8152508461ffff168461ffff16620000d3620000cd6200028460201b60201c565b62000288565b60008111620001405760405162461bcd60e51b815260206004820152602e60248201527f455243373231413a20636f6c6c656374696f6e206d757374206861766520612060448201526d6e6f6e7a65726f20737570706c7960901b60648201526084015b60405180910390fd5b60008211620001a25760405162461bcd60e51b815260206004820152602760248201527f455243373231413a206d61782062617463682073697a65206d757374206265206044820152666e6f6e7a65726f60c81b606482015260840162000137565b8351620001b7906002906020870190620002d8565b508251620001cd906003906020860190620002d8565b5060a0919091526080819052600160095561ffff8416111591506200023790505760405162461bcd60e51b815260206004820152601360248201527f45786365656473204d617820537570706c792e00000000000000000000000000604482015260640162000137565b84516200024c906015906020880190620002d8565b50835162000262906016906020870190620002d8565b50600a805461ffff191661ffff92909216919091179055506200054292505050565b3390565b600080546001600160a01b038381166001600160a01b0319831681178455604051919092169283917f8be0079c531659141344cd1fd0a4f28419497f9722a3daafe3b4186f6b6457e09190a35050565b828054620002e69062000505565b90600052602060002090601f0160209004810192826200030a576000855562000355565b82601f106200032557805160ff191683800117855562000355565b8280016001018555821562000355579182015b828111156200035557825182559160200191906001019062000338565b506200036392915062000367565b5090565b5b8082111562000363576000815560010162000368565b634e487b7160e01b600052604160045260246000fd5b600082601f830112620003a657600080fd5b81516001600160401b0380821115620003c357620003c36200037e565b604051601f8301601f19908116603f01168101908282118183101715620003ee57620003ee6200037e565b816040528381526020925086838588010111156200040b57600080fd5b600091505b838210156200042f578582018301518183018401529082019062000410565b83821115620004415760008385830101525b9695505050505050565b805161ffff811681146200045e57600080fd5b919050565b600080600080600060a086880312156200047c57600080fd5b85516001600160401b03808211156200049457600080fd5b620004a289838a0162000394565b96506020880151915080821115620004b957600080fd5b50620004c88882890162000394565b945050620004d9604087016200044b565b9250620004e9606087016200044b565b9150620004f9608087016200044b565b90509295509295909350565b600181811c908216806200051a57607f821691505b602082108114156200053c57634e487b7160e01b600052602260045260246000fd5b50919050565b60805160a051613b55620005ae60003960008181611e8f01528181611ebe01528181611f4d01528181611f82015281816127aa015281816127d40152612cab015260008181611001015281816114c50152818161195e01528181611bfb0152611dca0152613b556000f3fe6080604052600436106103355760003560e01c80638da5cb5b116101ab578063befc8120116100f7578063e3528aad11610095578063e985e9c51161006f578063e985e9c51461096d578063f2fde38b146109b6578063f64a8f26146109d6578063fbe1aa51146109f657600080fd5b8063e3528aad14610921578063e757c17d14610941578063e8d8b7f91461095757600080fd5b8063c87b56dd116100d1578063c87b56dd14610898578063cee232bb146108b8578063d7224ba0146108eb578063dc33e6811461090157600080fd5b8063befc812014610843578063c367ab4a14610856578063c6973b351461087657600080fd5b8063a22cb46511610164578063ac4460021161013e578063ac446002146107db578063b88d4fde146107f0578063b9ae46ab14610810578063b9be21781461083057600080fd5b8063a22cb46514610781578063a475b5dd146107a1578063aab402e5146107bb57600080fd5b80638da5cb5b1461068d5780639231ab2a146106ab57806392537e30146106f857806395d89b411461072c57806397b9447d146107415780639e6b90e61461076157600080fd5b80633c8e53521161028557806370a082311161022357806377a73a08116101fd57806377a73a08146106175780637d7eee4214610637578063881b72db14610657578063893a8f5b1461067757600080fd5b806370a08231146105c3578063715018a6146105e357806371b9b646146105f857600080fd5b806355f804b31161025f57806355f804b31461054d5780635cafa7411461056d5780636352211e1461058d5780636ca6fa0c146105ad57600080fd5b80633c8e5352146104fa57806342842e0e1461050d5780634f6ccce71461052d57600080fd5b806318160ddd116102f257806323b872dd116102cc57806323b872dd1461047a5780632a3f300c1461049a5780632f745c59146104ba57806338d14f6f146104da57600080fd5b806318160ddd1461042f5780631ffa0a7b146104445780632251cbe71461045a57600080fd5b806301ffc9a71461033a57806306d65af31461036f57806306fdde0314610393578063081812fc146103b5578063095ea7b3146103ed5780630e02d65f1461040f575b600080fd5b34801561034657600080fd5b5061035a6103553660046132bf565b610a11565b60405190151581526020015b60405180910390f35b34801561037b57600080fd5b50610385600b5481565b604051908152602001610366565b34801561039f57600080fd5b506103a8610a7e565b6040516103669190613334565b3480156103c157600080fd5b506103d56103d0366004613347565b610b10565b6040516001600160a01b039091168152602001610366565b3480156103f957600080fd5b5061040d61040836600461337c565b610ba0565b005b34801561041b57600080fd5b5061040d61042a366004613347565b610cb8565b34801561043b57600080fd5b50600154610385565b34801561045057600080fd5b5061038560105481565b34801561046657600080fd5b5061040d6104753660046133a6565b610ce7565b34801561048657600080fd5b5061040d6104953660046133fa565b610d61565b3480156104a657600080fd5b5061040d6104b5366004613446565b610d6c565b3480156104c657600080fd5b506103856104d536600461337c565b610da9565b3480156104e657600080fd5b5061040d6104f5366004613347565b610f21565b61040d6105083660046134b3565b610f50565b34801561051957600080fd5b5061040d6105283660046133fa565b6111a9565b34801561053957600080fd5b50610385610548366004613347565b6111c4565b34801561055957600080fd5b5061040d610568366004613590565b61122d565b34801561057957600080fd5b5061040d610588366004613347565b61126e565b34801561059957600080fd5b506103d56105a8366004613347565b61129d565b3480156105b957600080fd5b50610385600c5481565b3480156105cf57600080fd5b506103856105de3660046135d8565b6112af565b3480156105ef57600080fd5b5061040d611340565b34801561060457600080fd5b5060175461035a90610100900460ff1681565b34801561062357600080fd5b5061040d610632366004613590565b611376565b34801561064357600080fd5b5061040d610652366004613347565b6113b3565b34801561066357600080fd5b5061040d6106723660046135f3565b6113e2565b34801561068357600080fd5b50610385600f5481565b34801561069957600080fd5b506000546001600160a01b03166103d5565b3480156106b757600080fd5b506106cb6106c6366004613347565b61143e565b6040805182516001600160a01b031681526020928301516001600160401b03169281019290925201610366565b34801561070457600080fd5b50600a546107199062010000900461ffff1681565b60405161ffff9091168152602001610366565b34801561073857600080fd5b506103a861145b565b34801561074d57600080fd5b5061040d61075c366004613347565b61146a565b34801561076d57600080fd5b5061040d61077c366004613626565b611499565b34801561078d57600080fd5b5061040d61079c36600461364a565b611545565b3480156107ad57600080fd5b5060175461035a9060ff1681565b3480156107c757600080fd5b5061040d6107d6366004613446565b61160a565b3480156107e757600080fd5b5061040d61169f565b3480156107fc57600080fd5b5061040d61080b366004613674565b611784565b34801561081c57600080fd5b5061035a61082b3660046136ef565b6117bd565b61040d61083e3660046134b3565b6118b4565b61040d6108513660046134b3565b611b4a565b34801561086257600080fd5b5061040d610871366004613626565b611d9e565b34801561088257600080fd5b5061088b61201c565b6040516103669190613758565b3480156108a457600080fd5b506103a86108b3366004613347565b612067565b3480156108c457600080fd5b506017546108d9906301000000900460ff1681565b60405160ff9091168152602001610366565b3480156108f757600080fd5b5061038560085481565b34801561090d57600080fd5b5061038561091c3660046135d8565b6121d0565b34801561092d57600080fd5b5061040d61093c366004613347565b6121db565b34801561094d57600080fd5b50610385600e5481565b34801561096357600080fd5b50610385600d5481565b34801561097957600080fd5b5061035a610988366004613780565b6001600160a01b03918216600090815260076020908152604080832093909416825291909152205460ff1690565b3480156109c257600080fd5b5061040d6109d13660046135d8565b61220a565b3480156109e257600080fd5b506017546108d99062010000900460ff1681565b348015610a0257600080fd5b50600a546107199061ffff1681565b60006001600160e01b031982166380ac58cd60e01b1480610a4257506001600160e01b03198216635b5e139f60e01b145b80610a5d57506001600160e01b0319821663780e9d6360e01b145b80610a7857506301ffc9a760e01b6001600160e01b03198316145b92915050565b606060028054610a8d906137aa565b80601f0160208091040260200160405190810160405280929190818152602001828054610ab9906137aa565b8015610b065780601f10610adb57610100808354040283529160200191610b06565b820191906000526020600020905b815481529060010190602001808311610ae957829003601f168201915b5050505050905090565b6000610b1d826001541190565b610b845760405162461bcd60e51b815260206004820152602d60248201527f455243373231413a20617070726f76656420717565727920666f72206e6f6e6560448201526c3c34b9ba32b73a103a37b5b2b760991b60648201526084015b60405180910390fd5b506000908152600660205260409020546001600160a01b031690565b6000610bab8261129d565b9050806001600160a01b0316836001600160a01b03161415610c1a5760405162461bcd60e51b815260206004820152602260248201527f455243373231413a20617070726f76616c20746f2063757272656e74206f776e60448201526132b960f11b6064820152608401610b7b565b336001600160a01b0382161480610c365750610c368133610988565b610ca85760405162461bcd60e51b815260206004820152603960248201527f455243373231413a20617070726f76652063616c6c6572206973206e6f74206f60448201527f776e6572206e6f7220617070726f76656420666f7220616c6c000000000000006064820152608401610b7b565b610cb38383836122a5565b505050565b6000546001600160a01b03163314610ce25760405162461bcd60e51b8152600401610b7b906137e5565b600c55565b6000546001600160a01b03163314610d115760405162461bcd60e51b8152600401610b7b906137e5565b601180546001600160a01b039586166001600160a01b0319918216179091556012805494861694821694909417909355601380549285169284169290921790915560148054919093169116179055565b610cb3838383612301565b6000546001600160a01b03163314610d965760405162461bcd60e51b8152600401610b7b906137e5565b6017805460ff1916911515919091179055565b6000610db4836112af565b8210610e0d5760405162461bcd60e51b815260206004820152602260248201527f455243373231413a206f776e657220696e646578206f7574206f6620626f756e604482015261647360f01b6064820152608401610b7b565b6000610e1860015490565b905060008060005b83811015610ec1576000818152600460209081526040918290208251808401909352546001600160a01b038116808452600160a01b9091046001600160401b03169183019190915215610e7257805192505b876001600160a01b0316836001600160a01b03161415610eae5786841415610ea057509350610a7892505050565b83610eaa81613830565b9450505b5080610eb981613830565b915050610e20565b5060405162461bcd60e51b815260206004820152602e60248201527f455243373231413a20756e61626c6520746f2067657420746f6b656e206f662060448201526d0deeedccae440c4f240d2dcc8caf60931b6064820152608401610b7b565b6000546001600160a01b03163314610f4b5760405162461bcd60e51b8152600401610b7b906137e5565b600f55565b323314610f6f5760405162461bcd60e51b8152600401610b7b9061384b565b6002610f7961201c565b6003811115610f8a57610f8a613742565b14610fd75760405162461bcd60e51b815260206004820152601a60248201527f526166666c652073616c65206973206e6f74206163746976652e0000000000006044820152606401610b7b565b60026009541415610ffa5760405162461bcd60e51b8152600401610b7b90613882565b60026009557f000000000000000000000000000000000000000000000000000000000000000060ff841661102d60015490565b61103791906138b9565b11156110555760405162461bcd60e51b8152600401610b7b906138d1565b60135461106e90839083906001600160a01b03166117bd565b6110ba5760405162461bcd60e51b815260206004820152601f60248201527f596f7520617265206e6f7420726166666c652073616c65206d656d6265722e006044820152606401610b7b565b6017543360009081526018602090815260408083206002845290915290205460ff620100009092048216916110f1918691166138fd565b60ff1611156111335760405162461bcd60e51b815260206004820152600e60248201526d22bc31b2b2b239903634b6b4ba1760911b6044820152606401610b7b565b336000908152601860209081526040808320600284529091528120805485929061116190849060ff166138fd565b92506101000a81548160ff021916908360ff160217905550611186338460ff16612687565b61119f8360ff16600f5461119a9190613922565b6126a1565b5050600160095550565b610cb383838360405180602001604052806000815250611784565b60006111cf60015490565b82106112295760405162461bcd60e51b815260206004820152602360248201527f455243373231413a20676c6f62616c20696e646578206f7574206f6620626f756044820152626e647360e81b6064820152608401610b7b565b5090565b6000546001600160a01b031633146112575760405162461bcd60e51b8152600401610b7b906137e5565b805161126a906015906020840190613219565b5050565b6000546001600160a01b031633146112985760405162461bcd60e51b8152600401610b7b906137e5565b601055565b60006112a882612728565b5192915050565b60006001600160a01b03821661131b5760405162461bcd60e51b815260206004820152602b60248201527f455243373231413a2062616c616e636520717565727920666f7220746865207a60448201526a65726f206164647265737360a81b6064820152608401610b7b565b506001600160a01b03166000908152600560205260409020546001600160801b031690565b6000546001600160a01b0316331461136a5760405162461bcd60e51b8152600401610b7b906137e5565b61137460006128d1565b565b6000546001600160a01b031633146113a05760405162461bcd60e51b8152600401610b7b906137e5565b805161126a906016906020840190613219565b6000546001600160a01b031633146113dd5760405162461bcd60e51b8152600401610b7b906137e5565b600e55565b6000546001600160a01b0316331461140c5760405162461bcd60e51b8152600401610b7b906137e5565b6017805463ffff000019166201000060ff9485160263ff00000019161763010000009290931691909102919091179055565b6040805180820190915260008082526020820152610a7882612728565b606060038054610a8d906137aa565b6000546001600160a01b031633146114945760405162461bcd60e51b8152600401610b7b906137e5565b600b55565b6000546001600160a01b031633146114c35760405162461bcd60e51b8152600401610b7b906137e5565b7f00000000000000000000000000000000000000000000000000000000000000008161ffff16111561152d5760405162461bcd60e51b815260206004820152601360248201527222bc31b2b2b2399026b0bc1029bab838363c9760691b6044820152606401610b7b565b600a805461ffff191661ffff92909216919091179055565b6001600160a01b03821633141561159e5760405162461bcd60e51b815260206004820152601a60248201527f455243373231413a20617070726f766520746f2063616c6c65720000000000006044820152606401610b7b565b3360008181526007602090815260408083206001600160a01b03871680855290835292819020805460ff191686151590811790915590519081529192917f17307eab39ab6107e8899845ad3d59bd9653f200f220920489ca2b5937696c31910160405180910390a35050565b6000546001600160a01b031633146116345760405162461bcd60e51b8152600401610b7b906137e5565b60175460ff61010090910416151581151514156116855760405162461bcd60e51b815260206004820152600f60248201526e20b63932b0b23c9039b2ba3a32b21760891b6044820152606401610b7b565b601780549115156101000261ff0019909216919091179055565b6000546001600160a01b031633146116c95760405162461bcd60e51b8152600401610b7b906137e5565b600260095414156116ec5760405162461bcd60e51b8152600401610b7b90613882565b6002600955604051600090339047908381818185875af1925050503d8060008114611733576040519150601f19603f3d011682016040523d82523d6000602084013e611738565b606091505b505090508061177c5760405162461bcd60e51b815260206004820152601060248201526f2a3930b739b332b9103330b4b632b21760811b6044820152606401610b7b565b506001600955565b61178f848484612301565b61179b84848484612921565b6117b75760405162461bcd60e51b8152600401610b7b90613941565b50505050565b604080513360601b6bffffffffffffffffffffffff1916602080830191909152825160148184030181526034830184528051908201207f19457468657265756d205369676e6564204d6573736167653a0a33320000000060548401526070808401829052845180850390910181526090909301909352815191012060009190600061187e8288888080601f016020809104026020016040519081016040528093929190818152602001838380828437600092019190915250612a2092505050565b90506001600160a01b038116158015906118a95750846001600160a01b0316816001600160a01b0316145b979650505050505050565b3233146118d35760405162461bcd60e51b8152600401610b7b9061384b565b60016118dd61201c565b60038111156118ee576118ee613742565b146119345760405162461bcd60e51b8152602060048201526016602482015275283932b9b0b6329034b9903737ba1030b1ba34bb329760511b6044820152606401610b7b565b600260095414156119575760405162461bcd60e51b8152600401610b7b90613882565b60026009557f000000000000000000000000000000000000000000000000000000000000000060ff841661198a60015490565b61199491906138b9565b11156119b25760405162461bcd60e51b8152600401610b7b906138d1565b6017546012546201000090910460ff16906119d990849084906001600160a01b03166117bd565b156119f157506017546301000000900460ff16611a69565b601154611a0a90849084906001600160a01b03166117bd565b15611a21575060175462010000900460ff16611a69565b60405162461bcd60e51b815260206004820152601b60248201527f596f7520617265206e6f742070726573616c65206d656d6265722e00000000006044820152606401610b7b565b3360009081526018602090815260408083206001845290915290205460ff82811691611a97918791166138fd565b60ff161115611ad85760405162461bcd60e51b815260206004820152600d60248201526c115e18d959591cc81b1a5b5a5d609a1b6044820152606401610b7b565b3360009081526018602090815260408083206001845290915281208054869290611b0690849060ff166138fd565b92506101000a81548160ff021916908360ff160217905550611b2b338560ff16612687565b611b3f8460ff16600e5461119a9190613922565b505060016009555050565b323314611b695760405162461bcd60e51b8152600401610b7b9061384b565b6003611b7361201c565b6003811115611b8457611b84613742565b14611bd15760405162461bcd60e51b815260206004820152601c60248201527f52657365727665642073616c65206973206e6f74206163746976652e000000006044820152606401610b7b565b60026009541415611bf45760405162461bcd60e51b8152600401610b7b90613882565b60026009557f000000000000000000000000000000000000000000000000000000000000000060ff8416611c2760015490565b611c3191906138b9565b1115611c4f5760405162461bcd60e51b8152600401610b7b906138d1565b601454611c6890839083906001600160a01b03166117bd565b611cbe5760405162461bcd60e51b815260206004820152602160248201527f596f7520617265206e6f742072657365727665642073616c65206d656d6265726044820152601760f91b6064820152608401610b7b565b6017543360009081526018602090815260408083206003845290915290205460ff62010000909204821691611cf5918691166138fd565b60ff161115611d375760405162461bcd60e51b815260206004820152600e60248201526d22bc31b2b2b239903634b6b4ba1760911b6044820152606401610b7b565b3360009081526018602090815260408083206003845290915281208054859290611d6590849060ff166138fd565b92506101000a81548160ff021916908360ff160217905550611d8a338460ff16612687565b61119f8360ff1660105461119a9190613922565b6000546001600160a01b03163314611dc85760405162461bcd60e51b8152600401610b7b906137e5565b7f00000000000000000000000000000000000000000000000000000000000000008161ffff16611df760015490565b611e0191906138b9565b1115611e1f5760405162461bcd60e51b8152600401610b7b906138d1565b600a5461ffff80821691611e3b91849162010000900416613994565b61ffff161115611e8d5760405162461bcd60e51b815260206004820152601860248201527f5265616368656420646576206d696e7420737570706c792e00000000000000006044820152606401610b7b565b7f00000000000000000000000000000000000000000000000000000000000000008161ffff161115611f4957611ee77f000000000000000000000000000000000000000000000000000000000000000061ffff83166139d0565b15611f495760405162461bcd60e51b815260206004820152602c60248201527f63616e206f6e6c79206d696e742061206d756c7469706c65206f66207468652060448201526b6d6178426174636853697a6560a01b6064820152608401610b7b565b60007f00000000000000000000000000000000000000000000000000000000000000008261ffff1611611f80578161ffff16611fa2565b7f00000000000000000000000000000000000000000000000000000000000000005b90506000611fb48261ffff85166139e4565b905060005b81811015611fdd57611fcb3384612687565b80611fd581613830565b915050611fb9565b5082600a60028282829054906101000a900461ffff16611ffd9190613994565b92506101000a81548161ffff021916908361ffff160217905550505050565b601754600090610100900460ff166120345750600090565b600d5442106120435750600390565b600c5442106120525750600290565b600b5442106120615750600190565b50600090565b6060612074826001541190565b6120d85760405162461bcd60e51b815260206004820152602f60248201527f4552433732314d657461646174613a2055524920717565727920666f72206e6f60448201526e3732bc34b9ba32b73a103a37b5b2b760891b6064820152608401610b7b565b60175460ff1661217457601680546120ef906137aa565b80601f016020809104026020016040519081016040528092919081815260200182805461211b906137aa565b80156121685780601f1061213d57610100808354040283529160200191612168565b820191906000526020600020905b81548152906001019060200180831161214b57829003601f168201915b50505050509050919050565b600061217e612a44565b9050600081511161219e57604051806020016040528060008152506121c9565b806121a884612a53565b6040516020016121b99291906139f8565b6040516020818303038152906040525b9392505050565b6000610a7882612b50565b6000546001600160a01b031633146122055760405162461bcd60e51b8152600401610b7b906137e5565b600d55565b6000546001600160a01b031633146122345760405162461bcd60e51b8152600401610b7b906137e5565b6001600160a01b0381166122995760405162461bcd60e51b815260206004820152602660248201527f4f776e61626c653a206e6577206f776e657220697320746865207a65726f206160448201526564647265737360d01b6064820152608401610b7b565b6122a2816128d1565b50565b60008281526006602052604080822080546001600160a01b0319166001600160a01b0387811691821790925591518593918516917f8c5be1e5ebec7d5bd14f71427d1e84f3dd0314c0f7b2291e5b200ac8c7c3b92591a4505050565b600061230c82612728565b80519091506000906001600160a01b0316336001600160a01b0316148061234357503361233884610b10565b6001600160a01b0316145b80612355575081516123559033610988565b9050806123bf5760405162461bcd60e51b815260206004820152603260248201527f455243373231413a207472616e736665722063616c6c6572206973206e6f74206044820152711bdddb995c881b9bdc88185c1c1c9bdd995960721b6064820152608401610b7b565b846001600160a01b031682600001516001600160a01b0316146124335760405162461bcd60e51b815260206004820152602660248201527f455243373231413a207472616e736665722066726f6d20696e636f72726563746044820152651037bbb732b960d11b6064820152608401610b7b565b6001600160a01b0384166124975760405162461bcd60e51b815260206004820152602560248201527f455243373231413a207472616e7366657220746f20746865207a65726f206164604482015264647265737360d81b6064820152608401610b7b565b6124a760008484600001516122a5565b6001600160a01b03851660009081526005602052604081208054600192906124d99084906001600160801b0316613a37565b82546101009290920a6001600160801b038181021990931691831602179091556001600160a01b0386166000908152600560205260408120805460019450909261252591859116613a5f565b82546001600160801b039182166101009390930a9283029190920219909116179055506040805180820182526001600160a01b0380871682526001600160401b03428116602080850191825260008981526004909152948520935184549151909216600160a01b026001600160e01b031990911691909216171790556125ac8460016138b9565b6000818152600460205260409020549091506001600160a01b031661263d576125d6816001541190565b1561263d5760408051808201825284516001600160a01b0390811682526020808701516001600160401b039081168285019081526000878152600490935294909120925183549451909116600160a01b026001600160e01b03199094169116179190911790555b83856001600160a01b0316876001600160a01b03167fddf252ad1be2c89b69c2b068fc378daa952ba7f163c4a11628f55a4df523b3ef60405160405180910390a45b505050505050565b61126a828260405180602001604052806000815250612bee565b803410156126ea5760405162461bcd60e51b81526020600482015260166024820152752732b2b2103a379039b2b7321036b7b9329022aa241760511b6044820152606401610b7b565b803411156122a257336108fc6127008334613a81565b6040518115909202916000818181858888f1935050505015801561126a573d6000803e3d6000fd5b6040805180820190915260008082526020820152612747826001541190565b6127a65760405162461bcd60e51b815260206004820152602a60248201527f455243373231413a206f776e657220717565727920666f72206e6f6e657869736044820152693a32b73a103a37b5b2b760b11b6064820152608401610b7b565b60007f00000000000000000000000000000000000000000000000000000000000000008310612807576127f97f000000000000000000000000000000000000000000000000000000000000000084613a81565b6128049060016138b9565b90505b825b818110612870576000818152600460209081526040918290208251808401909352546001600160a01b038116808452600160a01b9091046001600160401b0316918301919091521561285d57949350505050565b508061286881613a98565b915050612809565b5060405162461bcd60e51b815260206004820152602f60248201527f455243373231413a20756e61626c6520746f2064657465726d696e652074686560448201526e1037bbb732b91037b3103a37b5b2b760891b6064820152608401610b7b565b600080546001600160a01b038381166001600160a01b0319831681178455604051919092169283917f8be0079c531659141344cd1fd0a4f28419497f9722a3daafe3b4186f6b6457e09190a35050565b60006001600160a01b0384163b15612a1457604051630a85bd0160e11b81526001600160a01b0385169063150b7a0290612965903390899088908890600401613aaf565b6020604051808303816000875af19250505080156129a0575060408051601f3d908101601f1916820190925261299d91810190613aec565b60015b6129fa573d8080156129ce576040519150601f19603f3d011682016040523d82523d6000602084013e6129d3565b606091505b5080516129f25760405162461bcd60e51b8152600401610b7b90613941565b805181602001fd5b6001600160e01b031916630a85bd0160e11b149050612a18565b5060015b949350505050565b6000806000612a2f8585612ec8565b91509150612a3c81612f38565b509392505050565b606060158054610a8d906137aa565b606081612a775750506040805180820190915260018152600360fc1b602082015290565b8160005b8115612aa15780612a8b81613830565b9150612a9a9050600a836139e4565b9150612a7b565b6000816001600160401b03811115612abb57612abb613505565b6040519080825280601f01601f191660200182016040528015612ae5576020820181803683370190505b5090505b8415612a1857612afa600183613a81565b9150612b07600a866139d0565b612b129060306138b9565b60f81b818381518110612b2757612b27613b09565b60200101906001600160f81b031916908160001a905350612b49600a866139e4565b9450612ae9565b60006001600160a01b038216612bc25760405162461bcd60e51b815260206004820152603160248201527f455243373231413a206e756d626572206d696e74656420717565727920666f7260448201527020746865207a65726f206164647265737360781b6064820152608401610b7b565b506001600160a01b0316600090815260056020526040902054600160801b90046001600160801b031690565b6001546001600160a01b038416612c515760405162461bcd60e51b815260206004820152602160248201527f455243373231413a206d696e7420746f20746865207a65726f206164647265736044820152607360f81b6064820152608401610b7b565b612c5c816001541190565b15612ca95760405162461bcd60e51b815260206004820152601d60248201527f455243373231413a20746f6b656e20616c7265616479206d696e7465640000006044820152606401610b7b565b7f0000000000000000000000000000000000000000000000000000000000000000831115612d245760405162461bcd60e51b815260206004820152602260248201527f455243373231413a207175616e7469747920746f206d696e7420746f6f2068696044820152610ced60f31b6064820152608401610b7b565b6001600160a01b0384166000908152600560209081526040918290208251808401845290546001600160801b038082168352600160801b9091041691810191909152815180830190925280519091908190612d80908790613a5f565b6001600160801b03168152602001858360200151612d9e9190613a5f565b6001600160801b039081169091526001600160a01b0380881660008181526005602090815260408083208751978301518716600160801b029790961696909617909455845180860186529182526001600160401b034281168386019081528883526004909552948120915182549451909516600160a01b026001600160e01b031990941694909216939093179190911790915582905b85811015612ebd5760405182906001600160a01b038916906000907fddf252ad1be2c89b69c2b068fc378daa952ba7f163c4a11628f55a4df523b3ef908290a4612e816000888488612921565b612e9d5760405162461bcd60e51b8152600401610b7b90613941565b81612ea781613830565b9250508080612eb590613830565b915050612e34565b50600181905561267f565b600080825160411415612eff5760208301516040840151606085015160001a612ef3878285856130f3565b94509450505050612f31565b825160401415612f295760208301516040840151612f1e8683836131e0565b935093505050612f31565b506000905060025b9250929050565b6000816004811115612f4c57612f4c613742565b1415612f555750565b6001816004811115612f6957612f69613742565b1415612fb75760405162461bcd60e51b815260206004820152601860248201527f45434453413a20696e76616c6964207369676e617475726500000000000000006044820152606401610b7b565b6002816004811115612fcb57612fcb613742565b14156130195760405162461bcd60e51b815260206004820152601f60248201527f45434453413a20696e76616c6964207369676e6174757265206c656e677468006044820152606401610b7b565b600381600481111561302d5761302d613742565b14156130865760405162461bcd60e51b815260206004820152602260248201527f45434453413a20696e76616c6964207369676e6174757265202773272076616c604482015261756560f01b6064820152608401610b7b565b600481600481111561309a5761309a613742565b14156122a25760405162461bcd60e51b815260206004820152602260248201527f45434453413a20696e76616c6964207369676e6174757265202776272076616c604482015261756560f01b6064820152608401610b7b565b6000807f7fffffffffffffffffffffffffffffff5d576e7357a4501ddfe92f46681b20a083111561312a57506000905060036131d7565b8460ff16601b1415801561314257508460ff16601c14155b1561315357506000905060046131d7565b6040805160008082526020820180845289905260ff881692820192909252606081018690526080810185905260019060a0016020604051602081039080840390855afa1580156131a7573d6000803e3d6000fd5b5050604051601f1901519150506001600160a01b0381166131d0576000600192509250506131d7565b9150600090505b94509492505050565b6000806001600160ff1b038316816131fd60ff86901c601b6138b9565b905061320b878288856130f3565b935093505050935093915050565b828054613225906137aa565b90600052602060002090601f016020900481019282613247576000855561328d565b82601f1061326057805160ff191683800117855561328d565b8280016001018555821561328d579182015b8281111561328d578251825591602001919060010190613272565b506112299291505b808211156112295760008155600101613295565b6001600160e01b0319811681146122a257600080fd5b6000602082840312156132d157600080fd5b81356121c9816132a9565b60005b838110156132f75781810151838201526020016132df565b838111156117b75750506000910152565b600081518084526133208160208601602086016132dc565b601f01601f19169290920160200192915050565b6020815260006121c96020830184613308565b60006020828403121561335957600080fd5b5035919050565b80356001600160a01b038116811461337757600080fd5b919050565b6000806040838503121561338f57600080fd5b61339883613360565b946020939093013593505050565b600080600080608085870312156133bc57600080fd5b6133c585613360565b93506133d360208601613360565b92506133e160408601613360565b91506133ef60608601613360565b905092959194509250565b60008060006060848603121561340f57600080fd5b61341884613360565b925061342660208501613360565b9150604084013590509250925092565b8035801515811461337757600080fd5b60006020828403121561345857600080fd5b6121c982613436565b803560ff8116811461337757600080fd5b60008083601f84011261348457600080fd5b5081356001600160401b0381111561349b57600080fd5b602083019150836020828501011115612f3157600080fd5b6000806000604084860312156134c857600080fd5b6134d184613461565b925060208401356001600160401b038111156134ec57600080fd5b6134f886828701613472565b9497909650939450505050565b634e487b7160e01b600052604160045260246000fd5b60006001600160401b038084111561353557613535613505565b604051601f8501601f19908116603f0116810190828211818310171561355d5761355d613505565b8160405280935085815286868601111561357657600080fd5b858560208301376000602087830101525050509392505050565b6000602082840312156135a257600080fd5b81356001600160401b038111156135b857600080fd5b8201601f810184136135c957600080fd5b612a188482356020840161351b565b6000602082840312156135ea57600080fd5b6121c982613360565b6000806040838503121561360657600080fd5b61360f83613461565b915061361d60208401613461565b90509250929050565b60006020828403121561363857600080fd5b813561ffff811681146121c957600080fd5b6000806040838503121561365d57600080fd5b61366683613360565b915061361d60208401613436565b6000806000806080858703121561368a57600080fd5b61369385613360565b93506136a160208601613360565b92506040850135915060608501356001600160401b038111156136c357600080fd5b8501601f810187136136d457600080fd5b6136e38782356020840161351b565b91505092959194509250565b60008060006040848603121561370457600080fd5b83356001600160401b0381111561371a57600080fd5b61372686828701613472565b9094509250613739905060208501613360565b90509250925092565b634e487b7160e01b600052602160045260246000fd5b602081016004831061377a57634e487b7160e01b600052602160045260246000fd5b91905290565b6000806040838503121561379357600080fd5b61379c83613360565b915061361d60208401613360565b600181811c908216806137be57607f821691505b602082108114156137df57634e487b7160e01b600052602260045260246000fd5b50919050565b6020808252818101527f4f776e61626c653a2063616c6c6572206973206e6f7420746865206f776e6572604082015260600190565b634e487b7160e01b600052601160045260246000fd5b60006000198214156138445761384461381a565b5060010190565b6020808252601e908201527f5468652063616c6c657220697320616e6f7468657220636f6e74726163740000604082015260600190565b6020808252601f908201527f5265656e7472616e637947756172643a207265656e7472616e742063616c6c00604082015260600190565b600082198211156138cc576138cc61381a565b500190565b60208082526012908201527145786365656473204d617820537570706c7960701b604082015260600190565b600060ff821660ff84168060ff0382111561391a5761391a61381a565b019392505050565b600081600019048311821515161561393c5761393c61381a565b500290565b60208082526033908201527f455243373231413a207472616e7366657220746f206e6f6e204552433732315260408201527232b1b2b4bb32b91034b6b83632b6b2b73a32b960691b606082015260800190565b600061ffff8083168185168083038211156139b1576139b161381a565b01949350505050565b634e487b7160e01b600052601260045260246000fd5b6000826139df576139df6139ba565b500690565b6000826139f3576139f36139ba565b500490565b60008351613a0a8184602088016132dc565b835190830190613a1e8183602088016132dc565b64173539b7b760d91b9101908152600501949350505050565b60006001600160801b0383811690831681811015613a5757613a5761381a565b039392505050565b60006001600160801b038083168185168083038211156139b1576139b161381a565b600082821015613a9357613a9361381a565b500390565b600081613aa757613aa761381a565b506000190190565b6001600160a01b0385811682528416602082015260408101839052608060608201819052600090613ae290830184613308565b9695505050505050565b600060208284031215613afe57600080fd5b81516121c9816132a9565b634e487b7160e01b600052603260045260246000fdfea2646970667358221220da39fc12960f65c50b2db197cb031e3ef665e447f5d22e3207e60a65508b4aee64736f6c634300080a0033",
  "devdoc": {
    "kind": "dev",
    "methods": {
      "approve(address,uint256)": {
        "details": "See {IERC721-approve}."
      },
      "balanceOf(address)": {
        "details": "See {IERC721-balanceOf}."
      },
      "constructor": {
        "params": {
          "_baseURIString": "metadata base url",
          "_placeholder": "metadata before reveal",
          "amountForDevs_": "Amount for Presale mint",
          "collectionSize_": "NFT collection size",
          "maxBatchSize_": "Max size for ERC721A batch mint."
        }
      },
      "getApproved(uint256)": {
        "details": "See {IERC721-getApproved}."
      },
      "isApprovedForAll(address,address)": {
        "details": "See {IERC721-isApprovedForAll}."
      },
      "name()": {
        "details": "See {IERC721Metadata-name}."
      },
      "owner()": {
        "details": "Returns the address of the current owner."
      },
      "ownerOf(uint256)": {
        "details": "See {IERC721-ownerOf}."
      },
      "renounceOwnership()": {
        "details": "Leaves the contract without owner. It will not be possible to call `onlyOwner` functions anymore. Can only be called by the current owner. NOTE: Renouncing ownership will leave the contract without an owner, thereby removing any functionality that is only available to the owner."
      },
      "safeTransferFrom(address,address,uint256)": {
        "details": "See {IERC721-safeTransferFrom}."
      },
      "safeTransferFrom(address,address,uint256,bytes)": {
        "details": "See {IERC721-safeTransferFrom}."
      },
      "setApprovalForAll(address,bool)": {
        "details": "See {IERC721-setApprovalForAll}."
      },
      "supportsInterface(bytes4)": {
        "details": "See {IERC165-supportsInterface}."
      },
      "symbol()": {
        "details": "See {IERC721Metadata-symbol}."
      },
      "tokenByIndex(uint256)": {
        "details": "See {IERC721Enumerable-tokenByIndex}."
      },
      "tokenOfOwnerByIndex(address,uint256)": {
        "details": "See {IERC721Enumerable-tokenOfOwnerByIndex}. This read function is O(collectionSize). If calling from a separate contract, be sure to test gas first. It may also degrade with extremely large collection sizes (e.g >> 10000), test for your use case."
      },
      "tokenURI(uint256)": {
        "details": "See {IERC721Metadata-tokenURI}."
      },
      "totalSupply()": {
        "details": "See {IERC721Enumerable-totalSupply}."
      },
      "transferFrom(address,address,uint256)": {
        "details": "See {IERC721-transferFrom}."
      },
      "transferOwnership(address)": {
        "details": "Transfers ownership of the contract to a new account (`newOwner`). Can only be called by the current owner."
      }
    },
    "version": 1
  },
  "userdoc": {
    "kind": "user",
    "methods": {},
    "version": 1
  },
  "storageLayout": {
    "storage": [
      {
        "astId": 7,
        "contract": "contracts/Anero.sol:Anero",
        "label": "_owner",
        "offset": 0,
        "slot": "0",
        "type": "t_address"
      },
      {
        "astId": 2236,
        "contract": "contracts/Anero.sol:Anero",
        "label": "currentIndex",
        "offset": 0,
        "slot": "1",
        "type": "t_uint256"
      },
      {
        "astId": 2242,
        "contract": "contracts/Anero.sol:Anero",
        "label": "_name",
        "offset": 0,
        "slot": "2",
        "type": "t_string_storage"
      },
      {
        "astId": 2244,
        "contract": "contracts/Anero.sol:Anero",
        "label": "_symbol",
        "offset": 0,
        "slot": "3",
        "type": "t_string_storage"
      },
      {
        "astId": 2249,
        "contract": "contracts/Anero.sol:Anero",
        "label": "_ownerships",
        "offset": 0,
        "slot": "4",
        "type": "t_mapping(t_uint256,t_struct(TokenOwnership)2228_storage)"
      },
      {
        "astId": 2254,
        "contract": "contracts/Anero.sol:Anero",
        "label": "_addressData",
        "offset": 0,
        "slot": "5",
        "type": "t_mapping(t_address,t_struct(AddressData)2233_storage)"
      },
      {
        "astId": 2258,
        "contract": "contracts/Anero.sol:Anero",
        "label": "_tokenApprovals",
        "offset": 0,
        "slot": "6",
        "type": "t_mapping(t_uint256,t_address)"
      },
      {
        "astId": 2264,
        "contract": "contracts/Anero.sol:Anero",
        "label": "_operatorApprovals",
        "offset": 0,
        "slot": "7",
        "type": "t_mapping(t_address,t_mapping(t_address,t_bool))"
      },
      {
        "astId": 3207,
        "contract": "contracts/Anero.sol:Anero",
        "label": "nextOwnerToExplicitlySet",
        "offset": 0,
        "slot": "8",
        "type": "t_uint256"
      },
      {
        "astId": 115,
        "contract": "contracts/Anero.sol:Anero",
        "label": "_status",
        "offset": 0,
        "slot": "9",
        "type": "t_uint256"
      },
      {
        "astId": 1319,
        "contract": "contracts/Anero.sol:Anero",
        "label": "amountForDevs",
        "offset": 0,
        "slot": "10",
        "type": "t_uint16"
      },
      {
        "astId": 1321,
        "contract": "contracts/Anero.sol:Anero",
        "label": "currentDevMintAmount",
        "offset": 2,
        "slot": "10",
        "type": "t_uint16"
      },
      {
        "astId": 1323,
        "contract": "contracts/Anero.sol:Anero",
        "label": "preSaleStartTime",
        "offset": 0,
        "slot": "11",
        "type": "t_uint256"
      },
      {
        "astId": 1325,
        "contract": "contracts/Anero.sol:Anero",
        "label": "raffleSaleStartTime",
        "offset": 0,
        "slot": "12",
        "type": "t_uint256"
      },
      {
        "astId": 1327,
        "contract": "contracts/Anero.sol:Anero",
        "label": "reservedSaleStartTime",
        "offset": 0,
        "slot": "13",
        "type": "t_uint256"
      },
      {
        "astId": 1330,
        "contract": "contracts/Anero.sol:Anero",
        "label": "preSalePrice",
        "offset": 0,
        "slot": "14",
        "type": "t_uint256"
      },
      {
        "astId": 1333,
        "contract": "contracts/Anero.sol:Anero",
        "label": "raffleSalePrice",
        "offset": 0,
        "slot": "15",
        "type": "t_uint256"
      },
      {
        "astId": 1336,
        "contract": "contracts/Anero.sol:Anero",
        "label": "reservedSalePrice",
        "offset": 0,
        "slot": "16",
        "type": "t_uint256"
      },
      {
        "astId": 1338,
        "contract": "contracts/Anero.sol:Anero",
        "label": "preSaleSigner1",
        "offset": 0,
        "slot": "17",
        "type": "t_address"
      },
      {
        "astId": 1340,
        "contract": "contracts/Anero.sol:Anero",
        "label": "preSaleSigner2",
        "offset": 0,
        "slot": "18",
        "type": "t_address"
      },
      {
        "astId": 1342,
        "contract": "contracts/Anero.sol:Anero",
        "label": "raffleSaleSigner",
        "offset": 0,
        "slot": "19",
        "type": "t_address"
      },
      {
        "astId": 1344,
        "contract": "contracts/Anero.sol:Anero",
        "label": "reservedSaleSigner",
        "offset": 0,
        "slot": "20",
        "type": "t_address"
      },
      {
        "astId": 1346,
        "contract": "contracts/Anero.sol:Anero",
        "label": "_baseTokenURI",
        "offset": 0,
        "slot": "21",
        "type": "t_string_storage"
      },
      {
        "astId": 1348,
        "contract": "contracts/Anero.sol:Anero",
        "label": "_placeHolderURI",
        "offset": 0,
        "slot": "22",
        "type": "t_string_storage"
      },
      {
        "astId": 1350,
        "contract": "contracts/Anero.sol:Anero",
        "label": "reveal",
        "offset": 0,
        "slot": "23",
        "type": "t_bool"
      },
      {
        "astId": 1353,
        "contract": "contracts/Anero.sol:Anero",
        "label": "saleEnabled",
        "offset": 1,
        "slot": "23",
        "type": "t_bool"
      },
      {
        "astId": 1356,
        "contract": "contracts/Anero.sol:Anero",
        "label": "limit1",
        "offset": 2,
        "slot": "23",
        "type": "t_uint8"
      },
      {
        "astId": 1359,
        "contract": "contracts/Anero.sol:Anero",
        "label": "limit2",
        "offset": 3,
        "slot": "23",
        "type": "t_uint8"
      },
      {
        "astId": 1371,
        "contract": "contracts/Anero.sol:Anero",
        "label": "mintedAmountPerWallet",
        "offset": 0,
        "slot": "24",
        "type": "t_mapping(t_address,t_mapping(t_enum(SalePhase)1364,t_uint8))"
      }
    ],
    "types": {
      "t_address": {
        "encoding": "inplace",
        "label": "address",
        "numberOfBytes": "20"
      },
      "t_bool": {
        "encoding": "inplace",
        "label": "bool",
        "numberOfBytes": "1"
      },
      "t_enum(SalePhase)1364": {
        "encoding": "inplace",
        "label": "enum Anero.SalePhase",
        "numberOfBytes": "1"
      },
      "t_mapping(t_address,t_bool)": {
        "encoding": "mapping",
        "key": "t_address",
        "label": "mapping(address => bool)",
        "numberOfBytes": "32",
        "value": "t_bool"
      },
      "t_mapping(t_address,t_mapping(t_address,t_bool))": {
        "encoding": "mapping",
        "key": "t_address",
        "label": "mapping(address => mapping(address => bool))",
        "numberOfBytes": "32",
        "value": "t_mapping(t_address,t_bool)"
      },
      "t_mapping(t_address,t_mapping(t_enum(SalePhase)1364,t_uint8))": {
        "encoding": "mapping",
        "key": "t_address",
        "label": "mapping(address => mapping(enum Anero.SalePhase => uint8))",
        "numberOfBytes": "32",
        "value": "t_mapping(t_enum(SalePhase)1364,t_uint8)"
      },
      "t_mapping(t_address,t_struct(AddressData)2233_storage)": {
        "encoding": "mapping",
        "key": "t_address",
        "label": "mapping(address => struct ERC721A.AddressData)",
        "numberOfBytes": "32",
        "value": "t_struct(AddressData)2233_storage"
      },
      "t_mapping(t_enum(SalePhase)1364,t_uint8)": {
        "encoding": "mapping",
        "key": "t_enum(SalePhase)1364",
        "label": "mapping(enum Anero.SalePhase => uint8)",
        "numberOfBytes": "32",
        "value": "t_uint8"
      },
      "t_mapping(t_uint256,t_address)": {
        "encoding": "mapping",
        "key": "t_uint256",
        "label": "mapping(uint256 => address)",
        "numberOfBytes": "32",
        "value": "t_address"
      },
      "t_mapping(t_uint256,t_struct(TokenOwnership)2228_storage)": {
        "encoding": "mapping",
        "key": "t_uint256",
        "label": "mapping(uint256 => struct ERC721A.TokenOwnership)",
        "numberOfBytes": "32",
        "value": "t_struct(TokenOwnership)2228_storage"
      },
      "t_string_storage": {
        "encoding": "bytes",
        "label": "string",
        "numberOfBytes": "32"
      },
      "t_struct(AddressData)2233_storage": {
        "encoding": "inplace",
        "label": "struct ERC721A.AddressData",
        "members": [
          {
            "astId": 2230,
            "contract": "contracts/Anero.sol:Anero",
            "label": "balance",
            "offset": 0,
            "slot": "0",
            "type": "t_uint128"
          },
          {
            "astId": 2232,
            "contract": "contracts/Anero.sol:Anero",
            "label": "numberMinted",
            "offset": 16,
            "slot": "0",
            "type": "t_uint128"
          }
        ],
        "numberOfBytes": "32"
      },
      "t_struct(TokenOwnership)2228_storage": {
        "encoding": "inplace",
        "label": "struct ERC721A.TokenOwnership",
        "members": [
          {
            "astId": 2225,
            "contract": "contracts/Anero.sol:Anero",
            "label": "addr",
            "offset": 0,
            "slot": "0",
            "type": "t_address"
          },
          {
            "astId": 2227,
            "contract": "contracts/Anero.sol:Anero",
            "label": "startTimestamp",
            "offset": 20,
            "slot": "0",
            "type": "t_uint64"
          }
        ],
        "numberOfBytes": "32"
      },
      "t_uint128": {
        "encoding": "inplace",
        "label": "uint128",
        "numberOfBytes": "16"
      },
      "t_uint16": {
        "encoding": "inplace",
        "label": "uint16",
        "numberOfBytes": "2"
      },
      "t_uint256": {
        "encoding": "inplace",
        "label": "uint256",
        "numberOfBytes": "32"
      },
      "t_uint64": {
        "encoding": "inplace",
        "label": "uint64",
        "numberOfBytes": "8"
      },
      "t_uint8": {
        "encoding": "inplace",
        "label": "uint8",
        "numberOfBytes": "1"
      }
    }
  }
}