{
  "address": "0x031349a3d9fd2A97A3e6BAB645776c19A198daAC",
  "abi": [
    {
      "inputs": [
        {
          "internalType": "contract ERC721Partial",
          "name": "_nft",
          "type": "address"
        },
        {
          "internalType": "address",
          "name": "_signer",
          "type": "address"
        }
      ],
      "stateMutability": "nonpayable",
      "type": "constructor"
    },
    {
      "anonymous": false,
      "inputs": [
        {
          "indexed": true,
          "internalType": "address",
          "name": "previousOwner",
          "type": "address"
        },
        {
          "indexed": true,
          "internalType": "address",
          "name": "newOwner",
          "type": "address"
        }
      ],
      "name": "OwnershipTransferred",
      "type": "event"
    },
    {
      "inputs": [],
      "name": "airdropAmount",
      "outputs": [
        {
          "internalType": "uint16",
          "name": "",
          "type": "uint16"
        }
      ],
      "stateMutability": "view",
      "type": "function"
    },
    {
      "inputs": [
        {
          "internalType": "uint16",
          "name": "amount",
          "type": "uint16"
        },
        {
          "internalType": "bytes",
          "name": "signature",
          "type": "bytes"
        }
      ],
      "name": "claim",
      "outputs": [],
      "stateMutability": "nonpayable",
      "type": "function"
    },
    {
      "inputs": [
        {
          "internalType": "address",
          "name": "",
          "type": "address"
        }
      ],
      "name": "claimed",
      "outputs": [
        {
          "internalType": "bool",
          "name": "",
          "type": "bool"
        }
      ],
      "stateMutability": "view",
      "type": "function"
    },
    {
      "inputs": [],
      "name": "nft",
      "outputs": [
        {
          "internalType": "contract ERC721Partial",
          "name": "",
          "type": "address"
        }
      ],
      "stateMutability": "view",
      "type": "function"
    },
    {
      "inputs": [],
      "name": "owner",
      "outputs": [
        {
          "internalType": "address",
          "name": "",
          "type": "address"
        }
      ],
      "stateMutability": "view",
      "type": "function"
    },
    {
      "inputs": [],
      "name": "renounceOwnership",
      "outputs": [],
      "stateMutability": "nonpayable",
      "type": "function"
    },
    {
      "inputs": [
        {
          "internalType": "uint16",
          "name": "_airdropAmount",
          "type": "uint16"
        }
      ],
      "name": "setAirdropAmount",
      "outputs": [],
      "stateMutability": "nonpayable",
      "type": "function"
    },
    {
      "inputs": [
        {
          "internalType": "address",
          "name": "_signer",
          "type": "address"
        }
      ],
      "name": "setSigner",
      "outputs": [],
      "stateMutability": "nonpayable",
      "type": "function"
    },
    {
      "inputs": [
        {
          "internalType": "address",
          "name": "_treasury",
          "type": "address"
        }
      ],
      "name": "setTreasury",
      "outputs": [],
      "stateMutability": "nonpayable",
      "type": "function"
    },
    {
      "inputs": [],
      "name": "totalAirdropCount",
      "outputs": [
        {
          "internalType": "uint16",
          "name": "",
          "type": "uint16"
        }
      ],
      "stateMutability": "view",
      "type": "function"
    },
    {
      "inputs": [
        {
          "internalType": "address",
          "name": "newOwner",
          "type": "address"
        }
      ],
      "name": "transferOwnership",
      "outputs": [],
      "stateMutability": "nonpayable",
      "type": "function"
    }
  ],
  "transactionHash": "0xbcb047169ad2af7741f8d40336f20475c60dfddac208a728ceb96d64e1aa823a",
  "args": [
    "0x926baA7445D56D5E8632046409cDC7d5844CE344",
    "0x5e6cCfBa0aB8Bf8BDEE5ABe9f6eE0BB2f274a609"
  ],
  "numDeployments": 1,
  "solcInputHash": "304d84d2e69a0618b7526209606c5c7d",
  "bytecode": "0x60806040526001805461ffff60b01b19166103a160b11b17905534801561002557600080fd5b50604051610e03380380610e03833981016040819052610044916100f6565b61004d3361008e565b600180546001600160a01b039384166001600160a01b0319918216179091556002805492909316918116919091179091556003805490911633179055610130565b600080546001600160a01b038381166001600160a01b0319831681178455604051919092169283917f8be0079c531659141344cd1fd0a4f28419497f9722a3daafe3b4186f6b6457e09190a35050565b6001600160a01b03811681146100f357600080fd5b50565b6000806040838503121561010957600080fd5b8251610114816100de565b6020840151909250610125816100de565b809150509250929050565b610cc48061013f6000396000f3fe608060405234801561001057600080fd5b50600436106100a95760003560e01c80638da5cb5b116100715780638da5cb5b14610136578063a4064b2c14610147578063c884ef831461015a578063f0f442601461018d578063f2fde38b146101a0578063fc2ea8a5146101b357600080fd5b806347ccca02146100ae5780636872ad86146100de5780636c19e78314610106578063715018a61461011b5780638694dab614610123575b600080fd5b6001546100c1906001600160a01b031681565b6040516001600160a01b0390911681526020015b60405180910390f35b6001546100f390600160a01b900461ffff1681565b60405161ffff90911681526020016100d5565b610119610114366004610acf565b6101c8565b005b61011961021d565b610119610131366004610b16565b610253565b6000546001600160a01b03166100c1565b610119610155366004610b99565b6104d0565b61017d610168366004610acf565b60046020526000908152604090205460ff1681565b60405190151581526020016100d5565b61011961019b366004610acf565b61051c565b6101196101ae366004610acf565b610568565b6001546100f390600160b01b900461ffff1681565b6000546001600160a01b031633146101fb5760405162461bcd60e51b81526004016101f290610bb4565b60405180910390fd5b600280546001600160a01b0319166001600160a01b0392909216919091179055565b6000546001600160a01b031633146102475760405162461bcd60e51b81526004016101f290610bb4565b6102516000610603565b565b61025e828285610653565b61029f5760405162461bcd60e51b815260206004820152601260248201527124b73b30b634b21039b4b3b730ba3ab9329760711b60448201526064016101f2565b60015461ffff600160b01b82048116916102c2918691600160a01b900416610bff565b61ffff16111561030b5760405162461bcd60e51b8152602060048201526014602482015273115e18d959591cc818db185a5b48185b5bdd5b9d60621b60448201526064016101f2565b3360009081526004602052604090205460ff161561035e5760405162461bcd60e51b815260206004820152601060248201526f20b63932b0b23c9031b630b4b6b2b21760811b60448201526064016101f2565b60005b8361ffff168161ffff16101561047457600154600354604051632f745c5960e01b81526001600160a01b03918216600482015261ffff841660248201526000929190911690632f745c5990604401602060405180830381865afa1580156103cc573d6000803e3d6000fd5b505050506040513d601f19601f820116820180604052508101906103f09190610c25565b6001546003546040516323b872dd60e01b81526001600160a01b0391821660048201523360248201526044810184905292935016906323b872dd90606401600060405180830381600087803b15801561044857600080fd5b505af115801561045c573d6000803e3d6000fd5b5050505050808061046c90610c3e565b915050610361565b50336000908152600460205260409020805460ff1916600190811790915580548491906014906104b190849061ffff600160a01b90910416610bff565b92506101000a81548161ffff021916908361ffff160217905550505050565b6000546001600160a01b031633146104fa5760405162461bcd60e51b81526004016101f290610bb4565b6001805461ffff909216600160b01b0261ffff60b01b19909216919091179055565b6000546001600160a01b031633146105465760405162461bcd60e51b81526004016101f290610bb4565b600380546001600160a01b0319166001600160a01b0392909216919091179055565b6000546001600160a01b031633146105925760405162461bcd60e51b81526004016101f290610bb4565b6001600160a01b0381166105f75760405162461bcd60e51b815260206004820152602660248201527f4f776e61626c653a206e6577206f776e657220697320746865207a65726f206160448201526564647265737360d01b60648201526084016101f2565b61060081610603565b50565b600080546001600160a01b038381166001600160a01b0319831681178455604051919092169283917f8be0079c531659141344cd1fd0a4f28419497f9722a3daafe3b4186f6b6457e09190a35050565b604080513360601b6bffffffffffffffffffffffff191660208083019190915260f084901b6001600160f01b0319166034830152825160168184030181526036830184528051908201207f19457468657265756d205369676e6564204d6573736167653a0a3332000000006056840152607280840182905284518085039091018152609290930190935281519101206000919060006107288288888080601f01602080910402602001604051908101604052809392919081815260200183838082843760009201919091525061075a92505050565b90506001600160a01b0381161580159061074f57506002546001600160a01b038281169116145b979650505050505050565b6000806000610769858561077e565b91509150610776816107ee565b509392505050565b6000808251604114156107b55760208301516040840151606085015160001a6107a9878285856109a9565b945094505050506107e7565b8251604014156107df57602083015160408401516107d4868383610a96565b9350935050506107e7565b506000905060025b9250929050565b600081600481111561080257610802610c60565b141561080b5750565b600181600481111561081f5761081f610c60565b141561086d5760405162461bcd60e51b815260206004820152601860248201527f45434453413a20696e76616c6964207369676e6174757265000000000000000060448201526064016101f2565b600281600481111561088157610881610c60565b14156108cf5760405162461bcd60e51b815260206004820152601f60248201527f45434453413a20696e76616c6964207369676e6174757265206c656e6774680060448201526064016101f2565b60038160048111156108e3576108e3610c60565b141561093c5760405162461bcd60e51b815260206004820152602260248201527f45434453413a20696e76616c6964207369676e6174757265202773272076616c604482015261756560f01b60648201526084016101f2565b600481600481111561095057610950610c60565b14156106005760405162461bcd60e51b815260206004820152602260248201527f45434453413a20696e76616c6964207369676e6174757265202776272076616c604482015261756560f01b60648201526084016101f2565b6000807f7fffffffffffffffffffffffffffffff5d576e7357a4501ddfe92f46681b20a08311156109e05750600090506003610a8d565b8460ff16601b141580156109f857508460ff16601c14155b15610a095750600090506004610a8d565b6040805160008082526020820180845289905260ff881692820192909252606081018690526080810185905260019060a0016020604051602081039080840390855afa158015610a5d573d6000803e3d6000fd5b5050604051601f1901519150506001600160a01b038116610a8657600060019250925050610a8d565b9150600090505b94509492505050565b6000806001600160ff1b03831681610ab360ff86901c601b610c76565b9050610ac1878288856109a9565b935093505050935093915050565b600060208284031215610ae157600080fd5b81356001600160a01b0381168114610af857600080fd5b9392505050565b803561ffff81168114610b1157600080fd5b919050565b600080600060408486031215610b2b57600080fd5b610b3484610aff565b9250602084013567ffffffffffffffff80821115610b5157600080fd5b818601915086601f830112610b6557600080fd5b813581811115610b7457600080fd5b876020828501011115610b8657600080fd5b6020830194508093505050509250925092565b600060208284031215610bab57600080fd5b610af882610aff565b6020808252818101527f4f776e61626c653a2063616c6c6572206973206e6f7420746865206f776e6572604082015260600190565b634e487b7160e01b600052601160045260246000fd5b600061ffff808316818516808303821115610c1c57610c1c610be9565b01949350505050565b600060208284031215610c3757600080fd5b5051919050565b600061ffff80831681811415610c5657610c56610be9565b6001019392505050565b634e487b7160e01b600052602160045260246000fd5b60008219821115610c8957610c89610be9565b50019056fea2646970667358221220bc94ce14987331deb475cf3ba5a187725c4086671ff9d0a09be5aa2c4679a11264736f6c634300080a0033",
  "devdoc": {
    "kind": "dev",
    "methods": {
      "claim(uint16,bytes)": {
        "params": {
          "amount": "Which token IDs are transferred?"
        }
      },
      "owner()": {
        "details": "Returns the address of the current owner."
      },
      "renounceOwnership()": {
        "details": "Leaves the contract without owner. It will not be possible to call `onlyOwner` functions anymore. Can only be called by the current owner. NOTE: Renouncing ownership will leave the contract without an owner, thereby removing any functionality that is only available to the owner."
      },
      "transferOwnership(address)": {
        "details": "Transfers ownership of the contract to a new account (`newOwner`). Can only be called by the current owner."
      }
    },
    "version": 1
  },
  "userdoc": {
    "kind": "user",
    "methods": {
      "claim(uint16,bytes)": {
        "notice": "Tokens on the given ERC-721 contract are transferred from you to a recipient."
      }
    },
    "version": 1
  },
  "storageLayout": {
    "storage": [
      {
        "astId": 26,
        "contract": "contracts/Airdrop.sol:Airdrop",
        "label": "_owner",
        "offset": 0,
        "slot": "0",
        "type": "t_address"
      },
      {
        "astId": 758,
        "contract": "contracts/Airdrop.sol:Airdrop",
        "label": "nft",
        "offset": 0,
        "slot": "1",
        "type": "t_contract(ERC721Partial)747"
      },
      {
        "astId": 760,
        "contract": "contracts/Airdrop.sol:Airdrop",
        "label": "totalAirdropCount",
        "offset": 20,
        "slot": "1",
        "type": "t_uint16"
      },
      {
        "astId": 763,
        "contract": "contracts/Airdrop.sol:Airdrop",
        "label": "airdropAmount",
        "offset": 22,
        "slot": "1",
        "type": "t_uint16"
      },
      {
        "astId": 765,
        "contract": "contracts/Airdrop.sol:Airdrop",
        "label": "signer",
        "offset": 0,
        "slot": "2",
        "type": "t_address"
      },
      {
        "astId": 767,
        "contract": "contracts/Airdrop.sol:Airdrop",
        "label": "treasury",
        "offset": 0,
        "slot": "3",
        "type": "t_address"
      },
      {
        "astId": 771,
        "contract": "contracts/Airdrop.sol:Airdrop",
        "label": "claimed",
        "offset": 0,
        "slot": "4",
        "type": "t_mapping(t_address,t_bool)"
      }
    ],
    "types": {
      "t_address": {
        "encoding": "inplace",
        "label": "address",
        "numberOfBytes": "20"
      },
      "t_bool": {
        "encoding": "inplace",
        "label": "bool",
        "numberOfBytes": "1"
      },
      "t_contract(ERC721Partial)747": {
        "encoding": "inplace",
        "label": "contract ERC721Partial",
        "numberOfBytes": "20"
      },
      "t_mapping(t_address,t_bool)": {
        "encoding": "mapping",
        "key": "t_address",
        "label": "mapping(address => bool)",
        "numberOfBytes": "32",
        "value": "t_bool"
      },
      "t_uint16": {
        "encoding": "inplace",
        "label": "uint16",
        "numberOfBytes": "2"
      }
    }
  }
}