{
  "address": "0x17589c2fACdf08380468da92a04cFb0EA2aD0C92",
  "abi": [
    {
      "inputs": [
        {
          "internalType": "contract ERC721Partial",
          "name": "_nft",
          "type": "address"
        },
        {
          "internalType": "address",
          "name": "_signer",
          "type": "address"
        }
      ],
      "stateMutability": "nonpayable",
      "type": "constructor"
    },
    {
      "anonymous": false,
      "inputs": [
        {
          "indexed": true,
          "internalType": "address",
          "name": "previousOwner",
          "type": "address"
        },
        {
          "indexed": true,
          "internalType": "address",
          "name": "newOwner",
          "type": "address"
        }
      ],
      "name": "OwnershipTransferred",
      "type": "event"
    },
    {
      "inputs": [],
      "name": "airdropAmount",
      "outputs": [
        {
          "internalType": "uint16",
          "name": "",
          "type": "uint16"
        }
      ],
      "stateMutability": "view",
      "type": "function"
    },
    {
      "inputs": [
        {
          "internalType": "uint16",
          "name": "amount",
          "type": "uint16"
        },
        {
          "internalType": "uint256[]",
          "name": "tokenIDs",
          "type": "uint256[]"
        },
        {
          "internalType": "bytes",
          "name": "signature",
          "type": "bytes"
        }
      ],
      "name": "claim",
      "outputs": [],
      "stateMutability": "nonpayable",
      "type": "function"
    },
    {
      "inputs": [
        {
          "internalType": "address",
          "name": "",
          "type": "address"
        }
      ],
      "name": "claimed",
      "outputs": [
        {
          "internalType": "bool",
          "name": "",
          "type": "bool"
        }
      ],
      "stateMutability": "view",
      "type": "function"
    },
    {
      "inputs": [],
      "name": "nft",
      "outputs": [
        {
          "internalType": "contract ERC721Partial",
          "name": "",
          "type": "address"
        }
      ],
      "stateMutability": "view",
      "type": "function"
    },
    {
      "inputs": [],
      "name": "owner",
      "outputs": [
        {
          "internalType": "address",
          "name": "",
          "type": "address"
        }
      ],
      "stateMutability": "view",
      "type": "function"
    },
    {
      "inputs": [],
      "name": "renounceOwnership",
      "outputs": [],
      "stateMutability": "nonpayable",
      "type": "function"
    },
    {
      "inputs": [
        {
          "internalType": "uint16",
          "name": "_airdropAmount",
          "type": "uint16"
        }
      ],
      "name": "setAirdropAmount",
      "outputs": [],
      "stateMutability": "nonpayable",
      "type": "function"
    },
    {
      "inputs": [
        {
          "internalType": "address",
          "name": "_signer",
          "type": "address"
        }
      ],
      "name": "setSigner",
      "outputs": [],
      "stateMutability": "nonpayable",
      "type": "function"
    },
    {
      "inputs": [
        {
          "internalType": "address",
          "name": "_treasury",
          "type": "address"
        }
      ],
      "name": "setTreasury",
      "outputs": [],
      "stateMutability": "nonpayable",
      "type": "function"
    },
    {
      "inputs": [],
      "name": "totalAirdropCount",
      "outputs": [
        {
          "internalType": "uint16",
          "name": "",
          "type": "uint16"
        }
      ],
      "stateMutability": "view",
      "type": "function"
    },
    {
      "inputs": [
        {
          "internalType": "address",
          "name": "newOwner",
          "type": "address"
        }
      ],
      "name": "transferOwnership",
      "outputs": [],
      "stateMutability": "nonpayable",
      "type": "function"
    }
  ],
  "transactionHash": "0x933de58883def15d37327c8b92eb474e0e0b118075504b2974c023f3082ace11",
  "args": [
    "0x926baA7445D56D5E8632046409cDC7d5844CE344",
    "0x5e6cCfBa0aB8Bf8BDEE5ABe9f6eE0BB2f274a609"
  ],
  "numDeployments": 1,
  "solcInputHash": "5b7d6983ccb376bc65b4da5bce8b7a6f",
  "bytecode": "0x60806040526001805461ffff60b01b19166103a160b11b17905534801561002557600080fd5b50604051610ed3380380610ed3833981016040819052610044916100f6565b61004d3361008e565b600180546001600160a01b039384166001600160a01b0319918216179091556002805492909316918116919091179091556003805490911633179055610130565b600080546001600160a01b038381166001600160a01b0319831681178455604051919092169283917f8be0079c531659141344cd1fd0a4f28419497f9722a3daafe3b4186f6b6457e09190a35050565b6001600160a01b03811681146100f357600080fd5b50565b6000806040838503121561010957600080fd5b8251610114816100de565b6020840151909250610125816100de565b809150509250929050565b610d948061013f6000396000f3fe608060405234801561001057600080fd5b50600436106100a95760003560e01c8063a4064b2c11610071578063a4064b2c14610134578063c884ef8314610147578063dee22cf31461017a578063f0f442601461018d578063f2fde38b146101a0578063fc2ea8a5146101b357600080fd5b806347ccca02146100ae5780636872ad86146100de5780636c19e78314610106578063715018a61461011b5780638da5cb5b14610123575b600080fd5b6001546100c1906001600160a01b031681565b6040516001600160a01b0390911681526020015b60405180910390f35b6001546100f390600160a01b900461ffff1681565b60405161ffff90911681526020016100d5565b610119610114366004610ada565b6101c8565b005b61011961021d565b6000546001600160a01b03166100c1565b610119610142366004610b21565b610253565b61016a610155366004610ada565b60046020526000908152604090205460ff1681565b60405190151581526020016100d5565b610119610188366004610b94565b61029f565b61011961019b366004610ada565b610527565b6101196101ae366004610ada565b610573565b6001546100f390600160b01b900461ffff1681565b6000546001600160a01b031633146101fb5760405162461bcd60e51b81526004016101f290610c87565b60405180910390fd5b600280546001600160a01b0319166001600160a01b0392909216919091179055565b6000546001600160a01b031633146102475760405162461bcd60e51b81526004016101f290610c87565b610251600061060e565b565b6000546001600160a01b0316331461027d5760405162461bcd60e51b81526004016101f290610c87565b6001805461ffff909216600160b01b0261ffff60b01b19909216919091179055565b6102aa82828661065e565b6102eb5760405162461bcd60e51b815260206004820152601260248201527124b73b30b634b21039b4b3b730ba3ab9329760711b60448201526064016101f2565b60015461ffff600160b01b820481169161030e918791600160a01b900416610cd2565b61ffff1611156103575760405162461bcd60e51b8152602060048201526014602482015273115e18d959591cc818db185a5b48185b5bdd5b9d60621b60448201526064016101f2565b3360009081526004602052604090205460ff16156103aa5760405162461bcd60e51b815260206004820152601060248201526f20b63932b0b23c9031b630b4b6b2b21760811b60448201526064016101f2565b8361ffff168351146103fe5760405162461bcd60e51b815260206004820152601b60248201527f496e76616c696420746f6b656e20494420616e6420616d6f756e74000000000060448201526064016101f2565b60005b8461ffff168161ffff1610156104ca5760015460035485516001600160a01b03928316926323b872dd9216903390889061ffff871690811061044557610445610cf8565b60209081029190910101516040516001600160e01b031960e086901b1681526001600160a01b0393841660048201529290911660248301526044820152606401600060405180830381600087803b15801561049f57600080fd5b505af11580156104b3573d6000803e3d6000fd5b5050505080806104c290610d0e565b915050610401565b50336000908152600460205260409020805460ff19166001908117909155805485919060149061050790849061ffff600160a01b90910416610cd2565b92506101000a81548161ffff021916908361ffff16021790555050505050565b6000546001600160a01b031633146105515760405162461bcd60e51b81526004016101f290610c87565b600380546001600160a01b0319166001600160a01b0392909216919091179055565b6000546001600160a01b0316331461059d5760405162461bcd60e51b81526004016101f290610c87565b6001600160a01b0381166106025760405162461bcd60e51b815260206004820152602660248201527f4f776e61626c653a206e6577206f776e657220697320746865207a65726f206160448201526564647265737360d01b60648201526084016101f2565b61060b8161060e565b50565b600080546001600160a01b038381166001600160a01b0319831681178455604051919092169283917f8be0079c531659141344cd1fd0a4f28419497f9722a3daafe3b4186f6b6457e09190a35050565b604080513360601b6bffffffffffffffffffffffff191660208083019190915260f084901b6001600160f01b0319166034830152825160168184030181526036830184528051908201207f19457468657265756d205369676e6564204d6573736167653a0a3332000000006056840152607280840182905284518085039091018152609290930190935281519101206000919060006107338288888080601f01602080910402602001604051908101604052809392919081815260200183838082843760009201919091525061076592505050565b90506001600160a01b0381161580159061075a57506002546001600160a01b038281169116145b979650505050505050565b60008060006107748585610789565b91509150610781816107f9565b509392505050565b6000808251604114156107c05760208301516040840151606085015160001a6107b4878285856109b4565b945094505050506107f2565b8251604014156107ea57602083015160408401516107df868383610aa1565b9350935050506107f2565b506000905060025b9250929050565b600081600481111561080d5761080d610d30565b14156108165750565b600181600481111561082a5761082a610d30565b14156108785760405162461bcd60e51b815260206004820152601860248201527f45434453413a20696e76616c6964207369676e6174757265000000000000000060448201526064016101f2565b600281600481111561088c5761088c610d30565b14156108da5760405162461bcd60e51b815260206004820152601f60248201527f45434453413a20696e76616c6964207369676e6174757265206c656e6774680060448201526064016101f2565b60038160048111156108ee576108ee610d30565b14156109475760405162461bcd60e51b815260206004820152602260248201527f45434453413a20696e76616c6964207369676e6174757265202773272076616c604482015261756560f01b60648201526084016101f2565b600481600481111561095b5761095b610d30565b141561060b5760405162461bcd60e51b815260206004820152602260248201527f45434453413a20696e76616c6964207369676e6174757265202776272076616c604482015261756560f01b60648201526084016101f2565b6000807f7fffffffffffffffffffffffffffffff5d576e7357a4501ddfe92f46681b20a08311156109eb5750600090506003610a98565b8460ff16601b14158015610a0357508460ff16601c14155b15610a145750600090506004610a98565b6040805160008082526020820180845289905260ff881692820192909252606081018690526080810185905260019060a0016020604051602081039080840390855afa158015610a68573d6000803e3d6000fd5b5050604051601f1901519150506001600160a01b038116610a9157600060019250925050610a98565b9150600090505b94509492505050565b6000806001600160ff1b03831681610abe60ff86901c601b610d46565b9050610acc878288856109b4565b935093505050935093915050565b600060208284031215610aec57600080fd5b81356001600160a01b0381168114610b0357600080fd5b9392505050565b803561ffff81168114610b1c57600080fd5b919050565b600060208284031215610b3357600080fd5b610b0382610b0a565b634e487b7160e01b600052604160045260246000fd5b60008083601f840112610b6457600080fd5b50813567ffffffffffffffff811115610b7c57600080fd5b6020830191508360208285010111156107f257600080fd5b60008060008060608587031215610baa57600080fd5b610bb385610b0a565b935060208086013567ffffffffffffffff80821115610bd157600080fd5b818801915088601f830112610be557600080fd5b813581811115610bf757610bf7610b3c565b8060051b604051601f19603f83011681018181108582111715610c1c57610c1c610b3c565b6040529182528381018501918581018c841115610c3857600080fd5b948601945b83861015610c545785358152948601948601610c3d565b50975050506040880135925080831115610c6d57600080fd5b5050610c7b87828801610b52565b95989497509550505050565b6020808252818101527f4f776e61626c653a2063616c6c6572206973206e6f7420746865206f776e6572604082015260600190565b634e487b7160e01b600052601160045260246000fd5b600061ffff808316818516808303821115610cef57610cef610cbc565b01949350505050565b634e487b7160e01b600052603260045260246000fd5b600061ffff80831681811415610d2657610d26610cbc565b6001019392505050565b634e487b7160e01b600052602160045260246000fd5b60008219821115610d5957610d59610cbc565b50019056fea2646970667358221220be90e3afe1b51f1110f3ea6d37043694051e192d22ead440ddd42278b8efaf8b64736f6c634300080a0033",
  "devdoc": {
    "kind": "dev",
    "methods": {
      "claim(uint16,uint256[],bytes)": {
        "params": {
          "amount": "Which token IDs are transferred?"
        }
      },
      "owner()": {
        "details": "Returns the address of the current owner."
      },
      "renounceOwnership()": {
        "details": "Leaves the contract without owner. It will not be possible to call `onlyOwner` functions anymore. Can only be called by the current owner. NOTE: Renouncing ownership will leave the contract without an owner, thereby removing any functionality that is only available to the owner."
      },
      "transferOwnership(address)": {
        "details": "Transfers ownership of the contract to a new account (`newOwner`). Can only be called by the current owner."
      }
    },
    "version": 1
  },
  "userdoc": {
    "kind": "user",
    "methods": {
      "claim(uint16,uint256[],bytes)": {
        "notice": "Tokens on the given ERC-721 contract are transferred from you to a recipient."
      }
    },
    "version": 1
  },
  "storageLayout": {
    "storage": [
      {
        "astId": 26,
        "contract": "contracts/Airdrop.sol:Airdrop",
        "label": "_owner",
        "offset": 0,
        "slot": "0",
        "type": "t_address"
      },
      {
        "astId": 758,
        "contract": "contracts/Airdrop.sol:Airdrop",
        "label": "nft",
        "offset": 0,
        "slot": "1",
        "type": "t_contract(ERC721Partial)747"
      },
      {
        "astId": 760,
        "contract": "contracts/Airdrop.sol:Airdrop",
        "label": "totalAirdropCount",
        "offset": 20,
        "slot": "1",
        "type": "t_uint16"
      },
      {
        "astId": 763,
        "contract": "contracts/Airdrop.sol:Airdrop",
        "label": "airdropAmount",
        "offset": 22,
        "slot": "1",
        "type": "t_uint16"
      },
      {
        "astId": 765,
        "contract": "contracts/Airdrop.sol:Airdrop",
        "label": "signer",
        "offset": 0,
        "slot": "2",
        "type": "t_address"
      },
      {
        "astId": 767,
        "contract": "contracts/Airdrop.sol:Airdrop",
        "label": "treasury",
        "offset": 0,
        "slot": "3",
        "type": "t_address"
      },
      {
        "astId": 771,
        "contract": "contracts/Airdrop.sol:Airdrop",
        "label": "claimed",
        "offset": 0,
        "slot": "4",
        "type": "t_mapping(t_address,t_bool)"
      }
    ],
    "types": {
      "t_address": {
        "encoding": "inplace",
        "label": "address",
        "numberOfBytes": "20"
      },
      "t_bool": {
        "encoding": "inplace",
        "label": "bool",
        "numberOfBytes": "1"
      },
      "t_contract(ERC721Partial)747": {
        "encoding": "inplace",
        "label": "contract ERC721Partial",
        "numberOfBytes": "20"
      },
      "t_mapping(t_address,t_bool)": {
        "encoding": "mapping",
        "key": "t_address",
        "label": "mapping(address => bool)",
        "numberOfBytes": "32",
        "value": "t_bool"
      },
      "t_uint16": {
        "encoding": "inplace",
        "label": "uint16",
        "numberOfBytes": "2"
      }
    }
  }
}